:020000040000fa
:080000000002040000000000f2
:020000040000fa
:1000080000000000000000000000000000000000e8
:1000180000000000000000000000000000000000d8
:1000280000000000000000000000000000000000c8
:1000380000000000000000000000000000000000b8
:020000040000fa
:020000040000fa
:100400002fee20000eff27000e01880000000000e4
:10041000000020000000e000020032000001200087
:100420002002880014000700770007000000e000a9
:1004300003003a00a0be2100110020000200370096
:100440000000200001002000810f70000100320038
:1004500014000700000020000000e000020032004d
:100460000000020000000000d4360200000000007e
:100470000040da000000fe004440a900205b20009c
:100480000000e000030032000020200090018800fe
:100490004440a800000006008a1f78008b1f7800e7
:1004a00000000600a1028800800478000000eb0034
:1004b0001f003700e284440054a0b4009905ba003c
:1004c000e284440054a0b4009906ba00e2844400d7
:1004d00054a0b4000006eb00476fde00fd07b20039
:1004e000ae018800636ce10003003a00eaff0700f8
:1004f0000000eb000e003700606ce10008003a00dd
:10050000004deb000a05e800020039003420ec0041
:100510000af0a0008b05e900f9ff3e000400370057
:100520006168e100010032000086eb000b0007006b
:1005300019c7ba001905ba000e04e00003003a001a
:100540000a00e000dbff3a0000000600fe07b200f0
:10055000ae0288008a047800f5ff37000cd0a300b3
:10056000e20f4d001c00390089027800354dba00b9
:100570000a05e800020039003420ec000af0a0006f
:100580008b05e9000f003200254dba000a05e8008e
:10059000020039003420ec000af0a0008b05e900cd
:1005a000080032000c00e0000600320015cdba0051
:1005b0000a05e800020039003420ec000af0a0002f
:1005c0008b05e9008984e80054a0b4000b00e0002a
:1005d000e2ff3a00000006009902ba00055d7800cb
:1005e0008b05e900f7ff3200c82ade00055d7800c0
:1005f0008b05e900f3ff32000c00e000f1ff320050
:1006000019ddba00eeff3700000005005400f800c5
:10061000a10288008002780062004000e08048006b
:100620003549ba003204e0000410a700100032007f
:100630008301e9000e0032002549ba003204e000cf
:100640000410a7000a0032008301e900080032000c
:100650000408a300eeff320015c9ba003204e0001e
:100660000410a700020032008301e900e8ff3a000d
:100670005400f900000006008000eb00907688002e
:10068000a176880011c0b30000ed20000148780079
:100690000000060000ed20001004e00002003a0017
:1006a00010002000f4ff0700d2e62400631c2400a1
:1006b00090768000a1768000090007009203230055
:1006c00003002000000141008181490092768800ea
:1006d000a37688000300780000f0a1000000060067
:1006e000020ab900001bb9000200b80081004200f4
:0806f000810043000000060038
:020000040000fa
:1006f80000010000020300000405000006070000d6
:10070800080900000a0b00000c0d00000e0f000085
:10071800131100001d7f0000e39400004a17000039
:10072800f3070000a78b00004d2b000030c5000028
:10073800637c0000777b0000f26b00006fc500004f
:1007480030010000672b0000fed70000ab760000e8
:10075800ca820000c97d0000fa59000047f0000075
:10076800add40000a2af00009ca4000072c000003d
:10077800b7fd000093260000363f0000f7cc0000cc
:1007880034a50000e5f1000071d800003115000023
:1007980004c7000023c3000018960000059a000053
:1007a8000712000080e20000eb270000b27500008d
:1007b800098300002c1a00001b6e00005aa00000dc
:1007c800523b0000d6b3000029e300002f8400004c
:1007d80053d1000000ed000020fc0000b15b0000d8
:1007e8006acb0000be3900004a4c000058cf000018
:1007f800d0ef0000aafb0000434d00003385000045
:1008080045f90000027f0000503c00009fa800004e
:1008180051a30000408f0000929d000038f50000b1
:10082800bcb60000da21000010ff0000f3d200007f
:10083800cd0c000013ec00005f9700004417000087
:10084800c4a700007e3d0000645d0000197300002d
:10085800608100004fdc0000222a00009088000020
:1008680046ee0000b8140000de5e00000bdb00005e
:10087800e03200003a0a000049060000245c00004b
:10088800c2d30000ac62000091950000e47900003a
:10089800e7c80000376d00008dd500004ea90000a4
:1008a8006c560000f4ea0000657a0000ae0800000b
:1008b800ba780000252e00001ca60000b4c600006f
:1008c800e8dd0000741f00004bbd00008b8a0000ab
:1008d800703e0000b566000048030000f60e0000f8
:1008e8006135000057b9000086c100001d9e000058
:1008f800e1f800009811000069d900008e9400000a
:100908009b1e000087e90000ce55000028df00008c
:100918008ca10000890d0000bfe6000042680000bd
:10092800419900002d0f0000b0540000bb160000d4
:10093800520900006ad5000030360000a5380000d2
:10094800bf400000a39e000081f30000d7fb000019
:100958007ce30000398200009b2f0000ff87000025
:10096800348e000043440000c4de0000e9cb0000e0
:10097800547b000094320000a6c20000233d000012
:10098800ee4c0000950b000042fa0000c34e000038
:10099800082e0000a166000028d9000024b200003b
:1009a800765b0000a24900006d8b0000d125000095
:1009b80072f80000f66400008668000098160000cf
:1009c800d4a400005ccc00005d650000b692000075
:1009d8006c70000048500000fded0000b9da00001e
:1009e8005e15000046570000a78d00009d8400009a
:1009f80090d80000ab0000008cbc0000d30a0000b7
:100a0800f7e4000058050000b8b3000045060000f0
:100a1800d02c00001e8f0000ca3f00000f0200000b
:100a2800c1af0000bd030000011300008a6b000085
:100a38003a910000114100004f670000dcea000015
:100a480097f20000cfce0000f0b40000e67300007b
:100a580096ac000074220000e7ad00003585000068
:100a6800e2f9000037e800001c750000df6e0000a6
:100a780047f100001a7100001d290000c589000017
:100a88006fb70000620e0000aa180000be1b00002d
:100a9800fc5600003e4b0000c6d200007920000042
:100aa8009adb0000c0fe000078cd00005af4000078
:100ab8001fdd0000a833000088070000c7310000d0
:100ac800b11200001059000027800000ec5f000000
:100ad800605100007fa9000019b500004a0d000010
:100ae8002de500007a9f000093c900009cef0000ec
:100af800a0e000003b4d0000ae2a0000f5b0000069
:100b0800c8eb0000bb3c0000835300009961000063
:100b1800172b0000047e0000ba770000d6260000dc
:100b2800e169000014630000552100000c7d0000fd
:100b38000002000004060000080a00000c0e000075
:100b48001012000014160000181a00001c1e0000e5
:100b58002022000024260000282a00002c2e000055
:100b68003032000034360000383a00003c3e0000c5
:100b78004042000044460000484a00004c4e000035
:100b88005052000054560000585a00005c5e0000a5
:100b98006062000064660000686a00006c6e000015
:100ba8007072000074760000787a00007c7e000085
:100bb8008082000084860000888a00008c8e0000f5
:100bc8009092000094960000989a00009c9e000065
:100bd800a0a20000a4a60000a8aa0000acae0000d5
:100be800b0b20000b4b60000b8ba0000bcbe000045
:100bf800c0c20000c4c60000c8ca0000ccce0000b5
:100c0800d0d20000d4d60000d8da0000dcde000024
:100c1800e0e20000e4e60000e8ea0000ecee000094
:100c2800f0f20000f4f60000f8fa0000fcfe000004
:100c38001b1900001f1d00001311000017150000ec
:100c48000b0900000f0d000003010000070500005c
:100c58003b3900003f3d00003331000037350000cc
:100c68002b2900002f2d000023210000272500003c
:100c78005b5900005f5d00005351000057550000ac
:100c88004b4900004f4d000043410000474500001c
:100c98007b7900007f7d000073710000777500008c
:100ca8006b6900006f6d00006361000067650000fc
:100cb8009b9900009f9d000093910000979500006c
:100cc8008b8900008f8d00008381000087850000dc
:100cd800bbb90000bfbd0000b3b10000b7b500004c
:100ce800aba90000afad0000a3a10000a7a50000bc
:100cf800dbd90000dfdd0000d3d10000d7d500002c
:100d0800cbc90000cfcd0000c3c10000c7c500009b
:100d1800fbf90000fffd0000f3f10000f7f500000b
:100d2800ebe90000efed0000e3e10000e7e500007b
:100d380000040000080c000010140000181c00003b
:100d480020240000282c000030340000383c00002b
:100d580040440000484c000050540000585c00001b
:100d680060640000686c000070740000787c00000b
:100d780080840000888c000090940000989c0000fb
:100d8800a0a40000a8ac0000b0b40000b8bc0000eb
:100d9800c0c40000c8cc0000d0d40000d8dc0000db
:100da800e0e40000e8ec0000f0f40000f8fc0000cb
:100db8001b1f0000131700000b0f000003070000a3
:100dc8003b3f0000333700002b2f00002327000093
:100dd8005b5f0000535700004b4f00004347000083
:100de8007b7f0000737700006b6f00006367000073
:100df8009b9f0000939700008b8f00008387000063
:100e0800bbbf0000b3b70000abaf0000a3a7000052
:100e1800dbdf0000d3d70000cbcf0000c3c7000042
:100e2800fbff0000f3f70000ebef0000e3e7000032
:100e3800363200003e3a0000262200002e2a00002a
:100e4800161200001e1a0000060200000e0a00001a
:100e5800767200007e7a0000666200006e6a00000a
:100e6800565200005e5a0000464200004e4a0000fa
:100e7800b6b20000beba0000a6a20000aeaa0000ea
:100e8800969200009e9a0000868200008e8a0000da
:100e9800f6f20000fefa0000e6e20000eeea0000ca
:100ea800d6d20000deda0000c6c20000ceca0000ba
:100eb8002d290000252100003d39000035310000b2
:100ec8000d090000050100001d19000015110000a2
:100ed8006d690000656100007d7900007571000092
:100ee8004d490000454100005d5900005551000082
:100ef800ada90000a5a10000bdb90000b5b1000072
:100f08008d890000858100009d9900009591000061
:100f1800ede90000e5e10000fdf90000f5f1000051
:100f2800cdc90000c5c10000ddd90000d5d1000041
:100f380000080000101800002028000030380000c9
:100f480040480000505800006068000070780000b9
:100f58008088000090980000a0a80000b0b80000a9
:100f6800c0c80000d0d80000e0e80000f0f8000099
:100f78001b1300000b0300003b3300002b23000071
:100f88005b5300004b4300007b7300006b63000061
:100f98009b9300008b830000bbb30000aba3000051
:100fa800dbd30000cbc30000fbf30000ebe3000041
:100fb800363e0000262e0000161e0000060e000019
:100fc800767e0000666e0000565e0000464e000009
:100fd800b6be0000a6ae0000969e0000868e0000f9
:100fe800f6fe0000e6ee0000d6de0000c6ce0000e9
:100ff8002d2500003d3500000d0500001d150000e1
:101008006d6500007d7500004d4500005d550000d0
:10101800ada50000bdb500008d8500009d950000c0
:10102800ede50000fdf50000cdc50000ddd50000b0
:101038006c6400007c7400004c4400005c540000a8
:101048002c2400003c3400000c0400001c14000098
:10105800ece40000fcf40000ccc40000dcd4000088
:10106800aca40000bcb400008c8400009c94000078
:10107800777f0000676f0000575f0000474f000050
:10108800373f0000272f0000171f0000070f000040
:10109800f7ff0000e7ef0000d7df0000c7cf000030
:1010a800b7bf0000a7af0000979f0000878f000020
:1010b8005a5200004a4200007a7200006a62000038
:1010c8001a1200000a0200003a3200002a22000028
:1010d800dad20000cac20000faf20000eae2000018
:1010e8009a9200008a820000bab20000aaa2000008
:1010f8004149000051590000616900007179000000
:1011080001090000111900002129000031390000ef
:10111800c1c90000d1d90000e1e90000f1f90000df
:101128008189000091990000a1a90000b1b90000cf
:101138000000000009000000000000000800000096
:101148000102000000000000000c00000003000085
:10115800040a0000000000000a000000000000006f
:10116800050000000008000000000000000000006a
:101178000600000008000000000000000000000059
:1011880007080000000b0000090000000000000034
:101198000800000001020000050600000708000022
:1011a8000a0100000500000002010000050000001f
:1011b8000204000003000000020a0000030000000f
:1011c800020400000a0000000601000005000000fb
:1011d8000607000008000000060700000a000000db
:1011e800060a0000080000000909000009000000c4
:1011f8000a0a00000a0a0000d8d00000e0c0000077
:10120800d0d00000d0c00000c0e80000e8d0000046
:10121800d0d00000d000000055aa0000ff00000058
:101228000101000002040000081000002040000036
:101238008000000058020000320000003200000068
:101248005802000032000000580200005802000056
:041258003200000060
:020000040000fa
:10125c000000fa00b05980000000e00003003a00e2
:10126c0040d02000c011880016003700c059800003
:10127c00e10f50000a003200e10f50000500390068
:10128c00e20f500009003200e30f50000a00320058
:10129c000c00370040d02000c01188000900370036
:1012ac0010682000c011880006003700f0192000db
:1012bc00c011880003003700f00c2000c01188001a
:1012cc0000000000e9a2a900d9c2a800113a8000d0
:1012dc00f00b2000008160006004200071052000ec
:1012ec002374200080497800814978008249780075
:1012fc003135800000fc2f0080806000b00220009f
:10130c000100700030358800f1368000f00f2c00a1
:10131c00808060000050200001007000f0368800d2
:10132c00103a8000000178000260a00060042000e8
:10133c0071052000237420008049780081497800d1
:10134c00824978003022ef003222ef003162a8008f
:10135c003062a8009c40a90097c0a90097e0a900a2
:10136c008c40a90087c0a90087e0a90031e2a80041
:10137c000080fa00000006000200fa000040eb00ba
:10138c00004f7800e0d620008040eb000148780048
:10139c0060d720008040eb000148780030d7200057
:1013ac0061c1b30001487800e0d820008040eb0018
:1013bc000148780060d920008040eb00014878009b
:1013cc000000eb00806c880050d920008040eb00be
:1013dc000148780030d9200061c1b3000148780081
:1013ec00008020008000eb0001087800ec22a900ae
:1013fc0000802000014b2000210098000040eb00f1
:10140c00004f7800060037009e80fb0060d720005c
:10141c00008040008040eb00114098001e4fe80017
:10142c001e407800f54f5000f7ff3600b059800091
:10143c000000e00007003a0020d7200091c0b30064
:10144c000148780020d9200091c0b30001487800f1
:10145c0026003700c0598000e10f50000e0032000a
:10146c00e10f500005003900e20f5000110032006e
:10147c00e30f5000160032001c00370020d720006c
:10148c0091c0b3000148780020d9200091c0b3006e
:10149c00014878001500370020d7200051c0b30058
:1014ac000148780020d9200051c0b30001487800d1
:1014bc000e00370020d7200011c0b300014878007f
:1014cc0020d9200011c0b300014878000700370074
:1014dc0020d7200011c0b3000148780020d920008b
:1014ec0011c0b300014878000000000030d7200084
:1014fc00104078000080fb000080e800004078007d
:10150c0021d72000914078008180fb000088b90031
:10151c00000078008040780040d720000148780017
:10152c000a28ef000c28ef000080fa0000000600eb
:10153c000000fa0000802000110020000108780053
:10154c00f0598000610060000000e00005003200ee
:10155c000080200081d42000110098000c28ef009e
:10156c00050037000080200001fa200011009800cf
:10157c00e0012000604088003342a8000080fa009f
:10158c00000006000000fa00a04080000000e80007
:10159c00a0408800a140800030062000808f5000c1
:1015ac00140036001428ef00f05a8000e60f5000ab
:1015bc0004003200005a8000610060000000e0006e
:1015cc000c003a00e01680004400de006140600030
:1015dc0000c0ea00614060000080fb006100600018
:1015ec004400dd00e11680000140a1000100700004
:1015fc00e01688000080fa00000006000000fa00e7
:10160c00704080008140800061004000e080480014
:10161c0070408800814088007240800083408000c8
:10162c00f0342c0001002000800f5100818f5900f4
:10163c00020036000e28ef001028ef000080fa00a0
:10164c00000006000200fa0002010700e0d82000aa
:10165c0010407800e64f500004003a009504070053
:10166c00e0d820008040eb0001487800008020008a
:10167c00100078008000eb00920020000300200096
:10168c00820f5000838f5800b9003e0000600100ab
:10169c00a600370008003700100037003300370071
:1016ac005300370065003700a0003700700037008a
:1016bc00980037009d00370000802000100090003b
:1016cc000000e0009b003a00b501070000802000fc
:1016dc002100200001087800a50037005017800079
:1016ec00610060000000e00015003a00ec22a80048
:1016fc0050178000610060000000e00004003a0018
:10170c00008020003100200001087800980037008c
:10171c00f0598000610060000000e00087003a0092
:10172c00ec22a9000080200081d420001100980038
:10173c000080200011002000010878008c00370088
:10174c0050178000610060000000e0007d00320056
:10175c000080200081d4200011009800008020001f
:10176c00110020000108780081003700b05980007a
:10177c000000e00013003a00111780000020200048
:10178c00008060000000e00003003a00c5c2a80021
:10179c00e502a9009d0007000b0a0700ac01070039
:1017ac00008020004100200001087800008020000b
:1017bc00210320001100980044fa020000000000f0
:1017cc006b003700000a0700a10107000080200011
:1017dc004100200001087800008020002103200037
:1017ec001100980044fa020000000000600037006d
:1017fc0006f102000000000056fa02000000000092
:10180c00004f78001e407800e44f500005003a006d
:10181c004efa020000000000008020005100200061
:10182c000108780000802000100090000000e0000b
:10183c0046003a00500007004d00370000802000a1
:10184c00100090000000e00042003a0000802000f0
:10185c00710020000108780040d72000104078006b
:10186c008080fb00008020001100980040003700b1
:10187c0060d7200010407800f54f50000c00360067
:10188c009111800000102000008060000000e0003a
:10189c003200320000802000810020000108780016
:1018ac0000802000e101200011009800300037007a
:1018bc009111800000202000008060000000e000fa
:1018cc000e003a0060d72000104078000080fb002a
:1018dc00e8004000e0d6200000804000104090005e
:1018ec000080fb00a011880060d720001040780019
:1018fc008040e80060d7200001487800008020007c
:10190c00100090000000e00016003a001a000700da
:10191c001700370000802000100090000000e0004d
:10192c0012003a00140007001100370000000000fc
:10193c000f003700000000000d0037000000000011
:10194c000b00370000000000090037000000000009
:10195c000700370000000000050037000000000001
:10196c0003003700000000000100370000000000f9
:10197c000080fa00000006000200fa000000eb00f4
:10198c00000f780000802000110020000108780072
:10199c0000802000b000900000802000200090000b
:1019ac00808f50000900360000802000b0009000ad
:1019bc00004b200000017800110009008280d80043
:1019cc008000fd00000f780003003700008020002d
:1019dc00b0009000010f78000080200020009000e3
:1019ec009e0050000080200011009800b05980002b
:1019fc000000e00002003a00c5c2a900e502a80000
:101a0c00ec22a9000080fa00000006000000fa0099
:101a1c0090118000640060000000e00001003200c2
:101a2c003242a90090118000620060000000e000ca
:101a3c00010032003222a900901180006800600081
:101a4c000000e000010032003262a9000080fa00c0
:101a5c00000006000400fa000000eb00000f780004
:101a6c000040eb0020479800111780000020200058
:101a7c00008060000000e00001003200e3ff07007e
:101a8c0090118000610060000000e0005400320002
:101a9c00b01180002047980020012000806c880045
:101aac00e0d82000104078000080fb00e10f5000cf
:101abc0014003200e10f500003003c000000e00075
:101acc000600320046003700e20f50001d003200c5
:101adc00e30f50002b0032004100370070d920007a
:101aec00ae4090000148780060d9200011c0b300ce
:101afc0001487800e0d8200011c0b30001487800fc
:101b0c003700370060d92000104078008080fb003f
:101b1c0060d9200000804000ae4090001140980039
:101b2c0060d92000104078008040e80060d9200087
:101b3c0001487800e0d8200021c0b30001487800ab
:101b4c002700370060d92000104078008080fb000f
:101b5c0060d9200000804000ae40900011409800f9
:101b6c0060d92000104078008040e80060d9200047
:101b7c0001487800e0d8200031c0b300014878005b
:101b8c001700370060d92000104078008080fb00df
:101b9c0060d9200000804000ae40900011409800b9
:101bac0060d92000104078008040e80060d9200007
:101bbc000148780060d9200010407800f54f5000a3
:101bcc0006003600e0d8200041c0b3000148780080
:101bdc0062fa020000000000010037000000000063
:101bec00e0d8200010407800e44f50000d003a007f
:101bfc0000f502000000000074fa02000000000072
:101c0c00304798003e409000e44f500005003a00e9
:101c1c006cfa020000000000e0d8200051c0b300b4
:101c2c0001487800e0d8200010407800e54f5000c3
:101c3c0021003a00610120000000eb00281e020088
:101c4c0001000000000f78001e0078000000e0008a
:101c5c0015003200e0d8200071c0b30001487800b4
:101c6c00305a80006800600000f0a7000000ea0015
:101c7c000000e9004f00de00004078000080fb000f
:101c8c00610060004300dd00315a80000130a1008a
:101c9c0001007000305a8800904080000000e8007d
:101cac009040880015003700e0d8200061c0b300d8
:101cbc000148780011003700e0d82000104078006f
:101ccc000004e00006003200806c80000000e000a0
:101cdc0003003a00e0d820008040eb000148780077
:101cec00e0d8200010407800e74f500003003a0085
:101cfc00e0d820008040eb00014878000080fa001a
:101d0c00000006000000fa001efe07003bfe070064
:101d1c0000802000100090000000e0000500320060
:101d2c0000802000100090008000e900008020005e
:101d3c00110098000080200010007800e10f500086
:101d4c0004003a00008020008000eb003100980075
:101d5c000500370000802000300090008000e80073
:101d6c000080200031009800806c80000000e000b2
:101d7c0003003200806c80000000e900806c880059
:101d8c00604080000000e0000300320060408000f2
:101d9c000000e900604088000080fa0000000600a6
:101dac000000fa00f0598000610060000000e000c3
:101dbc001300320060ed2000104078000004e000b9
:101dcc000500320060ed2000104078008040e900f2
:101ddc0060ed20000148780070ed20001040780084
:101dec000004e0001800320070ed20001040780074
:101dfc008040e90070ed20000148780012003700a7
:101e0c0080ed2000104078000004e0000500320056
:101e1c0080ed2000104078008040e90080ed20002b
:101e2c000148780090ed2000104078000004e0009c
:101e3c000500320090ed2000104078008040e90051
:101e4c0090ed2000014878000080fa0000000600a8
:101e5c000200fa000040eb00004f7800315a80007d
:101e6c0000042000008060000000e00002003a0046
:101e7c001a00070001003700fb00070090118000da
:101e8c00620060000000e000010032003222a90074
:101e9c0090118000640060000000e000030032003c
:101eac00b0118000004f78003242a90090118000e0
:101ebc00680060000000e000010032003262a900fe
:101ecc0060048000640060000000e000010032004b
:101edc008c40a9000080fa00000006000800fa00ff
:101eec000040eb00004f780090598000ee0f50003e
:101efc0006003a0000b3200010407800e640500085
:101f0c0070d72000014878001100370090598000ec
:101f1c00e60f50000300320090598000e80f50008b
:101f2c0006003a0000b3200010407800e440500056
:101f3c0070d72000014878000500370000b320005e
:101f4c001040780080c0e80070d72000014878006d
:101f5c0000b320009040780080d720000148780022
:101f6c0090d72000a1cab300014878000040eb00d4
:101f7c00004f78009059800000407800004f7800a6
:101f8c001e0078000050a000000f7800f05980006f
:101f9c00614060000080fb00610060004400dd00d7
:101fac009e0078000140a10001007000000f780035
:101fbc009e407800a0d72000014878000040eb003c
:101fcc00004f7800005a80004f00de00004078007f
:101fdc000080fb00610060009e0078000100a10001
:101fec0001007000000f7800005a80004700de00ee
:101ffc00614060000080fb00610060000000400058
:10200c009e0078000110a10001007000000f780004
:10201c00105a80004e00de00614060000080fb0022
:10202c00610060004200dd009e0078000120a100ec
:10203c0001007000000f7800105a80004f00de0085
:10204c00004078000080fb00610060004300dd0070
:10205c009e0078000130a10001007000000f780094
:10206c00205a80004600de00614060000080fb00ca
:10207c00610060004400dd009e0078000140a1007a
:10208c0001007000000f7800205a80004700de002d
:10209c00614060000080fb00610060004500dd00d5
:1020ac009e0078000150a10001007000000f780024
:1020bc00005a80004700de00614060000080fb0099
:1020cc00610060004600dd009e0078000160a10008
:1020dc0001007000000f78009e407800b0d72000ff
:1020ec00014878000040eb00004f7800005a800057
:1020fc00614060000080fb00610060009e00780081
:10210c000100a10001007000000f7800105a80003f
:10211c004600de00614060000080fb006100600052
:10212c00000040009e0078000110a100010070002a
:10213c00000f7800005a80004500de00614060000e
:10214c000080fb00610060004200dd009e00780012
:10215c000120a10001007000000f7800005a8000df
:10216c004600de00614060000080fb006100600002
:10217c004300dd009e0078000130a10001007000da
:10218c00000f7800f0598000620060000000e00051
:10219c00030032001e0078000040a000000f780001
:1021ac009e407800c0d7200001487800649e020051
:1021bc00000000002007980031079800fe409000b6
:1021cc00d0d7200001487800ee409000e0d72000e6
:1021dc0001487800de409000f0d7200001487800dc
:1021ec00ce40900000d820000148780050d8200044
:1021fc008040eb000148780060d820008040eb0064
:10220c000148780070d820008040eb00014878002d
:10221c0080d820008040eb0001487800210120008c
:10222c0010002000281e020001000000100798007a
:10223c00ae40900090d8200001487800be4090003d
:10224c00a0d820000148780030d7200061c1b3002d
:10225c000148780060d720008040eb0001487800ee
:10226c000080fa00000006000c00fa000040eb00b1
:10227c00004f780090598000e60f500003003200a8
:10228c0090598000e80f500006003a0000b320007f
:10229c0010407800e440500070d7200001487800ce
:1022ac000e00370090598000ee0f500006003a00e7
:1022bc0000b3200010407800e640500070d720009a
:1022cc00014878000500370000b32000104078006a
:1022dc0080c0e80070d720000148780000b32000cf
:1022ec009040780080d720000148780090d72000db
:1022fc0051c5b300014878000040eb00004f780056
:10230c009059800000407800004f78001e00780043
:10231c000050a000000f7800f05980006140600070
:10232c000080fb00610060004400dd009e0078002e
:10233c000140a10001007000000f78009e40780061
:10234c00a0d72000014878000040eb00004f780037
:10235c00005a80004f00de00004078000080fb0037
:10236c00610060009e0078000100a1000100700077
:10237c00000f7800005a80004700de0061406000ca
:10238c000080fb0061006000000040009e007800af
:10239c000110a10001007000000f7800105a80009d
:1023ac004e00de00614060000080fb0061006000b8
:1023bc004200dd009e0078000120a10001007000a9
:1023cc00000f7800105a80004f00de0000407800ab
:1023dc000080fb00610060004300dd009e0078007f
:1023ec000130a10001007000000f7800205a80001d
:1023fc004600de00614060000080fb006100600070
:10240c004400dd009e0078000140a1000100700036
:10241c00000f7800205a80004700de006140600009
:10242c000080fb00610060004500dd009e0078002c
:10243c000150a10001007000000f780084770200a9
:10244c0000000000204798001e00900061406000d2
:10245c000080fb00610060004600dd009e007800fb
:10246c000160a10001007000000f78001e009000b8
:10247c000000d100614060000080fb006100600042
:10248c004700dd009e0078000170a1000100700083
:10249c00000f78009e407800b0d7200001487800eb
:1024ac000040eb00004f7800005a80006140600053
:1024bc000080fb00610060009e0078000100a1001c
:1024cc0001007000000f7800105a80004600de00fa
:1024dc00614060000080fb00610060000000400073
:1024ec009e0078000110a10001007000000f780020
:1024fc00005a80004500de00614060000080fb0057
:10250c00610060004200dd009e0078000120a10007
:10251c0001007000000f7800005a80004600de00b9
:10252c00614060000080fb00610060004300dd0042
:10253c009e0078000130a10001007000000f7800af
:10254c00f0598000620060000000e00035003200ad
:10255c0090598000e40f5000060032009059800022
:10256c00e50f50000300320090598000e60f500038
:10257c000b003a00bace020000000000614060007f
:10258c000080fb00610060004400dd009e007800cc
:10259c000140a10001007000000f780021003700fd
:1025ac0090598000eb0f50000900320090598000c8
:1025bc00ec0f50000600320090598000ed0f5000d7
:1025cc000300320090598000ee0f50000b003a00cf
:1025dc004088020000000000614060000080fb00a9
:1025ec00610060004400dd009e0078000140a10005
:1025fc0001007000000f78000a003700280d02005f
:10260c0001000000614060000080fb006100600080
:10261c004400dd009e0078000140a1000100700024
:10262c00000f7800305a80004600de0061406000e8
:10263c000080fb00610060004500dd009e0078001a
:10264c000150a10001007000000f78009e4078003e
:10265c00c0d72000014878009e77020000000000df
:10266c0020079800a67702000000000030079800b1
:10267c00ce409000d0d7200001487800de4090007a
:10268c00e0d7200001487800ee409000f0d7200001
:10269c0001487800fe40900000d8200001487800e6
:1026ac007277020000000000400798008e489000ee
:1026bc0010d82000014878009e48900020d82000b7
:1026cc000148780030d820008040eb0001487800a9
:1026dc0040d820008040eb000148780050d8200002
:1026ec008040eb000148780060d820008040eb006f
:1026fc000148780070d820008040eb000148780039
:10270c0080d820008040eb000148780090d8200051
:10271c008040eb0001487800a0d820008040eb00fe
:10272c000148780090598000eb0f500009003200ee
:10273c00eb0f50004b003900ed0f5000270032001a
:10274c00ed0f500014003900ee0f50003400320031
:10275c0045003700b05e800020079800905e800036
:10276c0030079800ce40900030d820000148780007
:10277c00de40900040d8200001487800ee409000e8
:10278c0050d8200001487800fe40900060d820000e
:10279c000148780034003700f05d80002007980075
:1027ac00d05d800030079800ce40900030d82000db
:1027bc0001487800de40900040d8200001487800a5
:1027cc00ee40900050d8200001487800fe40900068
:1027dc0060d820000148780023003700305e80006c
:1027ec0020079800105e800030079800ce409000c3
:1027fc0030d8200001487800de40900040d82000fe
:10280c0001487800ee40900050d820000148780034
:10281c00fe40900060d8200001487800120037007c
:10282c00705e800020079800505e80003007980092
:10283c00ce40900030d8200001487800de40900057
:10284c0040d8200001487800ee40900050d820007d
:10285c0001487800fe40900060d8200001487800c4
:10286c000100370000000000410120001000200092
:10287c00281e02000100000050079800ae4890008e
:10288c00b0d8200001487800be489000c0d8200085
:10289c000148780030d7200061c1b30001487800ae
:1028ac0060d720008040eb00014878000080fa00df
:1028bc00000006000200fa000040eb00004f780018
:1028cc0090d92000104f7800a0cab3009e40780029
:1028dc0080cf500001003a000700070050c5b3003c
:1028ec009e40780080cf500001003a00a300070002
:1028fc000080fa00000006000a00fa00a0d92000af
:10290c00104078004047980080d920001040780093
:10291c00004f780070d920001040780020479800b4
:10292c00b0d920001040780060479800c0d9200032
:10293c0010407800004f980000b3200090407800c1
:10294c002e40900080cf50000c003200a0b320002d
:10295c00904078002e40900080cf5000070032004d
:10296c007e28a8006a96020000000000a0c0b300f8
:10297c0006180200010000007e0037001e4078009f
:10298c000004e00007003a007e28a8006a960200c6
:10299c0000000000a0c0b3000618020001000000f7
:1029ac0074003700ae4090001e40780080cf50007d
:1029bc0007003a007e28a8006a960200000000007a
:1029cc00a0c0b30006180200010000006900370027
:1029dc00ae00900000022000008060000000e000cb
:1029ec00070032007e28a8006a9602000000000052
:1029fc00a0c0b30006180200010000005d00370003
:102a0c00f0598000620060000000e0000b00320012
:102a1c004e009000700060000000e00007003a00db
:102a2c007e28a8006a96020000000000a0c0b30037
:102a3c0006180200010000004e003700be00900096
:102a4c002e0090004a680200000000004e0090002a
:102a5c0002660200000000001e0078004b04070014
:102a6c00be0090001e007800730407004e0090001a
:102a7c00620060000000e00004003a007e28a8001c
:102a8c0060002000005b8800010037007e28a90050
:102a9c00be00900000042000008060000000e000f8
:102aac00030032009a5602000000000002003700ba
:102abc0010002000005b88002e0090007000600069
:102acc000000e000160032003e0090000000d10033
:102adc00614060000056020000000000d0d92000c8
:102aec0090407800b0b4200001487800e0d9200074
:102afc0090407800a0b4200001487800f0d9200064
:102b0c009040780090b420000148780000da200052
:102b1c009040780080b42000014878001500370000
:102b2c003e0090000000d100614060001856020089
:102b3c0000000000d0d9200090407800f0b42000b4
:102b4c0001487800e0d9200090407800e0b42000e3
:102b5c0001487800f0d9200090407800d0b42000d3
:102b6c000148780000da200090407800c0b42000c2
:102b7c00014878000080fa00000006001a00fa00f4
:102b8c000040eb00104798000040eb00004f78002d
:102b9c00a0d92000104078002057980080d9200040
:102bac0010407800604f980070d9200010407800d9
:102bbc0000579800b0d9200010407800405798007a
:102bcc00c0d92000104078006057980000b3200056
:102bdc00904078000e50900080cf500005003200dd
:102bec00a0b32000904078000e50900080cf500091
:102bfc0057033a006e4890000004e0005603320080
:102c0c008e5090006e48900080cf500054033200dc
:102c1c009e08900000022000008060000000e00090
:102c2c0051033a007e009000d8030700ae089000d4
:102c3c007e009000000407002e08900062006000e7
:102c4c000000e0000800320090598000e30f5000b3
:102c5c000300360090598000e60f50000200360049
:102c6c009a56020000000000105b800062006000b9
:102c7c000000e0000d003a00be08900000022000a9
:102c8c00008060000000e0000800320090598000d5
:102c9c00e30f50000300360090598000e60f5000ff
:102cac0002003600b8560200000000003e089000fa
:102cbc00620060000000e00008003a0090598000bb
:102ccc00e30f50000300360090598000e60f5000cf
:102cdc000200360060002000005b880090598000e4
:102cec00e40f50000600320090598000e50f5000b0
:102cfc000300320090598000e60f500004003a00a7
:102d0c00c4ce020000000000004f78001300370012
:102d1c0090598000eb0f5000090032009059800050
:102d2c00ec0f50000600320090598000ed0f50005f
:102d3c000300320090598000ee0f500004003a005e
:102d4c004a88020000000000004f780003003700a2
:102d5c001e0d020001000000004f7800315a800067
:102d6c0000042000008060000000e000030032003e
:102d7c001e407800e74f500010003a001e089000eb
:102d8c00700060000000e000060032002e08900089
:102d9c000000d100614060000056020000000000fd
:102dac000e0337002e0890000000d1006140600037
:102dbc0018560200000000000803370090598000ec
:102dcc00e40f50000600320090598000e50f5000cf
:102ddc000300320090598000e60f500013003a00b7
:102dec001e407800e14f500041003a001e08900050
:102dfc00700060000000e000060032003e08900009
:102e0c004400de0061406000cece020000000000f5
:102e1c00370037003e0890004400de00614060003f
:102e2c00dace02000000000031003700905980001b
:102e3c00eb0f50000900320090598000ec0f50004d
:102e4c000600320090598000ed0f50000300320054
:102e5c0090598000ee0f500013003a001e4078008d
:102e6c00e14f500022003a001e08900070006000f4
:102e7c000000e000060032003e0890004400de0036
:102e8c006140600054880200000000001800370008
:102e9c003e0890004400de00614060006088020043
:102eac0000000000120037001e407800e14f500077
:102ebc000f003a001e089000700060000000e00057
:102ecc00060032003e0890004400de0061406000c5
:102edc00f80c020001000000050037003e089000cd
:102eec004400de0061406000040d0200010000009f
:102efc00ae0890001e0890004a6802000000000016
:102f0c003e0890000266020000000000115a80008a
:102f1c0000042000008060000000e00094023200f9
:102f2c003e089000c1030700d0d920001040780063
:102f3c0040479800e0d92000104078005047980096
:102f4c00f0d92000104078006047980000da20008b
:102f5c00104078007047980030da2000104078005c
:102f6c00004f980040da200010407800104f980075
:102f7c0050da200010407800204f980060da2000d2
:102f8c0010407800304f980010da20001040780084
:102f9c00404f980020da200010407800504f9800e5
:102fac0010da20001040780008e8b70020da200082
:102fbc001040780009e8b7006e0090002047980098
:102fcc00de4890004e48900042b402000000000021
:102fdc004e5090000080fb004600de001047980029
:102fec00905980006101b8000080eb008080eb00fc
:102ffc000200400083804800d20020000300200023
:10300c00820f5000838f58005b023e00006001006d
:10301c000d0037005a0237001b0037002a0037001a
:10302c005f00370094003700290237003802370060
:10303c005302370052023700c50037001c0137001d
:10304c0073013700ca013700ee4890000e50900013
:10305c0080cf50004c023600be0090002e00900035
:10306c0001017800800078007e0090005d0207006e
:10307c006e009000000178009e4090007e00900051
:10308c006f02070055023700ee4890000e5090007a
:10309c0080cf50003e023600be0090002e00900003
:1030ac0001017800800078007e0090004d0207003e
:1030bc006e009000000178009e4090007e00900011
:1030cc005f02070045023700ee4890000e5090005a
:1030dc0080cf5000300236000040eb00005f9800bb
:1030ec001e089000614060000080fb0061006000e1
:1030fc00ce0890000100a10001007000400f980064
:10310c001e0890000000d100614060000080fb00b0
:10311c006100600000004000ce0890000110a1008a
:10312c0001007000400f98001e0890004200de0065
:10313c00614060000080fb00610060004200dd0027
:10314c00ce0890000120a10001007000400f9800f3
:10315c003e019000ae0090000e5890000080fb00e5
:10316c008201780001017800800078007e009000d8
:10317c00eac9020000000000ee0090000e5890001a
:10318c000080fb00810178001e41900080007800d7
:10319c007e00900038cd0200000000000f023700c6
:1031ac00ee4890000e50900080cf5000fc0136008d
:1031bc000040eb00005f98001e089000614060002a
:1031cc000080fb0061006000ce0890000100a100af
:1031dc0001007000400f98001e0890000000d10004
:1031ec00614060000080fb00610060000000400056
:1031fc00ce0890000110a10001007000400f980053
:10320c001e0890004200de00614060000080fb0060
:10321c00610060004200dd00ce0890000120a1009a
:10322c0001007000400f98003e019000ae0090002d
:10323c000e5890000080fb0082017800010178009c
:10324c00800078007e009000eac9020000000000b7
:10325c00ee0090000e5890000080fb008101780079
:10326c001e419000800078007e00900038cd020056
:10327c0000000000d9013700ee4890000e5090007d
:10328c0080cf5000c80131000040eb00005f980077
:10329c001e089000614060000080fb00610060002f
:1032ac00ce0890000100a10001007000400f9800b2
:1032bc001e0890000000d100614060000080fb00ff
:1032cc006100600000004000ce0890000110a100d9
:1032dc0001007000400f98001e0890004200de00b4
:1032ec00614060000080fb00610060004200dd0076
:1032fc00ce0890000120a10001007000400f980042
:10330c003e019000ae0090000e5890000080fb0033
:10331c008201780001017800800078007e00900026
:10332c00eac9020000000000ee0090000e58900068
:10333c000080fb00810178001e4190008000780025
:10334c007e00900038cd020000000000a301370081
:10335c00ee4890000e50900080cf50009401360043
:10336c000040eb00005f98001e0890006140600078
:10337c000080fb0061006000ce0890000100a100fd
:10338c0001007000400f98001e0890000000d10052
:10339c00614060000080fb006100600000004000a4
:1033ac00ce0890000110a10001007000400f9800a1
:1033bc001e0890004200de00614060000080fb00af
:1033cc00610060004200dd00ce0890000120a100e9
:1033dc0001007000400f98001e0890004300de00b2
:1033ec00614060000080fb00610060004300dd0074
:1033fc00ce0890000130a10001007000400f980031
:10340c003e019000ae0090000e5890000080fb0032
:10341c008201780001017800800078007e00900025
:10342c000882020000000000ee0090000e58900090
:10343c000080fb00810178001e4190008000780024
:10344c007e009000508602000000000020c0b300f7
:10345c00604f9800ce0090005e00900081017800d3
:10346c0000017800d10020007e009000088202004c
:10347c00000000005e0090008001780012c0b300d4
:10348c00d10020007e009000508602000000000059
:10349c004e0090008001780022c0b300d1002000c3
:1034ac007e00900050860200000000004b013700a7
:1034bc00ee4890000e50900080cf50003e01360038
:1034cc000040eb00005f98001e0890006140600017
:1034dc000080fb0061006000ce0890000100a1009c
:1034ec0001007000400f98001e0890000000d100f1
:1034fc00614060000080fb00610060000000400043
:10350c00ce0890000110a10001007000400f98003f
:10351c001e0890004200de00614060000080fb004d
:10352c00610060004200dd00ce0890000120a10087
:10353c0001007000400f98001e0890004300de0050
:10354c00614060000080fb00610060004300dd0012
:10355c00ce0890000130a10001007000400f9800cf
:10356c003e019000ae0090000e5890000080fb00d1
:10357c008201780001017800800078007e009000c4
:10358c000882020000000000ee0090000e5890002f
:10359c000080fb00810178001e41900080007800c3
:1035ac007e009000508602000000000020c0b30096
:1035bc00604f9800ce0090005e0090008101780072
:1035cc0000017800e10020007e00900008820200db
:1035dc00000000005e0090008001780012c0b30073
:1035ec00e10020007e0090005086020000000000e8
:1035fc004e0090008001780022c0b300e100200052
:10360c007e0090005086020000000000f30037009e
:10361c00ee4890000e50900080cf5000e80036002d
:10362c000040eb00005f98001e08900061406000b5
:10363c000080fb0061006000ce0890000100a1003a
:10364c0001007000400f98001e0890000000d1008f
:10365c00614060000080fb006100600000004000e1
:10366c00ce0890000110a10001007000400f9800de
:10367c001e0890004200de00614060000080fb00ec
:10368c00610060004200dd00ce0890000120a10026
:10369c0001007000400f98001e0890004300de00ef
:1036ac00614060000080fb00610060004300dd00b1
:1036bc00ce0890000130a10001007000400f98006e
:1036cc003e019000ae0090000e5890000080fb0070
:1036dc008201780001017800800078007e00900063
:1036ec000882020000000000ee0090000e589000ce
:1036fc000080fb00810178001e4190008000780062
:10370c007e009000508602000000000020c0b30034
:10371c00604f9800de0090004e0090008101780010
:10372c0000017800b10020007e00900008820200a9
:10373c00000000004e0090008001780012c0b30021
:10374c00b10020007e0090005086020000000000b6
:10375c005e0090008001780022c0b300b100200010
:10376c007e00900050860200000000009b00370095
:10377c00ee4890000e50900080cf50009200310027
:10378c000040eb00005f98001e0890006140600054
:10379c000080fb0061006000ce0890000100a100d9
:1037ac0001007000400f98001e0890000000d1002e
:1037bc00614060000080fb00610060000000400080
:1037cc00ce0890000110a10001007000400f98007d
:1037dc001e0890004200de00614060000080fb008b
:1037ec00610060004200dd00ce0890000120a100c5
:1037fc0001007000400f98001e0890004300de008e
:10380c00614060000080fb00610060004300dd004f
:10381c00ce0890000130a10001007000400f98000c
:10382c003e019000ae0090000e5890000080fb000e
:10383c008201780001017800800078007e00900001
:10384c000882020000000000ee0090000e5890006c
:10385c000080fb00810178001e4190008000780000
:10386c007e009000508602000000000020c0b300d3
:10387c00604f9800ce0090005e00900081017800af
:10388c0000017800c10020007e0090000882020038
:10389c00000000005e0090008001780012c0b300b0
:1038ac00c10020007e009000508602000000000045
:1038bc004e0090008001780022c0b300c1002000af
:1038cc007e0090005086020000000000430037008c
:1038dc00ee4890000e50900080cf50003c00360017
:1038ec00be0090002e00900001017800800078004e
:1038fc007e009000690007006e00900000017800c7
:10390c009e4090007e0090004d0007003300370071
:10391c00ee4890000e50900080cf50002e003100e9
:10392c00be0090002e00900001017800800078000d
:10393c007e009000590007006e0090000001780096
:10394c009e4090007e0090003d0007002300370051
:10395c000000000021003700000000001f003700ad
:10396c00000000001d003700000000001b003700a5
:10397c00000000001900370000000000170037009d
:10398c000000000015003700000000001300370095
:10399c000000000011003700000000000f0037008d
:1039ac00000000000d003700000000000b00370085
:1039bc00000000000900370000000000070037007d
:1039cc000000000005003700000000000300370075
:1039dc000000000001003700000000000080fa0029
:1039ec00000006000600fa00000f7800110798008e
:1039fc00220798001e007800610060000000e000c3
:103a0c00070032002e009000980c0200010000000c
:103a1c001e009000440c020001000000060037005c
:103a2c002e009000a40c0200010000001e0090006b
:103a3c00500c0200010000000080fa00000006009b
:103a4c000600fa00000f7800214798002207980022
:103a5c001e007800610060000000e00007003200ea
:103a6c002e409000c80c0200010000002e009000b7
:103a7c00b00c020001000000060037002e40900040
:103a8c00d40c0200010000002e009000bc0c0200bf
:103a9c00010000000080fa00000006000600fa0099
:103aac00000f7800110798002207980090598000a9
:103abc00ee0f500033003e00110020000008dd0026
:103acc00f1e72700810060000100e0002c003a00c3
:103adc0001102000810060000100e00016003a0097
:103aec0001082000010060000000e0002500320009
:103afc001e007800610060000000e000070032004a
:103b0c002e009000980c0200010000001e00900096
:103b1c00440c0200010000001a0037002e00900037
:103b2c00a40c0200010000001e009000500c0200ca
:103b3c0001000000130037001e00780061006000d7
:103b4c000000e000070032001e009000980c0200fc
:103b5c00010000002e009000440c02000100000047
:103b6c00080037001e009000a40c020001000000a9
:103b7c002e009000500c02000100000001003700e4
:103b8c00000000000080fa00000006000400fa00ab
:103b9c00100798000040eb00004f78000040eb004d
:103bac00104798000080200010007800e10f5000b2
:103bbc001e003a00f0598000610060000000e00037
:103bcc00030032000040eb00004f78000200370089
:103bdc0010c0b300004f78001e0090006100600020
:103bec000000e000030032000040eb00104798009a
:103bfc000200370010c0b300104798001e80fb0075
:103c0c009e4090000181fb00e191280000004000e3
:103c1c00020040000000400000804000900078004e
:103c2c000080200011009800010037000000000007
:103c3c000080fa00000006000400fa00000f780073
:103c4c0011079800f0598000610060000000e0004e
:103c5c003b0032001e007800610060000000e000b4
:103c6c001b00320060ed200041c6b3000148780013
:103c7c00105a800000e0a000105a88001e0090002e
:103c8c004200de00614060000080fb0061006000cb
:103c9c004a00dd00115a800001a0a1000100700053
:103cac00105a88001e0090004300de006140600046
:103cbc000080fb00610060004200dd00215a8000a2
:103ccc000120a10001007000205a88005500370027
:103cdc0070ed200041c6b30001487800115a8000f5
:103cec000000280001007000105a88001e0090008f
:103cfc004400de00614060000080fb006100600059
:103d0c004b00dd00115a800001b0a10001007000d1
:103d1c00105a88001e0090004500de0061406000d3
:103d2c000080fb00610060004300dd00215a800030
:103d3c000130a10001007000205a880039003700c2
:103d4c001e007800610060000000e0001b003200e3
:103d5c0080ed200041c6b30001487800205a800055
:103d6c000060a000205a88001e0090004200de0077
:103d7c00614060000080fb00610060004a00dd00d3
:103d8c00115a800001a0a10001007000105a880097
:103d9c001e0090004300de00614060000080fb00cc
:103dac00610060004200dd00215a80000120a1006a
:103dbc0001007000205a88001a00370090ed200096
:103dcc0041c6b30001487800205a80000070a00062
:103ddc00205a88001e0090004400de006140600004
:103dec000080fb00610060004b00dd00115a800078
:103dfc0001b0a10001007000105a88001e00900054
:103e0c004500de00614060000080fb006100600046
:103e1c004300dd00215a80000130a1000100700038
:103e2c00205a88000080fa00000006000200fa0008
:103e3c00000f78001e007800610060000000e000b8
:103e4c00040032001e007800620060000000e000f8
:103e5c0005003a006a9602000000000020c2b30080
:103e6c0006180200010000000080fa0000000600a5
:103e7c000000fa00b05980000000e00039003a0060
:103e8c0050408000e20f500025003200e20f50003d
:103e9c0005003e000000e00006003200e10f50007b
:103eac000a00320040003700e30f500027003200b8
:103ebc003d003700604080000000e00033003a0015
:103ecc001000200050408800370037005017800049
:103edc00610060000000e0000c003a00ec22a80039
:103eec0050178000610060000000e00029003a00db
:103efc00e502a800c5c2a8002000200050408800a0
:103f0c00400120006040880027003700ec22a90007
:103f1c000a28ef00e00120006040880022003700f2
:103f2c00604080000000e0001c003a00e502a800a0
:103f3c00c5c2a9003000200050408800ec22a90026
:103f4c00200320006040880017003700604080008c
:103f5c000000e00013003a004000200050408800b0
:103f6c001100370050408000e40f50000e0032006a
:103f7c00e502a800c5c2a8004000200050408800ff
:103f8c00e0012000604088000700370000000000be
:103f9c00050037000000000003003700000000009f
:103fac0001003700000000000080fa00000006004d
:103fbc000200fa0050408000004f78001e4078004c
:103fcc000080fa00000006000200fa000040eb003e
:103fdc00004f7800060037009e80fb0060d7200061
:103fec00008040008040eb00114098001e4fe8001c
:103ffc001e407800f64f5000f7ff36000080fa00a4
:10400c00000006000000fa00a05980000000e0004b
:10401c0003003a0040d02000401188001600370001
:10402c00c0598000e10f50000a003200e10f50002f
:10403c0005003900e20f500009003200e30f500078
:10404c000a0032000c00370040d0200040118800dc
:10405c000900370010682000401188000600370066
:10406c00f01920004011880003003700f00c2000ec
:10407c004011880000000000e842a900e862a80096
:10408c00113a8000f00b20000081600060042000d9
:10409c007105200023742000804978008149780044
:1040ac00824978002135800000fc2f0000806000e0
:1040bc000040a00020358800f136800000fc2f0065
:1040cc00008060003000b300f0368800103a8000a9
:1040dc00000178000260a00060042000710520003f
:1040ec002374200080497800814978008249780047
:1040fc002022ef002222ef002162a8002062a800fb
:10410c009c20a9009560a9009580a9008c20a9008d
:10411c008560a9008580a90021e2a8000080fa0032
:10412c00000006000200fa000040eb00004f78008f
:10413c00e0da20008040eb000148780060db2000d2
:10414c008040eb000148780030db200061c1b300f7
:10415c0001487800e0dc20008040eb00014878004a
:10416c0060dd20008040eb00014878000000eb008f
:10417c00806e880050dd20008040eb000148780004
:10418c0030dd200061c1b30001487800808120003f
:10419c008000eb0001087800f422a9008081200047
:1041ac00014b2000210098000040eb00004f7800ec
:1041bc00060037009e80fb0060db20000080400082
:1041cc008040eb00114098001e4fe8001e40780024
:1041dc00f54f5000f7ff3600a05980000000e000ba
:1041ec0007003a0020db200091c0b30001487800a2
:1041fc0020dd200091c0b300014878002600370074
:10420c00c0598000e10f50000e003200e10f500049
:10421c0005003900e20f500011003200e30f50008e
:10422c00160032001c00370020db200091c0b300c8
:10423c000148780020dd200091c0b30001487800cf
:10424c001500370020db200051c0b3000148780076
:10425c0020dd200051c0b300014878000e0037006b
:10426c0020db200011c0b3000148780020dd2000c5
:10427c0011c0b300014878000700370020db200094
:10428c0011c0b3000148780020dd200011c0b3003c
:10429c00014878000000000030db2000104078005e
:1042ac000080fb000080e8000040780021db20004b
:1042bc00914078008180fb000088b90000007800f4
:1042cc008040780040db2000014878002028ef0077
:1042dc002228ef000080fa00000006000000fa001f
:1042ec00808120001100200001087800f059800026
:1042fc00610060000000e0000500320080812000b9
:10430c0041e72000110098002228ef00050037003b
:10431c0080812000c10c210011009800e0012000d8
:10432c00104188002342a8000080fa00000006001b
:10433c000000fa00504180000000e8005041880065
:10434c005141800030062000808f50001400360050
:10435c002a28ef00205b8000e60f5000040032009a
:10436c00005a8000610060000000e0000c003a0080
:10437c00a01680004e00de006140600000c0ea0024
:10438c00614060000080fb00610060004e00dd00b9
:10439c00a116800001e0a10001007000a0168800a9
:1043ac000080fa00000006000000fa0020418000a6
:1043bc003141800061004000e080480020418800cd
:1043cc00314188002241800033418000f0342c00c0
:1043dc0001002000800f5100818f5900020036002f
:1043ec002428ef002628ef000080fa0000000600c9
:1043fc000200fa00e3000700e0dc20001040780027
:10440c00e64f500004003a0099040700e0dc20005d
:10441c008040eb000148780080812000100078007b
:10442c008000eb009200200003002000820f50005f
:10443c00838f5800bf003e0000600100ac003700c5
:10444c0008003700100037003300370053003700e6
:10445c0065003700a6003700700037009e0037005b
:10446c00a300370080812000100090000000e000c5
:10447c00a1003a00bb010700808120002100200030
:10448c0001087800ab0037009017800061006000d5
:10449c000000e00015003a00f422a80090178000fc
:1044ac00610060000000e00004003a008081200000
:1044bc0031002000010878009e003700f059800080
:1044cc00610060000000e0008d003a00f422a900b9
:1044dc008081200081d42000110098008081200070
:1044ec00110020000108780092003700901780001e
:1044fc00610060000000e000830032008081200039
:10450c0081d420001100980080812000110020002f
:10451c000108780087003700a05980000000e000f7
:10452c0013003a0051178000000220000080600048
:10453c000000e00003003a00ec82a900ed02a800a4
:10454c007e000700060a0700b201070080812000e8
:10455c004100200001087800808120002103200008
:10456c0011009800bc03020001000000710037002c
:10457c00fb090700a70107008081200041002000f3
:10458c000108780080812000210320001100980090
:10459c00bc03020001000000660037008efa020026
:1045ac0000000000ce03020001000000004f780064
:1045bc001e407800e44f500005003a00c60302008c
:1045cc0001000000808120005100200001087800cb
:1045dc0080812000100090000000e0004c003a00a8
:1045ec001401070053003700808120001000900058
:1045fc000000e00048003a0080812000710020009b
:10460c000108780040db2000104078008080fb001f
:10461c0080812000110098004600370060db2000ec
:10462c0010407800f54f50000c003600111180003e
:10463c0000102000008060000000e0003800320014
:10464c0080812000810020000108780080812000fa
:10465c00e101200011009800360037001111800094
:10466c0000402000008060000000e00001003a00e3
:10467c002342a8001111800000202000008060005f
:10468c000000e0000e003a0060db200010407800d3
:10469c000080fb00e8004000e0da200000804000d1
:1046ac00104090000080fb002011880060db20008f
:1046bc00104078008040e80060db20000148780062
:1046cc0080812000100090000000e00016003a00ed
:1046dc00d8000700170037008081200010009000e0
:1046ec000000e00012003a00d20007001100370071
:1046fc00000000000f003700000000000d00370024
:10470c00000000000b00370000000000090037001b
:10471c000000000007003700000000000500370013
:10472c00000000000300370000000000010037000b
:10473c00000000000080fa00000006000000fa00f3
:10474c0010118000640060000000e00001003200e5
:10475c002242a90090118000620060000000e0007d
:10476c00010032002222a9001011800068006000b4
:10477c000000e000010032002262a9000080fa0073
:10478c00000006000400fa000000eb00000f7800a7
:10479c000040eb00204798005117800000022000d9
:1047ac00008060000000e00001003200e3ff070021
:1047bc0010118000610060000000e0005400320025
:1047cc00301180002047980020012000806e880066
:1047dc00e0dc2000104078000080fb00e10f50006e
:1047ec0014003200e10f500003003c000000e00018
:1047fc000600320046003700e20f50001d00320068
:10480c00e30f50002b0032004100370070dd200018
:10481c00ae4090000148780060dd200011c0b3006c
:10482c0001487800e0dc200011c0b300014878009a
:10483c003700370060dd2000104078008080fb00de
:10484c0060dd200000804000ae40900011409800d8
:10485c0060dd2000104078008040e80060dd200022
:10486c0001487800e0dc200021c0b300014878004a
:10487c002700370060dd2000104078008080fb00ae
:10488c0060dd200000804000ae4090001140980098
:10489c0060dd2000104078008040e80060dd2000e2
:1048ac0001487800e0dc200031c0b30001487800fa
:1048bc001700370060dd2000104078008080fb007e
:1048cc0060dd200000804000ae4090001140980058
:1048dc0060dd2000104078008040e80060dd2000a2
:1048ec000148780060dd200010407800f54f500042
:1048fc0006003600e0dc200041c0b300014878001f
:10490c00da03020001000000010037000000000083
:10491c00e0dc200010407800e44f50000d003a001d
:10492c0080fe020000000000ec0302000100000009
:10493c00304798003e409000e44f500005003a008c
:10494c00e403020001000000e0dc200051c0b300d1
:10495c0001487800e0dc200010407800e54f500062
:10496c0021003a006101200040002000281e0200b6
:10497c0001000000000f78001e0078000000e0002d
:10498c0015003200e0dc200071c0b3000148780053
:10499c00305a80006400600000f0a7000000ea00bc
:1049ac000000e9004f00de00004078000080fb00b2
:1049bc00610060004200dd00315a80000120a1003e
:1049cc0001007000305a8800404180000000e8006f
:1049dc004041880015003700e0dc200061c0b300c6
:1049ec000148780011003700e0dc2000104078000e
:1049fc000004e00006003200806e80000000e00041
:104a0c0003003a00e0dc20008040eb000148780015
:104a1c00e0dc200010407800e74f500003003a0023
:104a2c00e0dc20008040eb00014878000080fa00b8
:104a3c00000006000200fa000000eb00000f7800f6
:104a4c008081200011002000010878008081200066
:104a5c00b00090008081200020009000808f5000da
:104a6c000900360080812000b0009000004b20002f
:104a7c0000017800110009008280d8008000fd0040
:104a8c00000f78000300370080812000b0009000f8
:104a9c00010f780080812000200090009e005000c3
:104aac008081200011009800a05980000000e000d7
:104abc0002003a00ed02a900ec82a800f422a90041
:104acc000080fa00000006000000fa0018fe070043
:104adc0035fe070080812000100090000000e000ef
:104aec000500320080812000100090008000e90059
:104afc008081200011009800808120001000780037
:104b0c00e10f500004003a00808120008000eb008f
:104b1c0031009800050037008081200030009000a3
:104b2c008000e8008081200031009800806e8000b9
:104b3c000000e00003003200806e80000000e900fd
:104b4c00806e8800104180000000e00003003200fd
:104b5c00104180000000e900104188000080fa003c
:104b6c00000006000000fa00f059800061006000af
:104b7c000000e00013003200a0ed2000104078008f
:104b8c000004e00005003200a0ed20001040780089
:104b9c008040e900a0ed200001487800b0ed200035
:104bac00104078000004e00018003200b0ed200046
:104bbc00104078008040e900b0ed200001487800fa
:104bcc0012003700c0ed2000104078000004e00017
:104bdc0005003200c0ed2000104078008040e90054
:104bec00c0ed200001487800d0ed20001040780086
:104bfc000004e00005003200d0ed200010407800e9
:104c0c008040e900d0ed2000014878000080fa00d7
:104c1c00000006000200fa000040eb00004f780094
:104c2c00015a800000002400008060000000e000b9
:104c3c0002003a001a00070001003700f9000700d3
:104c4c0010118000680060000000e00001003200dc
:104c5c002262a90010118000620060000000e000d8
:104c6c00010032002222a9001011800064006000b3
:104c7c000000e0000300320030118000004f78008b
:104c8c002242a90060048000620060000000e00085
:104c9c00010032008c20a9000080fa000000060000
:104cac000800fa000040eb00004f7800905980009b
:104cbc00e40f50000300320090598000e70f5000c1
:104ccc0006003a0000b3200010407800e440400099
:104cdc0070db2000014878000e00370090598000ee
:104cec00eb0f500006003a0000b320001040780093
:104cfc00e640400070db20000148780005003700da
:104d0c0000b320001040780080c0e90070db200068
:104d1c000148780000b320009040780080db200030
:104d2c000148780090db2000a1cab300014878004c
:104d3c009059800000407800004f78001e007800e9
:104d4c000050a100000f7800f05980006140600015
:104d5c000080fb00610060004400dd009e007800d4
:104d6c000140a10001007000000f78009e40780007
:104d7c00a0db2000014878000040eb00004f7800d9
:104d8c00005a80004f00de00004078000080fb00dd
:104d9c00610060009e0078000100a100010070001d
:104dac00000f7800005a80004400de006140600073
:104dbc000080fb0061006000000040009e00780055
:104dcc000110a10001007000000f7800105a800043
:104ddc004c00de00614060000080fb006100600060
:104dec004200dd009e0078000120a100010070004f
:104dfc00000f7800105a80004d00de00614060000a
:104e0c000080fb00610060004300dd009e00780024
:104e1c000130a10001007000000f7800205a8000c2
:104e2c004400de00614060000080fb006100600017
:104e3c004400dd009e0078000140a10001007000dc
:104e4c00000f7800205a80004500de0061406000b1
:104e5c000080fb00610060004500dd009e007800d2
:104e6c000150a10001007000000f7800005a800072
:104e7c004400de00614060000080fb0061006000c7
:104e8c004600dd009e0078000160a100010070006a
:104e9c00000f78009e407800b0db200001487800bd
:104eac000040eb00004f7800005a80006140600029
:104ebc000080fb00610060009e0078000100a100f2
:104ecc0001007000000f7800105a80004700de00cf
:104edc00614060000080fb00610060000000400049
:104eec009e0078000110a10001007000000f7800f6
:104efc00005a80004500de00614060000080fb002d
:104f0c00610060004200dd009e0078000120a100dd
:104f1c0001007000000f7800005a80004600de008f
:104f2c00614060000080fb00610060004300dd0018
:104f3c009e0078000130a10001007000000f780085
:104f4c00f0598000620060000000e00003003200b5
:104f5c001e0078000040a000000f78009e407800f2
:104f6c00c0db200001487800649e020000000000b5
:104f7c002007980031079800fe409000d0db2000fd
:104f8c0001487800ee409000e0db200001487800fa
:104f9c00de409000f0db200001487800ce4090000d
:104fac0000dc20000148780050dc20008040eb0041
:104fbc000148780060dc20008040eb00014878005c
:104fcc0070dc20008040eb000148780080dc200081
:104fdc008040eb00014878002101200050002000a7
:104fec00281e02000100000010079800ae4090003f
:104ffc0090dc200001487800be409000a0dc20002e
:10500c000148780030db200061c1b3000148780012
:10501c0060db20008040eb00014878000080fa0043
:10502c00000006000c00fa000040eb00004f780076
:10503c0090598000e40f500003003200905980001a
:10504c00e70f500006003a0000b320001040780033
:10505c00e440400070db2000014878000e0037006f
:10506c0090598000eb0f500006003a0000b320006e
:10507c0010407800e640400070db200001487800ca
:10508c000500370000b320001040780080c0e90014
:10509c0070db20000148780000b3200090407800bd
:1050ac0080db20000148780090db200051c5b30064
:1050bc00014878000040eb00004f780090598000c8
:1050cc0000407800004f78001e0078000050a100ce
:1050dc00000f7800f0598000614060000080fb00f8
:1050ec00610060004400dd009e0078000140a100da
:1050fc0001007000000f78009e407800a0db2000bb
:10510c00014878000040eb00004f7800005a800006
:10511c004f00de00004078000080fb006100600062
:10512c009e0078000100a10001007000000f7800c3
:10513c00005a80004400de00614060000080fb00eb
:10514c0061006000000040009e0078000110a1008a
:10515c0001007000000f7800105a80004c00de0037
:10516c00614060000080fb00610060004200dd00d7
:10517c009e0078000120a10001007000000f780053
:10518c00105a80004d00de00614060000080fb0082
:10519c00610060004300dd009e0078000130a1003a
:1051ac0001007000000f7800205a80004400de00df
:1051bc00614060000080fb00610060004400dd0085
:1051cc009e0078000140a10001007000000f7800e3
:1051dc00205a80004500de00614060000080fb002a
:1051ec00610060004500dd009e0078000150a100c8
:1051fc0001007000000f78007a77020000000000b8
:10520c00204798001e009000614060000080fb0069
:10521c00610060004600dd009e0078000160a10086
:10522c0001007000000f78001e0090000000d100fb
:10523c00614060000080fb00610060004700dd0001
:10524c009e0078000170a10001007000000f780032
:10525c009e407800b0db2000014878000040eb0055
:10526c00004f7800005a8000614060000080fb0015
:10527c00610060009e0078000100a1000100700038
:10528c00000f7800105a80004700de00614060007b
:10529c000080fb0061006000000040009e00780070
:1052ac000110a10001007000000f7800005a80006e
:1052bc004500de00614060000080fb006100600082
:1052cc004200dd009e0078000120a100010070006a
:1052dc00000f7800005a80004600de00614060003c
:1052ec000080fb00610060004300dd009e00780040
:1052fc000130a10001007000000f7800f05980000f
:10530c00620060000000e00035003200905980001f
:10531c00e40f50000600320090598000e50f500059
:10532c000300320090598000e60f50000b003a0049
:10533c00bace020000000000614060000080fb005b
:10534c00610060004400dd009e0078000140a10077
:10535c0001007000000f7800210037009059800088
:10536c00eb0f50000900320090598000ec0f5000f8
:10537c000600320090598000ed0f500003003200ff
:10538c0090598000ee0f50000b003a00408802004c
:10539c0000000000614060000080fb0061006000c4
:1053ac004400dd009e0078000140a1000100700067
:1053bc00000f78000a0037007e1602000100000082
:1053cc00614060000080fb00610060004400dd0073
:1053dc009e0078000140a10001007000000f7800d1
:1053ec00005a80004e00de00614060000080fb002f
:1053fc00610060004500dd009e0078000150a100b6
:10540c0001007000000f78009e407800c0db200087
:10541c00014878008e7702000000000020079800f9
:10542c00967702000000000030079800ce409000f4
:10543c00d0db200001487800de409000e0db20004b
:10544c0001487800ee409000f0db20000148780025
:10545c00fe40900000dc2000014878006a770200d2
:10546c0000000000400798008e48900010dc2000df
:10547c00014878009e48900020dc2000014878000c
:10548c0030dc20008040eb000148780040dc20003c
:10549c008040eb000148780050dc20008040eb009d
:1054ac000148780060dc20008040eb000148780067
:1054bc0070dc20008040eb000148780080dc20008c
:1054cc008040eb000148780090dc20008040eb002d
:1054dc0001487800a0dc20008040eb0001487800f7
:1054ec0090598000eb0f500009003200eb0f500078
:1054fc004b003900ed0f500027003200ed0f50002b
:10550c0014003900ee0f5000340032004500370013
:10551c00405e800020079800205e800030079800d5
:10552c00ce40900030dc200001487800de40900036
:10553c0040dc200001487800ee40900050dc200058
:10554c0001487800fe40900060dc200001487800a3
:10555c0034003700805e800020079800605e800079
:10556c0030079800ce40900030dc200001487800d5
:10557c00de40900040dc200001487800ee409000b6
:10558c0050dc200001487800fe40900060dc2000d8
:10559c000148780023003700c05e80002007980087
:1055ac00a05e800030079800ce40900030dc2000d8
:1055bc0001487800de40900040dc20000148780073
:1055cc00ee40900050dc200001487800fe40900036
:1055dc0060dc20000148780012003700005e80007b
:1055ec0020079800e05d800030079800ce409000c6
:1055fc0030dc200001487800de40900040dc2000c8
:10560c0001487800ee40900050dc20000148780002
:10561c00fe40900060dc200001487800010037005b
:10562c00000000004101200050002000281e020054
:10563c000100000050079800ae489000b0dc20003c
:10564c0001487800be489000c0dc2000014878007a
:10565c0030db200061c1b3000148780060db200022
:10566c008040eb00014878000080fa000000060042
:10567c000200fa000040eb00004f780090dd2000a3
:10568c00104f780050c5b3009e40780080cf50007a
:10569c0001003a00a7000700a0cab3009e407800a2
:1056ac0080cf500001003a00020007000080fa0091
:1056bc00000006000a00fa00a0dd2000104078006f
:1056cc004047980080dd200010407800004f7800a3
:1056dc0070dd20001040780020479800b0dd2000dd
:1056ec001040780060479800c0dd20001040780022
:1056fc00004f980000b32000904078002e4090009e
:10570c0080cf50000b003200a0b3200090407800f6
:10571c002e40900080cf500006003200ea94020028
:10572c0000000000a0c0b300061802000100000039
:10573c007e0037001e4078000004e00007003a00ad
:10574c007e08a800ea94020000000000a0c0b3008c
:10575c00061802000100000074003700ae409000f3
:10576c001e40780080cf500007003a007e08a80049
:10577c00ea94020000000000a0c0b300061802006a
:10578c000100000069003700ae009000000220000c
:10579c00008060000000e00007003a007e08a800ce
:1057ac00ea94020000000000a0c0b300061802003a
:1057bc00010000005d003700f059800062006000bd
:1057cc000000e0000b0032004e0090007000600002
:1057dc000000e00007003a007e08a800ea940200ee
:1057ec0000000000a0c0b300061802000100000079
:1057fc004e003700be0090002e0090001268020090
:10580c00000000004e0090007466020000000000d2
:10581c001e00780044040700be0090001e007800b3
:10582c00680407004e009000620060000000e00079
:10583c0004003a007e08a80060002000305b88005d
:10584c00010037007e08a900be0090000004200073
:10585c00008060000000e00003003200d05602001f
:10586c00000000000200370010002000305b8800b0
:10587c002e009000700060000000e0001600320066
:10588c003e0090000000d1006140600032560200e2
:10589c0000000000d0dd20009040780030b52000e2
:1058ac0001487800e0dd20009040780020b5200011
:1058bc0001487800f0dd20009040780010b5200001
:1058cc000148780000de20009040780000b52000f0
:1058dc0001487800150037003e0090000000d10010
:1058ec00614060004c56020000000000d0dd20003a
:1058fc009040780070b5200001487800e0dd200071
:10590c009040780060b5200001487800f0dd200060
:10591c009040780050b520000148780000de20004f
:10592c009040780040b52000014878000080fa00d3
:10593c00000006001800fa000040eb001047980029
:10594c000040eb00004f7800a0dd200010407800f4
:10595c002057980080dd200010407800404f9800c0
:10596c0070dd200010407800604f9800b0dd200002
:10597c001040780040579800c0dd2000104078009f
:10598c006057980000b32000904078006e4890005b
:10599c0080cf500005003200a0b32000904078006a
:1059ac006e48900080cf500050033a004e48900053
:1059bc000004e0004f033200ee4890004e48900087
:1059cc0080cf50004d0332009e0890000002200052
:1059dc00008060000000e0004a0332006e0090007e
:1059ec00d1030700ae0890006e009000f50307008d
:1059fc002e089000620060000000e00008003200f9
:105a0c0090598000e30f500003003600905980003d
:105a1c00e60f500002003600d056020000000000d5
:105a2c00405b8000620060000000e0000d003a0066
:105a3c00be08900000022000008060000000e00022
:105a4c000800320090598000e30f5000030036002c
:105a5c0090598000e60f500002003600ee5602000e
:105a6c00000000003e089000620060000000e000b2
:105a7c0008003a0090598000e30f500003003600f4
:105a8c0090598000e60f50000200360060002000a4
:105a9c00305b880090598000e40f50000600320003
:105aac0090598000e50f500003003200905980009f
:105abc00e60f500004003a00c4ce020000000000c3
:105acc00004f78001300370090598000eb0f500006
:105adc000900320090598000ec0f50000600320093
:105aec0090598000ed0f5000030032009059800057
:105afc00ee0f500004003a004a880200000000003b
:105b0c00004f7800030037007416020001000000fb
:105b1c00004f7800015a80000000240000806000d3
:105b2c000000e000030032001e407800e74f5000f8
:105b3c0010003a001e089000700060000000e000a9
:105b4c00060032002e0890000000d1006140600079
:105b5c003256020000000000070337002e089000a8
:105b6c000000d100614060004c56020000000000b3
:105b7c000103370090598000e40f500006003200fa
:105b8c0090598000e50f50000300320090598000be
:105b9c00e60f500013003a001e407800e14f500011
:105bac0041003a001e089000700060000000e00008
:105bbc00060032003e0890004400de0061406000a8
:105bcc00e6ce020000000000370037003e089000cf
:105bdc004400de0061406000f2ce020000000000d4
:105bec003100370090598000eb0f50000900320053
:105bfc0090598000ec0f5000060032009059800044
:105c0c00ed0f50000300320090598000ee0f500051
:105c1c0013003a001e407800e14f500022003a0079
:105c2c001e089000700060000000e00006003200ca
:105c3c003e0890004400de00614060006c88020069
:105c4c0000000000180037003e0890004400de0001
:105c5c0061406000788802000000000012003700ec
:105c6c001e407800e14f50000f003a001e089000d3
:105c7c00700060000000e000060032003e0890005a
:105c8c004400de00614060004e160200010000007e
:105c9c00050037003e0890004400de0061406000c3
:105cac005a16020001000000ae0890001e08900079
:105cbc0012680200000000003e08900074660200aa
:105ccc0000000000115a80000008200000806000d5
:105cdc000000e0008d0232003e089000b303070084
:105cec00d0dd20001040780020479800e0dd200037
:105cfc001040780030479800f0dd2000104078000c
:105d0c004047980000de2000104078005047980073
:105d1c0030de2000104078006047980040de200004
:105d2c00104078007047980050de2000104078003a
:105d3c00004f980060de200010407800104f980053
:105d4c0010de200010407800204f980020de20004c
:105d5c0010407800304f98005e009000b0408800f2
:105d6c00be4890002e48900058b40200000000007d
:105d7c004e5090000080fb004600de00104798005b
:105d8c00905980006101b800e0ff2f00f1ff2f0057
:105d9c000200400083804800c20020000300200065
:105dac00820f5000838f58005a023e0000600100a1
:105dbc000c0037001b0037002a0037005f0037004b
:105dcc00940037002902370038023700530237009d
:105ddc0052023700c50037001c0137007301370031
:105dec00ca013700ce4890006e48900080cf50001a
:105dfc004c023100ae0090001e00900001017800b2
:105e0c00800078006e0090005d0207005e0090003c
:105e1c00000178009e4090006e009000ab020700dd
:105e2c0055023700ce4890006e48900080cf50004d
:105e3c003e023100ae0090001e009000010178007f
:105e4c00800078006e0090004d0207005e0090000c
:105e5c00000178009e4090006e0090009b020700ad
