:1000000000020400000000000000000000000000EA
:1000100000000000000000000000000000000000E0
:1000200000000000000000000000000000000000D0
:1000300000000000000000000000000000000000C0
:1000400000000000000000000000000000000000B0
:1000500000000000000000000000000000000000A0
:100060000000000000000000000000000000000090
:100070000000000000000000000000000000000080
:100080000000000000000000000000000000000070
:100090000000000000000000000000000000000060
:1000A0000000000000000000000000000000000050
:1000B0000000000000000000000000000000000040
:1000C0000000000000000000000000000000000030
:1000D0000000000000000000000000000000000020
:1000E0000000000000000000000000000000000010
:1000F0000000000000000000000000000000000000
:1001000000000000000000000000000000000000EF
:1001100000000000000000000000000000000000DF
:1001200000000000000000000000000000000000CF
:1001300000000000000000000000000000000000BF
:1001400000000000000000000000000000000000AF
:10015000000000000000000000000000000000009F
:10016000000000000000000000000000000000008F
:10017000000000000000000000000000000000007F
:10018000000000000000000000000000000000006F
:10019000000000000000000000000000000000005F
:1001A000000000000000000000000000000000004F
:1001B000000000000000000000000000000000003F
:1001C000000000000000000000000000000000002F
:1001D000000000000000000000000000000000001F
:1001E000000000000000000000000000000000000F
:1001F00000000000000000000000000000000000FF
:10020000FFFFFF00FFFFFF000000000000000000F4
:1002100000000000000000000000000000000000DE
:1002200000000000000000000000000000000000CE
:1002300000000000000000000000000000000000BE
:1002400000000000000000000000000000000000AE
:10025000000000000000000000000000000000009E
:10026000000000000000000000000000000000008E
:10027000000000000000000000000000000000007E
:10028000000000000000000000000000000000006E
:10029000000000000000000000000000000000005E
:1002A000000000000000000000000000000000004E
:1002B000000000000000000000000000000000003E
:1002C000000000000000000000000000000000002E
:1002D000000000000000000000000000000000001E
:1002E000000000000000000000000000000000000E
:1002F00000000000000000000000000000000000FE
:1003000000000000000000000000000000000000ED
:1003100000000000000000000000000000000000DD
:1003200000000000000000000000000000000000CD
:1003300000000000000000000000000000000000BD
:1003400000000000000000000000000000000000AD
:10035000000000000000000000000000000000009D
:10036000000000000000000000000000000000008D
:10037000000000000000000000000000000000007D
:10038000000000000000000000000000000000006D
:10039000000000000000000000000000000000005D
:1003A000000000000000000000000000000000004D
:1003B000000000000000000000000000000000003D
:1003C000000000000000000000000000000000002D
:1003D000000000000000000000000000000000001D
:1003E000000000000000000000000000000000000D
:1003F00000000000000000000000000000000000FD
:100400008FF620000EFF27000E018800000000007C
:10041000000020000000E000020032000001200087
:100420002002880014000700770007000000E000A9
:1004300003003A0040A92300110020000200370009
:100440000000200001002000810F70000100320038
:1004500014000700000020000000E000020032004D
:100460000000020000000000BA620200000000006C
:100470000040DA000000FE004440A900C05B2000FC
:100480000000E000030032000020200090018800FE
:100490004440A800000006008A1F78008B1F7800E7
:1004A00000000600A1028800800478000000EB0034
:1004B0001F003700E284440054A0B4009905BA003C
:1004C000E284440054A0B4009906BA00E2844400D7
:1004D00054A0B4000006EB00476FDE00FD07B20039
:1004E000AE018800636CE10003003A00EAFF0700F8
:1004F0000000EB000E003700606CE10008003A00DD
:10050000004DEB000A05E800020039003420EC0041
:100510000AF0A0008B05E900F9FF3E000400370057
:100520006168E100010032000086EB000B0007006B
:1005300019C7BA001905BA000E04E00003003A001A
:100540000A00E000DBFF3A0000000600FE07B200F0
:10055000AE0288008A047800F5FF37000CD0A300B3
:10056000E20F4D001C00390089027800354DBA00B9
:100570000A05E800020039003420EC000AF0A0006F
:100580008B05E9000F003200254DBA000A05E8008E
:10059000020039003420EC000AF0A0008B05E900CD
:1005A000080032000C00E0000600320015CDBA0051
:1005B0000A05E800020039003420EC000AF0A0002F
:1005C0008B05E9008984E80054A0B4000B00E0002A
:1005D000E2FF3A00000006009902BA00055D7800CB
:1005E0008B05E900F7FF3200C82ADE00055D7800C0
:1005F0008B05E900F3FF32000C00E000F1FF320050
:1006000019DDBA00EEFF3700000005005400F800C5
:10061000A10288008002780062004000E08048006B
:100620003549BA003204E0000410A700100032007F
:100630008301E9000E0032002549BA003204E000CF
:100640000410A7000A0032008301E900080032000C
:100650000408A300EEFF320015C9BA003204E0001E
:100660000410A700020032008301E900E8FF3A000D
:100670005400F900000006008000EB00A07A88001A
:10068000B17A880011C0B30020F52000014878003D
:100690000000060020F520001004E00002003A00EF
:1006A00010002000F4FF0700D2E62400631C2400A1
:1006B000A07A8000B17A800009000700920323002D
:1006C000030020000001410081814900A27A8800D6
:1006D000B37A88000300780000F0A1000000060053
:1006E000020AB900001BB9000200B80081004200F4
:1006F000810043000000060000010000020300002A
:100700000405000006070000080900000A0B0000AD
:100710000C0D00000E0F0000131100001D7F0000E3
:10072000E39400004A170000F3070000A78B0000C5
:100730004D2B000030C50000637C0000777B00007B
:10074000F26B00006FC5000030010000672B000055
:10075000FED70000AB760000CA820000C97D000011
:10076000FA59000047F00000ADD40000A2AF00002D
:100770009CA4000072C00000B7FD0000932600009A
:10078000363F0000F7CC000034A50000E5F1000082
:1007900071D800003115000004C7000023C3000019
:1007A00018960000059A00000712000080E2000081
:1007B000EB270000B2750000098300002C1A00002E
:1007C0001B6E00005AA00000523B0000D6B3000090
:1007D00029E300002F84000053D1000000ED000049
:1007E00020FC0000B15B00006ACB0000BE390000B5
:1007F0004A4C000058CF0000D0EF0000AAFB0000D8
:10080000434D00003385000045F90000027F0000E1
:10081000503C00009FA8000051A30000408F000042
:10082000929D000038F50000BCB60000DA210000FF
:1008300010FF0000F3D20000CD0C000013EC00000C
:100840005F97000044170000C4A700007E3D000031
:10085000645D000019730000608100004FDC00003F
:10086000222A00009088000046EE0000B814000024
:10087000DE5E00000BDB0000E03200003A0A000000
:1008800049060000245C0000C2D30000AC620000F6
:1008900091950000E4790000E7C80000376D000082
:1008A0008DD500004EA900006C560000F4EA00004F
:1008B000657A0000AE080000BA780000252E00001E
:1008C0001CA60000B4C60000E8DD0000741F000094
:1008D0004BBD00008B8A0000703E0000B566000032
:1008E00048030000F60E00006135000057B9000013
:1008F00086C100001D9E0000E1F800009811000074
:1009000069D900008E9400009B1E000087E900005A
:10091000CE55000028DF00008CA10000890D0000EA
:10092000BFE6000042680000419900002D0F000062
:10093000B0540000BB160000520900006AD5000048
:1009400030360000A5380000BF400000A39E000024
:1009500081F30000D7FB00007CE300003982000037
:100960009B2F0000FF870000348E000043440000EE
:10097000C4DE0000E9CB0000547B0000943200008C
:10098000A6C20000233D0000EE4C0000950B0000C5
:1009900042FA0000C34E0000082E0000A1660000CD
:1009A00028D9000024B20000765B0000A2490000B4
:1009B0006D8B0000D125000072F80000F664000085
:1009C0008668000098160000D4A400005CCC0000EB
:1009D0005D650000B69200006C7000004850000099
:1009E000FDED0000B9DA00005E150000465700007A
:1009F000A78D00009D84000090D80000AB0000008F
:100A00008CBC0000D30A0000F7E400005805000089
:100A1000B8B3000045060000D02C00001E8F000077
:100A2000CA3F00000F020000C1AF0000BD0300007C
:100A3000011300008A6B00003A9100001141000090
:100A40004F670000DCEA000097F20000CFCE000004
:100A5000F0B40000E673000096AC000074220000C1
:100A6000E7AD000035850000E2F9000037E800003E
:100A70001C750000DF6E000047F100001A710000D5
:100A80001D290000C58900006FB70000620E00003C
:100A9000AA180000BE1B0000FC5600003E4B0000E0
:100AA000C6D20000792000009ADB0000C0FE0000E2
:100AB00078CD00005AF400001FDD0000A8330000CC
:100AC00088070000C7310000B11200001059000073
:100AD00027800000EC5F0000605100007FA900004B
:100AE00019B500004A0D00002DE500007A9F0000B6
:100AF00093C900009CEF0000A0E000003B4D000007
:100B0000AE2A0000F5B00000C8EB0000BB3C0000BE
:100B10008353000099610000172B0000047E000041
:100B2000BA770000D6260000E169000014630000D7
:100B3000552100000C7D00000002000004060000AA
:100B4000080A00000C0E000010120000141600002D
:100B5000181A00001C1E000020220000242600009D
:100B6000282A00002C2E000030320000343600000D
:100B7000383A00003C3E000040420000444600007D
:100B8000484A00004C4E00005052000054560000ED
:100B9000585A00005C5E000060620000646600005D
:100BA000686A00006C6E00007072000074760000CD
:100BB000787A00007C7E000080820000848600003D
:100BC000888A00008C8E00009092000094960000AD
:100BD000989A00009C9E0000A0A20000A4A600001D
:100BE000A8AA0000ACAE0000B0B20000B4B600008D
:100BF000B8BA0000BCBE0000C0C20000C4C60000FD
:100C0000C8CA0000CCCE0000D0D20000D4D600006C
:100C1000D8DA0000DCDE0000E0E20000E4E60000DC
:100C2000E8EA0000ECEE0000F0F20000F4F600004C
:100C3000F8FA0000FCFE00001B1900001F1D000058
:100C400013110000171500000B0900000F0D000024
:100C500003010000070500003B3900003F3D000094
:100C600033310000373500002B2900002F2D000004
:100C700023210000272500005B5900005F5D000074
:100C800053510000575500004B4900004F4D0000E4
:100C900043410000474500007B7900007F7D000054
:100CA00073710000777500006B6900006F6D0000C4
:100CB00063610000676500009B9900009F9D000034
:100CC00093910000979500008B8900008F8D0000A4
:100CD0008381000087850000BBB90000BFBD000014
:100CE000B3B10000B7B50000ABA90000AFAD000084
:100CF000A3A10000A7A50000DBD90000DFDD0000F4
:100D0000D3D10000D7D50000CBC90000CFCD000063
:100D1000C3C10000C7C50000FBF90000FFFD0000D3
:100D2000F3F10000F7F50000EBE90000EFED000043
:100D3000E3E10000E7E5000000040000080C00000B
:100D400010140000181C000020240000282C0000B3
:100D500030340000383C000040440000484C0000A3
:100D600050540000585C000060640000686C000093
:100D700070740000787C000080840000888C000083
:100D800090940000989C0000A0A40000A8AC000073
:100D9000B0B40000B8BC0000C0C40000C8CC000063
:100DA000D0D40000D8DC0000E0E40000E8EC000053
:100DB000F0F40000F8FC00001B1F000013170000F7
:100DC0000B0F0000030700003B3F0000333700001B
:100DD0002B2F0000232700005B5F0000535700000B
:100DE0004B4F0000434700007B7F000073770000FB
:100DF0006B6F0000636700009B9F000093970000EB
:100E00008B8F000083870000BBBF0000B3B70000DA
:100E1000ABAF0000A3A70000DBDF0000D3D70000CA
:100E2000CBCF0000C3C70000FBFF0000F3F70000BA
:100E3000EBEF0000E3E70000363200003E3A00002E
:100E4000262200002E2A0000161200001E1A0000A2
:100E5000060200000E0A0000767200007E7A000092
:100E6000666200006E6A0000565200005E5A000082
:100E7000464200004E4A0000B6B20000BEBA000072
:100E8000A6A20000AEAA0000969200009E9A000062
:100E9000868200008E8A0000F6F20000FEFA000052
:100EA000E6E20000EEEA0000D6D20000DEDA000042
:100EB000C6C20000CECA00002D2900002521000076
:100EC0003D390000353100000D090000050100002A
:100ED0001D190000151100006D690000656100001A
:100EE0007D790000757100004D490000454100000A
:100EF0005D59000055510000ADA90000A5A10000FA
:100F0000BDB90000B5B100008D89000085810000E9
:100F10009D99000095910000EDE90000E5E10000D9
:100F2000FDF90000F5F10000CDC90000C5C10000C9
:100F3000DDD90000D5D10000000800001018000025
:100F400020280000303800004048000050580000C1
:100F500060680000707800008088000090980000B1
:100F6000A0A80000B0B80000C0C80000D0D80000A1
:100F7000E0E80000F0F800001B1300000B03000085
:100F80003B3300002B2300005B5300004B43000069
:100F90007B7300006B6300009B9300008B83000059
:100FA000BBB30000ABA30000DBD30000CBC3000049
:100FB000FBF30000EBE30000363E0000262E0000AD
:100FC000161E0000060E0000767E0000666E000011
:100FD000565E0000464E0000B6BE0000A6AE000001
:100FE000969E0000868E0000F6FE0000E6EE0000F1
:100FF000D6DE0000C6CE00002D2500003D350000E5
:101000000D0500001D1500006D6500007D750000D8
:101010004D4500005D550000ADA50000BDB50000C8
:101020008D8500009D950000EDE50000FDF50000B8
:10103000CDC50000DDD500006C6400007C740000AC
:101040004C4400005C5400002C2400003C340000A0
:101050000C0400001C140000ECE40000FCF4000090
:10106000CCC40000DCD40000ACA40000BCB4000080
:101070008C8400009C940000777F0000676F000064
:10108000575F0000474F0000373F0000272F000048
:10109000171F0000070F0000F7FF0000E7EF000038
:1010A000D7DF0000C7CF0000B7BF0000A7AF000028
:1010B000979F0000878F00005A5200004A420000AC
:1010C0007A7200006A6200001A1200000A02000030
:1010D0003A3200002A220000DAD20000CAC2000020
:1010E000FAF20000EAE200009A9200008A82000010
:1010F000BAB20000AAA20000414900005159000004
:1011000061690000717900000109000011190000F7
:101110002129000031390000C1C90000D1D90000E7
:10112000E1E90000F1F900008189000091990000D7
:10113000A1A90000B1B900000000000009000000F2
:101140000000000008000000010200000000000094
:10115000000C000000030000040A00000000000072
:101160000A00000000000000050000000008000068
:101170000000000000000000060000000800000061
:10118000000000000000000007080000000B000045
:10119000090000000000000008000000010200003B
:1011A00005060000070800000A0100000500000015
:1011B000020100000500000002040000030000001E
:1011C000020A000003000000020400000A00000000
:1011D00006010000050000000607000008000000EE
:1011E000060700000A000000060A000008000000D0
:1011F00009090000090000000A0A00000A0A0000AC
:10120000D8D00000E0C00000D0D00000D0C0000066
:10121000C0E80000E8D00000D0D00000D0000000FE
:10122000F0F00000F0000000000000000055000099
:10123000AAFF0000010100000204000008100000E5
:101240002040000080000000580200003200000032
:101250003200000058020000320000005802000076
:10126000580200003200000064000000C2010000CB
:101270000000FA0090002000F0628800A0C7200063
:1012800031C0B30001487800E0C7200031C0B3008E
:10129000014878000000EB00E06388000000EB00EC
:1012A000006488000000EB00306488000000EB0060
:1012B000406488000000EB00106488000000EB0030
:1012C00020648800A0C820008040EB00014878001E
:1012D000B0C820008040EB0001487800C0C8200062
:1012E0008040EB0001487800D0C820008040EB002F
:1012F00001487800E0C820008040EB0001487800F9
:10130000F0C820008040EB000148780000C92000B0
:101310008040EB000148780010C920008040EB00BD
:10132000014878000000EB0090648800F0648000C1
:101330000000A100F0648800F06480000010A100AB
:10134000F0648800F06480000020A100F064880050
:10135000F06480000030A000F0648800F064800039
:101360000040A000F0648800F06480000050A000FD
:10137000F0648800F06480000060A000F0648800E1
:10138000F06480000070A100F0648800F0648000C8
:101390000080A100F0648800F06480000090A1004B
:1013A000F0648800F064800000A0A100F064880070
:1013B000F064800000B0A100F0648800F064800058
:1013C00000C0A100F0648800F064800000D0A1009B
:1013D000F0648800F064800000E0A100F064880000
:1013E00040C920008040EB00014878000000EB007D
:1013F000B06488000000EB00C0648800B0C9200021
:101400008040EB0001487800A0C920008040EB003C
:1014100001487800C0C920008040EB0001487800F6
:1014200090168000620060000000E00018003200AA
:1014300090168000700060000000E0001400320090
:1014400090168000640060000000E0001000320090
:1014500050168000700060000000E0000C003200B8
:1014600090168000680060000000E0000800320074
:101470005116800000022000008060000000E000A3
:10148000030032000000EB00F06288000700370024
:10149000A0002000F0628800E0B40200000000001C
:1014A00050C2B300DA380200010000000080FA00E8
:1014B000000006000400FA008C0107009064800020
:1014C0000000E00001003A00820407000040EB0049
:1014D000004F7800901680004400DE00E14060007C
:1014E000501680004400DE006140600080CF500054
:1014F00053003A00901680000000D100E1406000E7
:10150000901680004200DE006140600080CF5000F5
:101510004B003A00901680004400DE0061406000FD
:101520000080FB00610060009E0090000100A100AF
:101530000100700010079800501680004400DE0083
:10154000614060000080FB0061006000000040001E
:101550009E0090000110A10001007000100798008B
:10156000901680000000D100614060000080FB0008
:10157000610060004200DD009E0090000120A1009B
:101580000100700010079800901680004200DE00F5
:10159000614060000080FB00610060004300DD00EE
:1015A0009E0090000130A10001007000100798001B
:1015B0001E00900061406000804078001E00900096
:1015C0000000D1006140600000C060006140600028
:1015D0000080FB00610060009E0078000100A10017
:1015E00001007000000F78001E0090004200DE0035
:1015F00061406000804078001E0090004300DE00E3
:101600006140600000C06000614060000080FB003D
:1016100061006000000040009E0078000110A10001
:1016200001007000000F78001E40780007030700DB
:101630001E0078006F0207004A04070062003700AE
:10164000901680004400DE00E140600050168000EB
:101650004400DE006140600080CF500053003A003B
:10166000901680000000D100E140600090168000DC
:101670004200DE006140600080CF50004B003A0025
:10168000901680004400DE00614060000080FB0096
:10169000610060009E0090000100A1000100700048
:1016A00010079800501680004400DE006140600082
:1016B0000080FB0061006000000040009E00900080
:1016C0000110A10001007000100798009016800022
:1016D0000000D100614060000080FB0061006000FC
:1016E0004200DD009E0090000120A100010070007A
:1016F00010079800901680004200DE0061406000F4
:101700000080FB00610060004300DD009E0090004F
:101710000130A10001007000100798001E00900029
:1017200061406000804078001E0090000000D10001
:101730006140600000C06000614060000080FB000C
:10174000610060009E0078000100A10001007000AF
:10175000000F78001E0090004200DE006140600033
:10176000804078001E0090004300DE006140600071
:1017700000C06000614060000080FB00610060000C
:10178000000040009E0078000110A10001007000E0
:10179000000F78001E407800AC0207001E007800A1
:1017A00014020700EF03070007003700A000200025
:1017B000F0628800E0B402000000000040C2B30004
:1017C000DA380200010000000080FA000000060084
:1017D0000400FA00C5000700906480000000E000EB
:1017E00001003A00BB0307000040EB00004F780007
:1017F000901680004400DE00E1406000501680003A
:101800004400DE006140600080CF500053003A0089
:10181000901680000000D100E1406000901680002A
:101820004200DE006140600080CF50004B003A0073
:10183000901680004400DE00614060000080FB00E4
:10184000610060009E0090000100A1000100700096
:1018500010079800501680004400DE0061406000D0
:101860000080FB0061006000000040009E009000CE
:101870000110A10001007000100798009016800070
:101880000000D100614060000080FB00610060004A
:101890004200DD009E0090000120A10001007000C8
:1018A00010079800901680004200DE006140600042
:1018B0000080FB00610060004300DD009E0090009E
:1018C0000130A10001007000100798001E00900078
:1018D00061406000804078001E0090000000D10050
:1018E0006140600000C06000614060000080FB005B
:1018F000610060009E0078000100A10001007000FE
:10190000000F78001E0090004200DE006140600081
:10191000804078001E0090004300DE0061406000BF
:1019200000C06000614060000080FB00610060005A
:10193000000040009E0078000110A100010070002E
:10194000000F78001E407800D10207001E007800CA
:10195000A80107008B050700620037009016800081
:101960004400DE00E1406000501680004400DE00CC
:101970006140600080CF500053003A009016800014
:101980000000D100E1406000901680004200DE00BF
:101990006140600080CF50004B003A0090168000FC
:1019A0004400DE00614060000080FB0061006000D8
:1019B0009E0090000100A100010070001007980037
:1019C000501680004400DE00614060000080FB0093
:1019D00061006000000040009E0090000110A10026
:1019E0000100700010079800901680000000D100E0
:1019F000614060000080FB00610060004200DD008B
:101A00009E0090000120A1000100700010079800C6
:101A1000901680004200DE00614060000080FB0004
:101A2000610060004300DD009E0090000130A100D5
:101A300001007000100798001E00900061406000D7
:101A4000804078001E0090000000D10061406000DE
:101A500000C06000614060000080FB006100600029
:101A60009E0078000100A10001007000000F7800C6
:101A70001E0090004200DE0061406000804078005F
:101A80001E0090004300DE006140600000C0600066
:101A9000614060000080FB006100600000004000C9
:101AA0009E0078000110A10001007000000F780076
:101AB0001E407800760207001E0078004D010700E6
:101AC0003005070007003700A0002000F062880002
:101AD000F4B502000000000040C2B300DA38020092
:101AE000010000000080FA00000006000200FA0079
:101AF000901680004300DE00614060000080FB0023
:101B0000610060009E0078000100A10001007000EB
:101B1000000F7800501680004500DE006140600034
:101B20000080FB0061006000000040009E00780023
:101B30000110A10001007000000F78001E00780065
:101B4000610060000000E00012003A00F0648000D4
:101B5000680060000000E00024003200F0648000B3
:101B60000010A000F0648800004B2000B0648800E2
:101B700040C9200081C7B30001487800E0C82000B8
:101B8000104078008040E800E0C82000014878005C
:101B900016003700F0648000680060000000E0007C
:101BA00012003A00F06480000010A100F064880088
:101BB0000000EB00B064880040C9200081C7B3007A
:101BC00001487800C0C82000104078008040E8003C
:101BD000C0C820000148780000C9200010407800EB
:101BE0008040E80000C92000014878001E0078000D
:101BF000614060000080FB00610060004300DD0088
:101C0000F16480000130A10001007000F0648800E0
:101C10001E007800620060000000E00012003A0040
:101C2000F0648000700060000000E00024003200DA
:101C3000F06480000020A000F0648800004B2000C9
:101C4000C064880040C9200081C7B3000148780003
:101C5000F0C82000104078008040E800F0C8200064
:101C60000148780016003700F064800070006000C2
:101C70000000E00012003A00F06480000020A100A3
:101C8000F06488000000EB00C064880040C92000B8
:101C900081C7B3000148780010C9200010407800C7
:101CA0008040E80010C9200001487800D0C820001A
:101CB000104078008040E800D0C82000014878003B
:101CC0001E0078000000D100614060000080FB0031
:101CD000610060004400DD00F16480000140A1006B
:101CE00001007000F06488000080FA000000060027
:101CF0000000FA0011658000D02D2800808F500070
:101D0000020036000000EB002065880011658000AD
:101D1000C02D2800808F50000300360050002000A6
:101D200020658800B10037001165800000CF2300D6
:101D3000808F500003003600A0002000206588003E
:101D4000AA0037001165800000F42100808F500048
:101D5000030036004001200020658800A300370002
:101D60001165800080512100808F500003003600F3
:101D7000E0012000206588009C003700116580008C
:101D800040002100808F50000300360080022000B8
:101D900020658800950037001165800040CE200046
:101DA000808F50000300360020032000206588004B
:101DB0008E00370011658000C0A82000808F500081
:101DC00003003600C003200020658800870037002C
:101DD00011658000E0922000808F500003003600E3
:101DE00060042000206588008000370011658000B5
:101DF000007D2000808F5000030036000005200089
:101E0000206588007900370011658000406F200050
:101E1000808F500003003600A00520002065880058
:101E2000720037001165800000642000808F500030
:101E30000300360040062000206588006B00370054
:101E400011658000805C2000808F50000300360008
:101E5000E0062000206588006400370011658000DE
:101E600000552000808F50000300360080072000BE
:101E7000206588005D00370011658000804E2000DD
:101E8000808F500003003600200820002065880065
:101E9000560037001165800080482000808F500078
:101EA00003003600C0082000206588004F0037007E
:101EB0001165800080432000808F500003003600B1
:101EC0006009200020658800480037001165800007
:101ED000C03F2000808F500003003600000A200021
:101EE000206588004100370011658000C03A20005D
:101EF000808F500003003600A00A20002065880073
:101F00003A0037001165800080392000808F500032
:101F100003003600400B20002065880033003700A6
:101F20001165800080342000808F5000030036004F
:101F3000E00B2000206588002C0037001165800030
:101F400000322000808F500003003600800C2000FB
:101F500020658800250037001165800020302000B2
:101F6000808F500003003600200D2000206588007F
:101F70001E00370011658000A02D2000808F5000CA
:101F800003003600C00D20002065880017003700D0
:101F900011658000602C2000808F50000300360007
:101FA000600E200020658800100037001165800059
:101FB000802A2000808F500003003600000F200090
:101FC000206588000900370011658000E0292000A5
:101FD000808F500003003600A00F2000206588008D
:101FE00002003700C0122000206588000080FA003F
:101FF000000006000200FA00000F780020048000B4
:10200000680060000000E0000A00320005E1A9005D
:102010000021EF008460A9000000EB00106588003B
:102020000000EB002065880010CA20008040EB0013
:10203000014878001E4078000080FB00E10F50004E
:1020400011003200E20F5000280032000000E000D2
:102050003F003A0010CA200010407800E14F5000C5
:1020600042003A0000CA2000104078000004E0005E
:1020700040003A0000CA200011C0B30001487800B7
:1020800005E1A8004000370010CA20001040780089
:102090000004E00009003A0005E1A9000021EF007A
:1020A00000CA20008040EB000148780010CA2000E0
:1020B00011C0B300014878003300370000CA200087
:1020C00010407800E14F50002C003A0005E1A900D3
:1020D000000880001065880005FF070000CA200086
:1020E0008040EB00014878002700370010CA20002C
:1020F000104078000004E00009003A0005E1A90062
:102100000021EF0000CA20008040EB000148780069
:1021100010CA200011C0B300014878001A0037002F
:1021200000CA200010407800E14F500015003A002E
:1021300005E1A9000008800010658800ECFE07009A
:1021400000CA20008040EB00014878000E003700F4
:1021500010CA20008040EB000148780000CA20002F
:102160008040EB00014878000700370000000000C5
:1021700005003700000000000300370000000000E9
:1021800001003700000000001E00780062006000BF
:102190000000E0000A003200F1648000000220002C
:1021A000008060000000E00005003A00A0C82000A8
:1021B000104078008040E800A0C820000148780066
:1021C0001E0078000000D100614060000080FB002C
:1021D000610060004500DD00F16480000150A10055
:1021E00001007000F06488001E007800610060004B
:1021F0000000E0000A003200F164800000042000CA
:10220000008060000000E00005003A00B0C8200037
:10221000104078008040E800B0C8200001487800F5
:102220001E007800614060000080FB0061006000DB
:102230004600DD00F16480000160A1000100700033
:10224000F06488000080FA00000006000400FA0034
:10225000204798002E409000E34F500089003E0038
:10226000F16280002E4090000080FB00C208DD007B
:1022700000804000418D2800614F7800F0628000AE
:102280008000EB00A200200003002000820F50001D
:10229000838F580072003E00006001005F0037002D
:1022A00009003700140037001B00370025003700F5
:1022B0002A003700350037003C0037004500370062
:1022C00056003700490037001E407800E24F5000AA
:1022D00002003A00DE060700EC0607001E40780008
:1022E0000004E0004F003A00F064800000A0A0006D
:1022F000F06488005A003700F06480000090A1006C
:10230000F06488001E4078000004E00047003A00B6
:102310009D050700520037001E4078000004E000D1
:1023200002003A00980507004D0037001E40780073
:10233000E24F50003F003A00C5060700D3060700F1
:10234000470037001E407800E24F50003B003A0043
:10235000BF060700CD060700410037001E40780089
:10236000E64F500002003A00B9060700C706070012
:102370001E4078000004E00032003A00F064800063
:1023800000A0A000F064880035003700F0648000F1
:102390000090A100F06488001E4078000004E00076
:1023A0002A003A00BC0507002D0037001E407800C7
:1023B000E64F500002003A00A5060700B3060700EA
:1023C0001E4078000004E00022003A00B205070039
:1023D000230037001E407800E64F50001F003A00EF
:1023E0009B060700A90607001D003700C05A8000A1
:1023F0000090A100C05A8800C05A800000A0A1002F
:10240000C05A8800E0B402000000000060C1B300C0
:10241000DA3802000100000011003700000000005F
:102420000F003700000000000D0037000000000022
:102430000B0037000000000009003700000000001A
:102440000700370000000000050037000000000012
:10245000030037000000000001003700000000000A
:102460001E80FB00F0628800F06280000000E00047
:102470000500320040C9200081C7B3000148780040
:1024800001003700000000000080FA000000060094
:102490000400FA00204798002E409000E34F5000BF
:1024A00089003E00F16280002E4090000080FB0019
:1024B000C208DD0000804000418D2800614F780097
:1024C000F06280008000EB00A200200003002000EA
:1024D000820F5000838F580072003E0000600100A0
:1024E0005F00370009003700140037001B00370079
:1024F000250037002A003700350037003C00370040
:102500004500370056003700490037001E4078006C
:10251000E24F500002003A004D0607005B0607003C
:102520001E4078000004E0004F003A00F064800094
:1025300000A0A000F06488005A003700F06480001A
:102540000090A100F06488001E4078000004E000C4
:1025500047003A003B050700520037001E40780054
:102560000004E00002003A00360507004D00370085
:102570001E407800E24F50003F003A00340607004A
:1025800042060700470037001E407800E24F500027
:102590003B003A002E0607003C06070041003700CA
:1025A0001E407800E64F500002003A00280607005F
:1025B000360607001E4078000004E00032003A00B2
:1025C000F064800000A0A000F064880035003700AF
:1025D000F06480000090A100F06488001E40780044
:1025E0000004E0002A003A005A0507002D003700D9
:1025F0001E407800E64F500002003A001406070023
:10260000220607001E4078000004E00022003A0085
:1026100050050700230037001E407800E64F5000A9
:102620001F003A000A060700180607001D003700C1
:10263000C05A80000090A100C05A8800C05A800093
:1026400000A0A100C05A8800F4B5020000000000FC
:1026500060C1B300DA380200010000001100370049
:10266000000000000F003700000000000D003700E0
:10267000000000000B0037000000000009003700D8
:1026800000000000070037000000000005003700D0
:1026900000000000030037000000000001003700C8
:1026A000000000001E80FB00F0628800F0628000E5
:1026B0000000E0000500320040C9200081C7B300DF
:1026C0000148780001003700000000000080FA0097
:1026D000000006000000FA00E0C82000104078006A
:1026E000E14F500012003A00F0C82000104078007E
:1026F000E14F50000E003A0000C920001040780061
:102700000004E00007003A0010C9200010407800E3
:102710000004E00003003A001000200090648800EC
:102720000E00370020002000906488000B00370066
:1027300000C9200010407800E14F500007003A0027
:1027400010C9200010407800E14F500003003A000B
:102750002000200090648800000000000080FA0043
:10276000000006000000FA00F064800061006000D4
:102770000000E0000B003200B5050700C3050700AC
:10278000CE050700D6050700F06480000000A10018
:10279000F0648800F06480000090A100F06488007C
:1027A000F6013700B0C92000104078000004E000B6
:1027B00003003A00F064800000C0A100F0648800CB
:1027C000A0C92000104078000004E00003003A0097
:1027D000F064800000B0A100F064880040C92000CF
:1027E000104078000004E0000A003A009805070055
:1027F000A6050700B1050700B9050700F0648000D1
:102800000000A100F0648800F06480000090A10046
:10281000F0648800130607000004E000B0003A00EE
:10282000F0648000620060000000E0000C003200F4
:10283000B06480000000E00009003A0000C1B3006D
:10284000DA38020001000000C05A80000090A100A8
:10285000C05A8800E0B4020000000000C701370041
:10286000F0648000640060000000E0000C003200B2
:10287000C06480000000E00009003A0010C1B3000D
:10288000DA38020001000000C05A800000A0A10058
:10289000C05A8800E0B4020000000000B701370011
:1028A000A0C8200010407800E14F50001000360012
:1028B000B0C82000104078000004E0000C003A008E
:1028C000F06280000000E00009003A0020C1B3007F
:1028D000DA38020001000000C05A80000090A10018
:1028E000C05A8800E0B4020000000000A3013700D5
:1028F000A0C8200010407800E24F500011003600C0
:10290000B0C82000104078000004E0000D003A003C
:1029100090168000700060000000E00009003A009E
:1029200020C1B300DA38020001000000C05A800064
:102930000090A100C05A8800E0B40200000000002E
:102940008E013700A0C8200010407800E14F5000F1
:1029500011003600C0C8200010407800E24F50003F
:102960000D003600D0C82000104078000004E000C0
:1029700009003A0020C1B300DA380200010000006B
:10298000C05A80000090A100C05A8800E0B4020044
:102990000000000079013700B0C820001040780026
:1029A000E14F500010003600A0C820001040780011
:1029B0000004E0000C003A00F06280000000E0003B
:1029C00009003A0030C1B300DA380200010000000B
:1029D000C05A800000A0A100C05A8800E0B40200E4
:1029E0000000000065013700B0C8200010407800EA
:1029F000E24F500011003600A0C8200010407800BF
:102A00000004E0000D003A009016800062006000B3
:102A10000000E00009003A0030C1B300DA380200DB
:102A200001000000C05A800000A0A100C05A880028
:102A3000E0B402000000000050013700B0C82000E0
:102A400010407800E14F500011003600D0C820003F
:102A500010407800E24F50000D003600C0C8200042
:102A6000104078000004E00009003A0030C1B300D3
:102A7000DA38020001000000C05A800000A0A10066
:102A8000C05A8800E0B40200000000003B0137009B
:102A9000A0C8200010407800E34F5000100036001E
:102AA000B0C8200010407800E34F50000C00360002
:102AB00070C2B300DA38020001000000C05A800082
:102AC0000090A100C05A8800C05A800000A0A10058
:102AD000C05A8800E0B4020000000000270137005F
:102AE000A0C8200010407800E34F500010003600CE
:102AF000B0C82000104078000004E0000C003A004C
:102B0000F06280000000E00009003A0020C1B3003C
:102B1000DA38020001000000C05A80000090A100D5
:102B2000C05A8800E0B40200000000001301370022
:102B3000B0C8200010407800E34F5000100036006D
:102B4000A0C82000104078000004E0000C003A000B
:102B5000F06280000000E00009003A0030C1B300DC
:102B6000DA38020001000000C05A800000A0A10075
:102B7000C05A8800E0B4020000000000FF003700E7
:102B8000A0C8200010407800E14F50001C003A001F
:102B9000B0C8200010407800E14F500018003A0003
:102BA000C0C82000104078000004E00014003A0083
:102BB000D0C82000104078000004E00010003A0067
:102BC000F164800000402000008060000000E00010
:102BD0000B003200E0C0B300DA3802000100000050
:102BE000C05A80000090A100C05A8800C05A8000DE
:102BF00000A0A100C05A8800E0B40200000000005C
:102C0000A0C82000104078000004E0001800320046
:102C1000B0C82000104078000004E000140032002A
:102C2000F164800000402000008060000000E000AF
:102C30000F003200C0C92000104078000004E000FE
:102C40000B00320060C2B300DA380200010000005D
:102C5000C05A80000090A100C05A8800C05A80006D
:102C600000A0A100C05A8800E0B4020000000000EB
:102C700090648000E10F500003003200E20F50002A
:102C8000300032005E003700C0C8200010407800DD
:102C9000E14F50000F003600D0C8200010407800EF
:102CA000E14F50000B00360050C1B300DA3802008B
:102CB00001000000C05A80000090A100C05A8800A6
:102CC000C05A800000A0A100C05A8800E0B40200F1
:102CD00000000000C0C8200010407800E14F500004
:102CE00091003600D0C8200010407800E14F50001D
:102CF0008F003600A0C82000104078000004E000DB
:102D00008D003A00B0C82000104078000004E000B8
:102D10008B003A0070C1B300DA38020001000000F5
:102D2000C05A80000090A100C05A8800C05A80009C
:102D300000A0A100C05A8800E0B40200000000001A
:102D40008E003700C0C8200010407800E34F5000CC
:102D50000F003600D0C8200010407800E34F50002C
:102D60000B00360050C1B300DA3802000100000049
:102D7000C05A80000090A100C05A8800C05A80004C
:102D800000A0A100C05A8800E0B4020000000000CA
:102D9000C0C8200010407800E24F50006A003600A2
:102DA000D0C8200010407800E24F50006800360084
:102DB000A0C82000104078000004E00066003A003F
:102DC000B0C82000104078000004E00064003A0021
:102DD00070C1B300DA38020001000000C05A800060
:102DE0000090A100C05A8800C05A800000A0A10035
:102DF000C05A8800E0B40200000000005F00370005
:102E0000A0C8200010407800E24F50000F003600AC
:102E1000B0C8200010407800E24F50000B00360090
:102E200040C1B300DA38020001000000C05A80003F
:102E30000090A100C05A8800C05A800000A0A100E4
:102E4000C05A8800E0B4020000000000C0C82000A2
:102E500010407800E14F500017003600D0C8200025
:102E600010407800E14F500013003600A0C8200049
:102E7000104078000004E0000F003A00B0C82000C5
:102E8000104078000004E0000B003A0070C1B3006D
:102E9000DA38020001000000C05A80000090A10052
:102EA000C05A8800C05A800000A0A100C05A880003
:102EB000E0B4020000000000A0C82000104078002C
:102EC0000004E00028003A00B0C82000104078005C
:102ED0000004E00026003A00C0C82000104078003E
:102EE000E44F500004003E00D0C82000104078009D
:102EF000E44F50002000360050C1B300DA38020021
:102F000001000000C05A80000090A100C05A880053
:102F1000C05A800000A0A100C05A8800E0B402009E
:102F2000000000001500370000000000130037000B
:102F30000000000011003700000000000F00370003
:102F4000000000000D003700000000000B003700FB
:102F500000000000090037000000000007003700F3
:102F600000000000050037000000000003003700EB
:102F70000000000001003700000000000080FA009F
:102F8000000006000000FA00F064800061006000AC
:102F90000000E0000B003200AD030700BB03070098
:102FA000C6030700CE030700F06480000000A10004
:102FB000F0648800F06480000090A100F064880054
:102FC000F3013700B0C92000104078000004E00091
:102FD00003003A00F064800000C0A100F0648800A3
:102FE000A0C92000104078000004E00003003A006F
:102FF000F064800000B0A100F064880040C92000A7
:10300000104078000004E0000A003A009003070036
:103010009E030700A9030700B1030700F0648000C6
:103020000000A100F0648800F06480000090A1001E
:10303000F0648800F0648000620060000000E0003E
:103040000C003200B06480000000E00009003A008B
:1030500000C1B300DA38020001000000C05A80004D
:103060000090A100C05A8800F4B5020000000000E2
:10307000C7013700F0648000640060000000E000D9
:103080000C003200C06480000000E00009003A003B
:1030900010C1B300DA38020001000000C05A8000FD
:1030A00000A0A100C05A8800F4B502000000000092
:1030B000B7013700A0C8200010407800E14F500051
:1030C00010003600B0C82000104078000004E00076
:1030D0000C003A00F06280000000E00009003A00B5
:1030E00020C1B300DA38020001000000C05A80009D
:1030F0000090A100C05A8800F4B502000000000052
:10310000A3013700A0C8200010407800E24F500013
:1031100011003600B0C82000104078000004E00024
:103120000D003A0090168000700060000000E00082
:1031300009003A0020C1B300DA38020001000000A3
:10314000C05A80000090A100C05A8800F4B5020067
:10315000000000008E013700A0C820001040780059
:10316000E14F500011003600C0C820001040780028
:10317000E24F50000D003600D0C82000104078000B
:103180000004E00009003A0020C1B300DA38020070
:1031900001000000C05A80000090A100C05A8800C1
:1031A000F4B502000000000079013700B0C820002B
:1031B00010407800E14F500010003600A0C82000F9
:1031C000104078000004E0000C003A00F06280003B
:1031D0000000E00009003A0030C1B300DA38020014
:1031E00001000000C05A800000A0A100C05A880061
:1031F000F4B502000000000065013700B0C82000EF
:1032000010407800E24F500011003600A0C82000A6
:10321000104078000004E0000D003A009016800095
:10322000620060000000E00009003A0030C1B30015
:10323000DA38020001000000C05A800000A0A1009E
:10324000C05A8800F4B502000000000050013700A9
:10325000B0C8200010407800E14F50001100360047
:10326000D0C8200010407800E24F50000D0036001A
:10327000C0C82000104078000004E00009003A00B7
:1032800030C1B300DA38020001000000C05A8000EB
:1032900000A0A100C05A8800F4B5020000000000A0
:1032A0003B013700A0C8200010407800E34F5000D9
:1032B00010003600B0C8200010407800E34F5000E6
:1032C0000C00360070C2B300DA38020001000000C2
:1032D000C05A80000090A100C05A8800C05A8000E7
:1032E00000A0A100C05A8800F4B502000000000050
:1032F00027013700A0C8200010407800E34F50009D
:1033000010003600B0C82000104078000004E00033
:103310000C003A00F06280000000E00009003A0072
:1033200020C1B300DA38020001000000C05A80005A
:103330000090A100C05A8800F4B50200000000000F
:1033400013013700B0C8200010407800E34F500050
:1033500010003600A0C82000104078000004E000F3
:103360000C003A00F06280000000E00009003A0022
:1033700030C1B300DA38020001000000C05A8000FA
:1033800000A0A100C05A8800F4B5020000000000AF
:10339000FF003700A0C8200010407800E14F500027
:1033A0001C003A00B0C8200010407800E14F5000E7
:1033B00018003A00C0C82000104078000004E00067
:1033C00014003A00D0C82000104078000004E0004B
:1033D00010003A00F164800000402000008060008E
:1033E0000000E0000B003200E0C0B300DA38020059
:1033F00001000000C05A80000090A100C05A88005F
:10340000C05A800000A0A100C05A8800F4B5020094
:1034100000000000A0C82000104078000004E00078
:1034200018003200B0C82000104078000004E0000E
:1034300014003200F1648000004020000080600031
:103440000000E0000F003200C0C9200010407800EA
:103450000004E0000B00320060C2B300DA38020062
:1034600001000000C05A80000090A100C05A8800EE
:10347000C05A800000A0A100C05A8800F4B5020024
:103480000000000090648000E10F50000300320053
:10349000E20F5000300032005E003700C0C820004C
:1034A00010407800E14F50000F003600D0C82000D7
:1034B00010407800E14F50000B00360050C1B300BF
:1034C000DA38020001000000C05A80000090A1001C
:1034D000C05A8800C05A800000A0A100C05A8800CD
:1034E000F4B5020000000000C0C8200010407800C1
:1034F000E14F500091003600D0C820001040780005
:10350000E14F50008F003600A0C820001040780026
:103510000004E0008D003A00B0C8200010407800A0
:103520000004E0008B003A0070C1B300DA380200FA
:1035300001000000C05A80000090A100C05A88001D
:10354000C05A800000A0A100C05A8800F4B5020053
:10355000000000008E003700C0C820001040780036
:10356000E34F50000F003600D0C820001040780014
:10357000E34F50000B00360050C1B300DA380200B0
:1035800001000000C05A80000090A100C05A8800CD
:10359000C05A800000A0A100C05A8800F4B5020003
:1035A00000000000C0C8200010407800E24F50002A
:1035B0006A003600D0C8200010407800E24F50006A
:1035C00068003600A0C82000104078000004E00029
:1035D00066003A00B0C82000104078000004E00007
:1035E00064003A0070C1B300DA3802000100000044
:1035F000C05A80000090A100C05A8800C05A8000C4
:1036000000A0A100C05A8800F4B50200000000002C
:103610005F003700A0C8200010407800E24F500043
:103620000F003600B0C8200010407800E24F500074
:103630000B00360040C1B300DA3802000100000080
:10364000C05A80000090A100C05A8800C05A800073
:1036500000A0A100C05A8800F4B5020000000000DC
:10366000C0C8200010407800E14F5000170036001D
:10367000D0C8200010407800E14F50001300360001
:10368000A0C82000104078000004E0000F003A00BD
:10369000B0C82000104078000004E0000B003A00A1
:1036A00070C1B300DA38020001000000C05A800087
:1036B0000090A100C05A8800C05A800000A0A1005C
:1036C000C05A8800F4B5020000000000A0C8200025
:1036D000104078000004E00028003A00B0C8200044
:1036E000104078000004E00026003A00C0C8200026
:1036F00010407800E44F500004003E00D0C8200085
:1037000010407800E44F50002000360050C1B30054
:10371000DA38020001000000C05A80000090A100C9
:10372000C05A8800C05A800000A0A100C05A88007A
:10373000F4B5020000000000150037000000000092
:1037400013003700000000001100370000000000E7
:103750000F003700000000000D00370000000000DF
:103760000B003700000000000900370000000000D7
:1037700007003700000000000500370000000000CF
:1037800003003700000000000100370000000000C7
:103790000080FA00000006000000FA0000648000CB
:1037A0000000E8000064880031648000E0702200BE
:1037B000808F5000030036000000EB00306488006A
:1037C00003003700306480000000E80030648800A7
:1037D0000080FA00000006000000FA00006480008B
:1037E0000000E90000648800306480000000E00010
:1037F00003003A00F07022003064880003003700B4
:10380000306480000000E900306488000080FA0025
:10381000000006000000FA00006480000000E800DC
:103820000064880041648000E0702200808F5000B6
:10383000030036000000EB004064880003003700FE
:10384000406480000000E800406488000080FA00C6
:10385000000006000000FA00006480000000E9009B
:1038600000648800406480000000E00003003A002B
:10387000F07022004064880003003700406480003C
:103880000000E900406488000080FA0000000600A3
:103890000000FA00E06380000000E800E0638800B8
:1038A00011648000E0702200808F50000300360019
:1038B0000000EB00106488000300370010648000F3
:1038C0000000E800106488000080FA000000060094
:1038D0000000FA00E06380000000E900E063880077
:1038E000106480000000E00003003A00F070220045
:1038F0001064880003003700106480000000E900B5
:10390000106488000080FA00000006000000FA0041
:10391000E06380000000E800E0638800216480002C
:10392000E0702200808F5000030036000000EB00A2
:103930002064880003003700206480000000E80055
:10394000206488000080FA00000006000000FA00F1
:10395000E06380000000E900E063880020648000EC
:103960000000E00003003A00F070220020648800AC
:1039700003003700206480000000E9002064880014
:103980000080FA00000006000000FA00F0648000E9
:103990000000A000F0648800C0C9200081C7B30007
:1039A00001487800F1648000000820000080600079
:1039B0000000E0000E003200A0C720001040780098
:1039C000E34F500003003A00A0C7200011C0B3002D
:1039D00001487800A0C7200010407800E14F500057
:1039E00002003A00AAFF070001003700D7FF0700D6
:1039F000F164800000102000008060000000E00002
:103A00000E003200E0C7200010407800E34F500065
:103A100003003A00E0C7200011C0B300014878005D
:103A2000E0C7200010407800E14F500002003A004B
:103A300059FF07000100370086FF07000080FA00E9
:103A4000000006000000FA00F06480000000A00002
:103A5000F0648800C0C9200081C7B3000148780025
:103A6000F164800000002200008060000000E0009F
:103A70000100320086FF0700F1648000000024008E
:103A8000008060000000E0000100320042FF0700FB
:103A90000080FA00000006000000FA00F0648000D8
:103AA0000000A000F0648800C0C9200081C7B300F6
:103AB00001487800F1648000000820000080600068
:103AC0000000E0000E003200A0C720001040780087
:103AD000E34F500003003A00A0C7200021C0B3000C
:103AE00001487800A0C7200010407800E24F500045
:103AF00002003A0085FF07000100370074FF07004D
:103B0000F164800000102000008060000000E000F0
:103B10000E003200E0C7200010407800E34F500054
:103B200003003A00E0C7200021C0B300014878003C
:103B3000E0C7200010407800E24F500002003A0039
:103B400034FF07000100370023FF07000080FA0060
:103B5000000006000000FA00F06480000000A000F1
:103B6000F0648800C0C9200081C7B3000148780014
:103B7000F164800000002200008060000000E0008E
:103B80000100320061FF0700F164800000002400A2
:103B9000008060000000E000010032001DFF07000F
:103BA0000080FA00000006000000FA00E0638000D8
:103BB0000000E00003003A00A0C7200031C0B300BD
:103BC00001487800006480000000E00003003A0033
:103BD000E0C7200031C0B30001487800E1638000F5
:103BE000F0702200808F500005003600B0C0B30096
:103BF000DA38020001000000E0B40200000000001A
:103C000001648000F0702200808F500005003600B3
:103C1000B0C0B300DA38020001000000E0B40200D6
:103C2000000000000080FA00000006000000FA001A
:103C300040C92000104078000004E0000500320078
:103C400040C92000104078008040E90040C92000B1
:103C500001487800B06480000000E00003003200FA
:103C6000B06480000000E900B0648800C064800097
:103C70000000E00003003200C06480000000E900A2
:103C8000C0648800B0C92000104078000004E00043
:103C900005003200B0C92000104078008040E900E3
:103CA000B0C9200001487800A0C920001040780069
:103CB0000004E00005003200A0C920001040780098
:103CC0008040E900A0C9200001487800C0C9200058
:103CD000104078000004E00005003200C0C9200058
:103CE000104078008040E900C0C9200001487800F9
:103CF0000080FA00000006000000FA00A0C72000C3
:103D000031C0B300014878000000EB00E063880098
:103D1000F064800000C0A000F0648800B0C92000FA
:103D200081C2B3000148780049000700570007002E
:103D30006B0007000000EB00206588000080FA009F
:103D4000000006000000FA00E0C7200031C0B30008
:103D5000014878000000EB0000648800F0648000F7
:103D600000B0A000F0648800A0C9200081C2B300A8
:103D7000014878003600070044000700580007009B
:103D80000000EB00206588000080FA0000000600BB
:103D90000000FA00E06380000080FA0000000600E6
:103DA0000000FA00006480000080FA0000000600B5
:103DB0000000FA00A0C72000104078000080FA0040
:103DC000000006000000FA00E0C720001040780064
:103DD0000080FA00000006000000FA001064800075
:103DE0000080FA00000006000000FA002064800055
:103DF0000080FA00000006000000FA003064800035
:103E00000080FA00000006000000FA004064800014
:103E10000080FA00000006000000FA000000EB003D
:103E2000306488000000EB00406488000080FA00E5
:103E3000000006000000FA000000EB00106488009B
:103E40000000EB00206488000080FA0000000600FB
:103E50000000FA00C0C820008040EB000148780054
:103E6000F064800000A0A100F0648800E0C8200099
:103E70008040EB000148780000C920008040EB0042
:103E8000014878000080FA00000006000000FA00F7
:103E9000D0C820008040EB0001487800F0C8200026
:103EA0008040EB000148780010C920008040EB0002
:103EB000014878000080FA00000006000000FA00C7
:103EC000A0C820008040EB0001487800B0C8200066
:103ED0008040EB00014878000080FA0000000600F6
:103EE0000000FA00E06380000000E00002003A00F9
:103EF0000000EB0090648800006480000000E00097
:103F000002003A000000EB0090648800A0C8200086
:103F1000104078000004E00006003A00B0C820001D
:103F2000104078000004E00002003A000000EB00BE
:103F3000906488000080FA00000006000000FA008B
:103F4000F06480000070A000F06488000080FA0037
:103F5000000006000000FA00F064800000D0A0001D
:103F6000F06488000080FA00000006000000FA00FB
:103F7000F06480000080A000F06488000080FA00F7
:103F8000000006000000FA00F064800000E0A000DD
:103F9000F06488000080FA00000006000000FA00CB
:103FA000F06480000070A100F06488000080FA00D6
:103FB000000006000000FA00F064800000D0A100BC
:103FC000F06488000080FA00000006000000FA009B
:103FD000F06480000080A100F06488000080FA0096
:103FE000000006000000FA00F064800000E0A1007C
:103FF000F06488000080FA00000006000200FA0069
:104000000040EB00004F7800F16480000080200049
:10401000008060000000E0000200320010C0B30029
:10402000004F78001E4078000080FA000000060073
:104030000200FA000040EB00004F7800F1648000BD
:1040400000002100008060000000E000020032005B
:1040500010C0B300004F78001E4078000080FA00C6
:10406000000006000400FA009A620200000000004E
:10407000000F7800AA6202000000000010079800FC
:10408000E06380000000E0000B003A000064800064
:104090000000E00008003A001E0078000000E00088
:1040A00005003A001E0090000000E00002003A0007
:1040B0000040EB000100370010C0B3000080FA00A0
:1040C000000006000200FA00004F780080BF2000C8
:1040D000104078009E4F50000D003A00116480009F
:1040E0001060800000805000F05F8800F05F80006A
:1040F00010648800216480002060800000805000EF
:1041000000608800006080002064880004003700A0
:1041100010648000F05F88002064800000608800E8
:104120000080FA00000006000000FA00505A8000EB
:104130000000E00003003A0040D02000C0118800D9
:1041400016003700605A8000E10F50000A0032006C
:10415000E10F500005003900E20F50000900320065
:10416000E30F50000A0032000C00370040D020005E
:10417000C01188000900370010682000C0118800B5
:1041800006003700F0192000C01188000300370036
:10419000F00C2000C011880000000000E9A2A90076
:1041A000D9C2A800113A8000F00B20000081600005
:1041B00060042000710520002374200080497800ED
:1041C00081497800824978003135800000FC2F0059
:1041D00080806000B002200001007000303588004F
:1041E000F1368000F00F2C0080806000005020002D
:1041F00001007000F0368800103A8000000178005D
:104200000260A000600420007105200023742000DB
:104210008049780081497800824978003022EF0097
:104220003222EF003162A8003062A8009C40A90051
:1042300097C0A90097E0A9008C40A90087C0A900F9
:1042400087E0A90031E2A8000080FA000000060023
:104250000200FA000040EB00004F780000DF200071
:104260008040EB000148780080DF20008040EB00B8
:104270000148780050DF200061C1B3000148780098
:1042800000E120008040EB000148780080E1200040
:104290008040EB00014878000000EB00907088003F
:1042A00070E120008040EB000148780050E12000E0
:1042B00061C1B30001487800008020008000EB005D
:1042C00001087800EC22A90000802000014B2000AA
:1042D000210098000040EB00004F780006003700F6
:1042E0009E80FB0080DF2000008040008040EB00CB
:1042F000114098001E4FE8001E407800F54F500016
:10430000F7FF3600505A80000000E00007003A0036
:1043100040DF200091C0B3000148780040E1200058
:1043200091C0B3000148780026003700605A800031
:10433000E10F50000E003200E10F5000050039007F
:10434000E20F500011003200E30F5000160032005F
:104350001C00370040DF200091C0B3000148780006
:1043600040E1200091C0B3000148780015003700FB
:1043700040DF200051C0B3000148780040E1200038
:1043800051C0B300014878000E00370040DF200024
:1043900011C0B3000148780040E1200011C0B30013
:1043A000014878000700370040DF200011C0B3004B
:1043B0000148780040E1200011C0B30001487800B6
:1043C0000000000050DF2000104078000080FB005B
:1043D0000080E8000040780041DF20009140780034
:1043E0008180FB000088B9000000780080407800E0
:1043F00060DF2000014878000A28EF000C28EF0059
:104400000080FA00000006000000FA000080200092
:104410001100200001087800B05A8000610060009F
:104420000000E000050032000080200081D4200060
:10443000110098000C28EF000500370000802000D4
:1044400001FA200011009800E0012000604088007F
:104450003342A8000080FA00000006000000FA00C5
:10446000A04080000000E800A0408800A14080003B
:1044700030062000808F5000140036001428EF0012
:10448000B05B8000E60F500004003200C05A80008C
:10449000610060000000E0000C003A00E0168000BF
:1044A0004400DE006140600000C0EA00614060003E
:1044B0000080FB00610060004400DD00E116800028
:1044C0000140A10001007000E01688000080FA00A1
:1044D000000006000000FA0070408000814080006B
:1044E00061004000E0804800704088008140880002
:1044F0007240800083408000F0342C0001002000D6
:10450000800F5100818F5900020036000E28EF0005
:104510001028EF000080FA00000006000200FA00F8
:104520000201070000E1200010407800E64F500033
:1045300004003A009504070000E120008040EB00F1
:104540000148780000802000100078008000EB0017
:104550009200200003002000820F5000838F58003B
:10456000B9003E0000600100A600370008003700D7
:104570001000370033003700530037006500370064
:10458000A000370070003700980037009D0037000A
:1045900000802000100090000000E0009B003A0026
:1045A000B5010700008020002100200001087800EC
:1045B000A500370050178000610060000000E00097
:1045C00015003A00EC22A80050178000610060003E
:1045D0000000E00004003A000080200031002000CC
:1045E0000108780098003700B05A80006100600030
:1045F0000000E00087003A00EC22A90000802000C3
:1046000081D42000110098000080200011002000BB
:10461000010878008C0037005017800061006000AE
:104620000000E0007D0032000080200081D42000E6
:10463000110098000080200011002000010878007F
:1046400081003700505A80000000E00013003A005B
:104650001117800000202000008060000000E000B2
:1046600003003A00C5C2A800E502A9009D000700AA
:104670000B0A0700AC010700008020004100200069
:10468000010878000080200021032000110098001C
:1046900090100200010000006B003700000A0700C4
:1046A000A1010700008020004100200001087800DF
:1046B00000802000210320001100980090100200CB
:1046C00001000000600037005006020001000000F9
:1046D000A210020001000000004F78001E40780088
:1046E000E44F500005003A009A100200010000005B
:1046F0000080200051002000010878000080200088
:10470000100090000000E00046003A005000070052
:104710004D00370000802000100090000000E000F5
:1047200042003A000080200071002000010878005B
:1047300060DF2000104078008080FB0000802000B7
:10474000110098004000370080DF20001040780002
:10475000F54F50000C003600911180000010200031
:10476000008060000000E000320032000080200085
:10477000810020000108780000802000E101200075
:1047800011009800300037009111800000202000B7
:10479000008060000000E0000E003A0080DF200092
:1047A000104078000080FB00E800400000DF20009F
:1047B00000804000104090000080FB00A0118800A5
:1047C00080DF2000104078008040E80080DF20007B
:1047D0000148780000802000100090000000E000F8
:1047E00016003A001A00070017003700008020006A
:1047F000100090000000E00012003A0014000700D2
:1048000011003700000000000F003700000000001A
:104810000D003700000000000B0037000000000012
:10482000090037000000000007003700000000000A
:104830000500370000000000030037000000000002
:1048400001003700000000000080FA0000000600B0
:104850000200FA000000EB00000F7800008020004A
:10486000110020000108780000802000B0009000B6
:104870000080200020009000808F5000090036004A
:1048800000802000B0009000004B20000001780064
:10489000110009008280D8008000FD00000F780020
:1048A0000300370000802000B0009000010F780066
:1048B00000802000200090009E005000008020001A
:1048C00011009800505A80000000E00002003A00F9
:1048D000C5C2A900E502A800EC22A9000080FA00E8
:1048E000000006000000FA009011800064006000E3
:1048F0000000E000010032003242A9009011800067
:10490000620060000000E000010032003222A900D5
:1049100090118000680060000000E000010032009B
:104920003262A9000080FA00000006000400FA00CC
:104930000000EB00000F78000040EB0020479800DB
:104940001117800000202000008060000000E000BF
:1049500001003200E3FF0700901180006100600059
:104960000000E00054003200B011800020479800A1
:10497000200120009070880000E1200010407800A5
:104980000080FB00E10F500014003200E10F5000E6
:1049900003003C000000E000060032004600370043
:1049A000E20F50001D003200E30F50002B003200D8
:1049B0004100370090E12000AE40900001487800AF
:1049C00080E1200011C0B3000148780000E1200020
:1049D00011C0B300014878003700370080E12000A3
:1049E000104078008080FB0080E1200000804000C3
:1049F000AE4090001140980080E120001040780007
:104A00008040E80080E120000148780000E12000BB
:104A100021C0B300014878002700370080E1200062
:104A2000104078008080FB0080E120000080400082
:104A3000AE4090001140980080E1200010407800C6
:104A40008040E80080E120000148780000E120007B
:104A500031C0B300014878001700370080E1200022
:104A6000104078008080FB0080E120000080400042
:104A7000AE4090001140980080E120001040780086
:104A80008040E80080E120000148780080E12000BB
:104A900010407800F54F50000600360000E120007D
:104AA00041C0B30001487800AE10020001000000D0
:104AB000010037000000000000E1200010407800F5
:104AC000E44F50000D003A00D40A0200010000003B
:104AD000C010020001000000304798003E409000E6
:104AE000E44F500005003A00B81002000100000039
:104AF00000E1200051C0B3000148780000E120002F
:104B000010407800E54F500021003A00610120007C
:104B100090E12000DA3F020001000000000F780061
:104B20001E0078000000E0001500320000E12000C7
:104B300071C0B30001487800F05A8000680060003E
:104B400000F0A7000000EA000000E9004F00DE00CE
:104B5000004078000080FB00610060004300DD0041
:104B6000F15A80000130A10001007000F05A880065
:104B7000904080000000E800904088001500370059
:104B800000E1200061C0B300014878001100370047
:104B900000E12000104078000004E0000600320030
:104BA000907080000000E00003003A0000E1200067
:104BB0008040EB000148780000E1200010407800C0
:104BC000E74F500003003A0000E120008040EB0076
:104BD000014878000080FA00000006000000FA009A
:104BE0001EFE07003BFE0700008020001000900022
:104BF0000000E0000500320000802000100090005E
:104C00008000E90000802000110098000080200052
:104C100010007800E10F500004003A0000802000EE
:104C20008000EB0031009800050037000080200074
:104C3000300090008000E8000080200031009800E3
:104C4000907080000000E00003003200907080004F
:104C50000000E90090708800604080000000E000E3
:104C600003003200604080000000E90060408800DE
:104C70000080FA00000006000000FA00B05A800030
:104C8000610060000000E00013003200C0F5200069
:104C9000104078000004E00005003200C0F520005C
:104CA000104078008040E900C0F5200001487800FD
:104CB000D0F52000104078000004E0001800320019
:104CC000D0F52000104078008040E900D0F52000A9
:104CD0000148780012003700E0F52000104078000D
:104CE0000004E00005003200E0F5200010407800EC
:104CF0008040E900E0F5200001487800F0F5200050
:104D0000104078000004E00005003200F0F52000BB
:104D1000104078008040E900F0F52000014878005C
:104D20000080FA00000006000200FA000040EB00DC
:104D3000004F7800F15A80000004200000806000DD
:104D40000000E00002003A001A00070001003700EE
:104D5000FB00070090118000620060000000E0008E
:104D6000010032003222A90090118000640060002E
:104D70000000E00003003200B0118000004F780016
:104D80003242A90090118000680060000000E0003D
:104D9000010032003262A9006004800064006000FB
:104DA0000000E000010032008C40A9000080FA0001
:104DB000000006000800FA000040EB00004F7800F9
:104DC000305A8000EE0F500006003A0040B4200038
:104DD00010407800E640500090DF20000148780045
:104DE00011003700305A8000E60F500003003200F7
:104DF000305A8000E80F500006003A0040B420000E
:104E000010407800E440500090DF20000148780016
:104E10000500370040B420001040780080C0E80052
:104E200090DF20000148780040B4200090407800D6
:104E3000A0DF200001487800B0DF2000A1CAB30045
:104E4000014878000040EB00004F7800305A8000A5
:104E500000407800004F78001E0078000050A0004D
:104E6000000F7800B05A8000614060000080FB00B5
:104E7000610060004400DD009E0078000140A10058
:104E800001007000000F78009E407800C0DF200015
:104E9000014878000040EB00004F7800C05A8000C5
:104EA0004F00DE00004078000080FB0061006000E1
:104EB0009E0078000100A10001007000000F780042
:104EC000C05A80004700DE00614060000080FB00A7
:104ED00061006000000040009E0078000110A10009
:104EE00001007000000F7800D05A80004E00DE00F4
:104EF000614060000080FB00610060004200DD0056
:104F00009E0078000120A10001007000000F7800D1
:104F1000D05A80004F00DE00004078000080FB0087
:104F2000610060004300DD009E0078000130A100B8
:104F300001007000000F7800E05A80004600DE009B
:104F4000614060000080FB00610060004400DD0003
:104F50009E0078000140A10001007000000F780061
:104F6000E05A80004700DE00614060000080FB00E6
:104F7000610060004500DD009E0078000150A10046
:104F800001007000000F7800C05A80004700DE006A
:104F9000614060000080FB00610060004600DD00B1
:104FA0009E0078000160A10001007000000F7800F1
:104FB0009E407800D0DF2000014878000040EB00E0
:104FC000004F7800C05A8000614060000080FB0004
:104FD000610060009E0078000100A10001007000E7
:104FE000000F7800D05A80004600DE00614060006B
:104FF0000080FB0061006000000040009E0078001F
:105000000110A10001007000000F7800C05A80005C
:105010004500DE00614060000080FB006100600030
:105020004200DD009E0078000120A1000100700018
:10503000000F7800C05A80004600DE00614060002A
:105040000080FB00610060004300DD009E007800EE
:105050000130A10001007000000F7800B05A8000FC
:10506000620060000000E000030032001E007800D3
:105070000040A000000F78009E407800E0DF200094
:10508000014878001AA102000000000020079800E3
:1050900031079800FE409000F0DF200001487800C2
:1050A000EE40900000E0200001487800DE409000D3
:1050B00010E0200001487800CE40900020E0200061
:1050C0000148780070E020008040EB000148780043
:1050D00080E020008040EB000148780090E0200054
:1050E0008040EB0001487800A0E020008040EB0009
:1050F000014878002101200090DF2000DA3F020003
:105100000100000010079800AE409000B0E02000C1
:1051100001487800BE409000C0E0200001487800BF
:1051200050DF200061C1B3000148780080DF20001B
:105130008040EB00014878000080FA000000060083
:105140000C00FA000040EB00004F7800305A80005D
:10515000E60F500003003200305A8000E80F500084
:1051600006003A0040B4200010407800E4405000AF
:1051700090DF2000014878000E003700305A800090
:10518000EE0F500006003A0040B4200010407800B6
:10519000E640500090DF200001487800050037000D
:1051A00040B420001040780080C0E80090DF20006C
:1051B0000148780040B4200090407800A0DF200033
:1051C00001487800B0DF200051C5B30001487800E5
:1051D0000040EB00004F7800305A8000004078001B
:1051E000004F78001E0078000050A000000F7800EB
:1051F000B05A8000614060000080FB0061006000E8
:105200004400DD009E0078000140A1000100700014
:10521000000F78009E407800C0DF20000148780031
:105220000040EB00004F7800C05A80004F00DE00C5
:10523000004078000080FB00610060009E00780064
:105240000100A10001007000000F7800C05A80002A
:105250004700DE00614060000080FB0061006000EC
:10526000000040009E0078000110A10001007000C5
:10527000000F7800D05A80004E00DE0061406000D0
:105280000080FB00610060004200DD009E007800AD
:105290000120A10001007000000F7800D05A8000AA
:1052A0004F00DE00004078000080FB0061006000DD
:1052B0004300DD009E0078000130A1000100700075
:1052C000000F7800E05A80004600DE006140600078
:1052D0000080FB00610060004400DD009E0078005B
:1052E0000140A10001007000000F7800E05A80002A
:1052F0004700DE00614060000080FB00610060004C
:105300004500DD009E0078000150A1000100700002
:10531000000F7800E21E0200000000002047980005
:105320001E009000614060000080FB006100600092
:105330004600DD009E0078000160A10001007000C1
:10534000000F78001E0090000000D1006140600056
:105350000080FB00610060004700DD009E007800D7
:105360000170A10001007000000F78009E407800DD
:10537000D0DF2000014878000040EB00004F7800AB
:10538000C05A8000614060000080FB006100600046
:105390009E0078000100A10001007000000F78005D
:1053A000D05A80004600DE00614060000080FB00B3
:1053B00061006000000040009E0078000110A10024
:1053C00001007000000F7800C05A80004500DE0028
:1053D000614060000080FB00610060004200DD0071
:1053E0009E0078000120A10001007000000F7800ED
:1053F000C05A80004600DE00614060000080FB0073
:10540000610060004300DD009E0078000130A100D3
:1054100001007000000F7800B05A80006200600048
:105420000000E00035003200305A8000E40F5000E8
:1054300006003200305A8000E50F500003003200B1
:10544000305A8000E60F50000B003A0074E302006F
:1054500000000000614060000080FB00610060000F
:105460004400DD009E0078000140A10001007000B2
:10547000000F780021003700305A8000EB0F5000F9
:1054800009003200305A8000EC0F50000600320054
:10549000305A8000ED0F500003003200305A800077
:1054A000EE0F50000B003A00D4C8020000000000CC
:1054B000614060000080FB00610060004400DD008E
:1054C0009E0078000140A10001007000000F7800EC
:1054D0000A0037000C2E020001000000614060004D
:1054E0000080FB00610060004400DD009E00780049
:1054F0000140A10001007000000F7800F05A800008
:105500004600DE00614060000080FB00610060003A
:105510004500DD009E0078000150A10001007000F0
:10552000000F78009E407800E0DF200001487800FE
:10553000FC1E02000000000020079800041F02006B
:105540000000000030079800CE409000F0DF2000FF
:1055500001487800DE40900000E02000014878001B
:10556000EE40900010E0200001487800FE409000DE
:1055700020E0200001487800D01E0200000000005A
:10558000400798008E48900030E0200001487800E5
:105590009E48900040E020000148780050E0200044
:1055A0008040EB000148780060E020008040EB0084
:1055B0000148780070E020008040EB00014878004E
:1055C00080E020008040EB000148780090E020005F
:1055D0008040EB0001487800A0E020008040EB0014
:1055E00001487800B0E020008040EB0001487800DE
:1055F000C0E020008040EB0001487800305A800075
:10560000EB0F500009003200EB0F50004B00390047
:10561000ED0F500027003200ED0F5000140039004C
:10562000EE0F50003400320045003700C0628000A9
:1056300020079800A062800030079800CE409000BC
:1056400050E0200001487800DE40900060E020003B
:1056500001487800EE40900070E02000014878009A
:10566000FE40900080E020000148780034003700C0
:105670000062800020079800E061800030079800F9
:10568000CE40900050E0200001487800DE409000BD
:1056900060E0200001487800EE40900070E02000BB
:1056A00001487800FE40900080E02000014878002A
:1056B00023003700406280002007980020628000AD
:1056C00030079800CE40900050E02000014878005C
:1056D000DE40900060E0200001487800EE4090003D
:1056E00070E0200001487800FE40900080E020003B
:1056F000014878001200370080628000200798007F
:105700006062800030079800CE40900050E020009A
:1057100001487800DE40900060E0200001487800F9
:10572000EE40900070E0200001487800FE409000BC
:1057300080E02000014878000100370000000000F0
:105740004101200090DF2000DA3F0200010000004C
:1057500050079800AE489000D0E020000148780043
:10576000BE489000E0E020000148780050DF2000B3
:1057700061C1B3000148780080DF20008040EB0069
:10578000014878000080FA00000006000200FA00DC
:105790000040EB00004F7800B0E12000104F78008F
:1057A000A0CAB3009E40780080CF500001003A00AC
:1057B0000700070050C5B3009E40780080CF50001E
:1057C00001003A00A30007000080FA000000060074
:1057D0000A00FA00C0E1200010407800404798001D
:1057E000A0E1200010407800004F780090E12000F8
:1057F0001040780020479800D0E120001040780049
:1058000060479800E0E1200010407800004F9800C9
:1058100040B42000904078002E40900080CF50008F
:105820000C003200E0B42000904078002E40900040
:1058300080CF5000070032009028A800F8B702007F
:1058400000000000A0C0B300DA3802000100000030
:105850007E0037001E4078000004E00007003A0098
:105860009028A800F8B7020000000000A0C0B30014
:10587000DA3802000100000074003700AE409000EA
:105880001E40780080CF500007003A009028A80002
:10589000F8B7020000000000A0C0B300DA38020030
:1058A0000100000069003700AE00900000022000F7
:1058B000008060000000E000070032009028A8008F
:1058C000F8B7020000000000A0C0B300DA38020000
:1058D000010000005D003700B05A800062006000E7
:1058E0000000E0000B0032004E00900070006000ED
:1058F0000000E00007003A009028A800F8B7020076
:1059000000000000A0C0B300DA380200010000006F
:105910004E003700BE0090002E00900072980200EA
:10592000000000004E0090002A96020000000000D7
:105930001E0078004B040700BE0090001E00780097
:10594000730407004E009000620060000000E00059
:1059500004003A009028A80060002000C05B880086
:10596000010037009028A900BE009000000420002C
:10597000008060000000E000030032006685020045
:10598000000000000200370010002000C05B88000B
:105990002E009000700060000000E0001600320051
:1059A0003E0090000000D10061406000B884020019
:1059B00000000000F0E120009040780030B62000A8
:1059C0000148780000E220009040780020B62000D6
:1059D0000148780010E220009040780010B62000C6
:1059E0000148780020E220009040780000B62000B6
:1059F00001487800150037003E0090000000D100FB
:105A000061406000D084020000000000F0E120004E
:105A10009040780070B620000148780000E2200035
:105A20009040780060B620000148780010E2200025
:105A30009040780050B620000148780020E2200015
:105A40009040780040B62000014878000080FA00BD
:105A5000000006001A00FA000040EB001047980012
:105A60000040EB00004F7800C0E1200010407800BB
:105A700020579800A0E1200010407800604F980067
:105A800090E120001040780000579800D0E12000FD
:105A90001040780040579800E0E120001040780066
:105AA0006057980040B42000904078000E5090005D
:105AB00080CF500005003200E0B420009040780014
:105AC0000E50900080CF500057033A006E4890006F
:105AD0000004E000560332008E5090006E489000A3
