:1000000000020400000000000000000000000000EA
:1000100000000000000000000000000000000000E0
:1000200000000000000000000000000000000000D0
:1000300000000000000000000000000000000000C0
:1000400000000000000000000000000000000000B0
:1000500000000000000000000000000000000000A0
:100060000000000000000000000000000000000090
:100070000000000000000000000000000000000080
:100080000000000000000000000000000000000070
:100090000000000000000000000000000000000060
:1000A0000000000000000000000000000000000050
:1000B0000000000000000000000000000000000040
:1000C0000000000000000000000000000000000030
:1000D0000000000000000000000000000000000020
:1000E0000000000000000000000000000000000010
:1000F0000000000000000000000000000000000000
:1001000000000000000000000000000000000000EF
:1001100000000000000000000000000000000000DF
:1001200000000000000000000000000000000000CF
:1001300000000000000000000000000000000000BF
:1001400000000000000000000000000000000000AF
:10015000000000000000000000000000000000009F
:10016000000000000000000000000000000000008F
:10017000000000000000000000000000000000007F
:10018000000000000000000000000000000000006F
:10019000000000000000000000000000000000005F
:1001A000000000000000000000000000000000004F
:1001B000000000000000000000000000000000003F
:1001C000000000000000000000000000000000002F
:1001D000000000000000000000000000000000001F
:1001E000000000000000000000000000000000000F
:1001F00000000000000000000000000000000000FF
:10020000FFFFFF00FFFFFF000000000000000000F4
:1002100000000000000000000000000000000000DE
:1002200000000000000000000000000000000000CE
:1002300000000000000000000000000000000000BE
:1002400000000000000000000000000000000000AE
:10025000000000000000000000000000000000009E
:10026000000000000000000000000000000000008E
:10027000000000000000000000000000000000007E
:10028000000000000000000000000000000000006E
:10029000000000000000000000000000000000005E
:1002A000000000000000000000000000000000004E
:1002B000000000000000000000000000000000003E
:1002C000000000000000000000000000000000002E
:1002D000000000000000000000000000000000001E
:1002E000000000000000000000000000000000000E
:1002F00000000000000000000000000000000000FE
:1003000000000000000000000000000000000000ED
:1003100000000000000000000000000000000000DD
:1003200000000000000000000000000000000000CD
:1003300000000000000000000000000000000000BD
:1003400000000000000000000000000000000000AD
:10035000000000000000000000000000000000009D
:10036000000000000000000000000000000000008D
:10037000000000000000000000000000000000007D
:10038000000000000000000000000000000000006D
:10039000000000000000000000000000000000005D
:1003A000000000000000000000000000000000004D
:1003B000000000000000000000000000000000003D
:1003C000000000000000000000000000000000002D
:1003D000000000000000000000000000000000001D
:1003E000000000000000000000000000000000000D
:1003F00000000000000000000000000000000000FD
:10040000EFED20000EFF27000E0188000000000025
:10041000000020000000E000020032000001200087
:100420002002880014000700770007000000E000A9
:1004300003003A00A09C21001100200002003700B8
:100440000000200001002000810F70000100320038
:1004500014000700000020000000E000020032004D
:100460000000020000000000283702000000000029
:100470000040DA000000FE004440A900E05A2000DD
:100480000000E000030032000020200090018800FE
:100490004440A800000006008A1F78008B1F7800E7
:1004A00000000600A1028800800478000000EB0034
:1004B0001F003700E284440054A0B4009905BA003C
:1004C000E284440054A0B4009906BA00E2844400D7
:1004D00054A0B4000006EB00476FDE00FD07B20039
:1004E000AE018800636CE10003003A00EAFF0700F8
:1004F0000000EB000E003700606CE10008003A00DD
:10050000004DEB000A05E800020039003420EC0041
:100510000AF0A0008B05E900F9FF3E000400370057
:100520006168E100010032000086EB000B0007006B
:1005300019C7BA001905BA000E04E00003003A001A
:100540000A00E000DBFF3A0000000600FE07B200F0
:10055000AE0288008A047800F5FF37000CD0A300B3
:10056000E20F4D001C00390089027800354DBA00B9
:100570000A05E800020039003420EC000AF0A0006F
:100580008B05E9000F003200254DBA000A05E8008E
:10059000020039003420EC000AF0A0008B05E900CD
:1005A000080032000C00E0000600320015CDBA0051
:1005B0000A05E800020039003420EC000AF0A0002F
:1005C0008B05E9008984E80054A0B4000B00E0002A
:1005D000E2FF3A00000006009902BA00055D7800CB
:1005E0008B05E900F7FF3200C82ADE00055D7800C0
:1005F0008B05E900F3FF32000C00E000F1FF320050
:1006000019DDBA00EEFF3700000005005400F800C5
:10061000A10288008002780062004000E08048006B
:100620003549BA003204E0000410A700100032007F
:100630008301E9000E0032002549BA003204E000CF
:100640000410A7000A0032008301E900080032000C
:100650000408A300EEFF320015C9BA003204E0001E
:100660000410A700020032008301E900E8FF3A000D
:100670005400F900000006008000EB00507688006E
:100680006176880011C0B30080EC2000014878003A
:100690000000060080EC20001004E00002003A0098
:1006A00010002000F4FF0700D2E62400631C2400A1
:1006B00050768000617680000900070092032300D5
:1006C000030020000001410081814900527688002A
:1006D000637688000300780000F0A10000000600A7
:1006E000020AB900001BB9000200B80081004200F4
:1006F000810043000000060000010000020300002A
:100700000405000006070000080900000A0B0000AD
:100710000C0D00000E0F0000131100001D7F0000E3
:10072000E39400004A170000F3070000A78B0000C5
:100730004D2B000030C50000637C0000777B00007B
:10074000F26B00006FC5000030010000672B000055
:10075000FED70000AB760000CA820000C97D000011
:10076000FA59000047F00000ADD40000A2AF00002D
:100770009CA4000072C00000B7FD0000932600009A
:10078000363F0000F7CC000034A50000E5F1000082
:1007900071D800003115000004C7000023C3000019
:1007A00018960000059A00000712000080E2000081
:1007B000EB270000B2750000098300002C1A00002E
:1007C0001B6E00005AA00000523B0000D6B3000090
:1007D00029E300002F84000053D1000000ED000049
:1007E00020FC0000B15B00006ACB0000BE390000B5
:1007F0004A4C000058CF0000D0EF0000AAFB0000D8
:10080000434D00003385000045F90000027F0000E1
:10081000503C00009FA8000051A30000408F000042
:10082000929D000038F50000BCB60000DA210000FF
:1008300010FF0000F3D20000CD0C000013EC00000C
:100840005F97000044170000C4A700007E3D000031
:10085000645D000019730000608100004FDC00003F
:10086000222A00009088000046EE0000B814000024
:10087000DE5E00000BDB0000E03200003A0A000000
:1008800049060000245C0000C2D30000AC620000F6
:1008900091950000E4790000E7C80000376D000082
:1008A0008DD500004EA900006C560000F4EA00004F
:1008B000657A0000AE080000BA780000252E00001E
:1008C0001CA60000B4C60000E8DD0000741F000094
:1008D0004BBD00008B8A0000703E0000B566000032
:1008E00048030000F60E00006135000057B9000013
:1008F00086C100001D9E0000E1F800009811000074
:1009000069D900008E9400009B1E000087E900005A
:10091000CE55000028DF00008CA10000890D0000EA
:10092000BFE6000042680000419900002D0F000062
:10093000B0540000BB160000520900006AD5000048
:1009400030360000A5380000BF400000A39E000024
:1009500081F30000D7FB00007CE300003982000037
:100960009B2F0000FF870000348E000043440000EE
:10097000C4DE0000E9CB0000547B0000943200008C
:10098000A6C20000233D0000EE4C0000950B0000C5
:1009900042FA0000C34E0000082E0000A1660000CD
:1009A00028D9000024B20000765B0000A2490000B4
:1009B0006D8B0000D125000072F80000F664000085
:1009C0008668000098160000D4A400005CCC0000EB
:1009D0005D650000B69200006C7000004850000099
:1009E000FDED0000B9DA00005E150000465700007A
:1009F000A78D00009D84000090D80000AB0000008F
:100A00008CBC0000D30A0000F7E400005805000089
:100A1000B8B3000045060000D02C00001E8F000077
:100A2000CA3F00000F020000C1AF0000BD0300007C
:100A3000011300008A6B00003A9100001141000090
:100A40004F670000DCEA000097F20000CFCE000004
:100A5000F0B40000E673000096AC000074220000C1
:100A6000E7AD000035850000E2F9000037E800003E
:100A70001C750000DF6E000047F100001A710000D5
:100A80001D290000C58900006FB70000620E00003C
:100A9000AA180000BE1B0000FC5600003E4B0000E0
:100AA000C6D20000792000009ADB0000C0FE0000E2
:100AB00078CD00005AF400001FDD0000A8330000CC
:100AC00088070000C7310000B11200001059000073
:100AD00027800000EC5F0000605100007FA900004B
:100AE00019B500004A0D00002DE500007A9F0000B6
:100AF00093C900009CEF0000A0E000003B4D000007
:100B0000AE2A0000F5B00000C8EB0000BB3C0000BE
:100B10008353000099610000172B0000047E000041
:100B2000BA770000D6260000E169000014630000D7
:100B3000552100000C7D00000002000004060000AA
:100B4000080A00000C0E000010120000141600002D
:100B5000181A00001C1E000020220000242600009D
:100B6000282A00002C2E000030320000343600000D
:100B7000383A00003C3E000040420000444600007D
:100B8000484A00004C4E00005052000054560000ED
:100B9000585A00005C5E000060620000646600005D
:100BA000686A00006C6E00007072000074760000CD
:100BB000787A00007C7E000080820000848600003D
:100BC000888A00008C8E00009092000094960000AD
:100BD000989A00009C9E0000A0A20000A4A600001D
:100BE000A8AA0000ACAE0000B0B20000B4B600008D
:100BF000B8BA0000BCBE0000C0C20000C4C60000FD
:100C0000C8CA0000CCCE0000D0D20000D4D600006C
:100C1000D8DA0000DCDE0000E0E20000E4E60000DC
:100C2000E8EA0000ECEE0000F0F20000F4F600004C
:100C3000F8FA0000FCFE00001B1900001F1D000058
:100C400013110000171500000B0900000F0D000024
:100C500003010000070500003B3900003F3D000094
:100C600033310000373500002B2900002F2D000004
:100C700023210000272500005B5900005F5D000074
:100C800053510000575500004B4900004F4D0000E4
:100C900043410000474500007B7900007F7D000054
:100CA00073710000777500006B6900006F6D0000C4
:100CB00063610000676500009B9900009F9D000034
:100CC00093910000979500008B8900008F8D0000A4
:100CD0008381000087850000BBB90000BFBD000014
:100CE000B3B10000B7B50000ABA90000AFAD000084
:100CF000A3A10000A7A50000DBD90000DFDD0000F4
:100D0000D3D10000D7D50000CBC90000CFCD000063
:100D1000C3C10000C7C50000FBF90000FFFD0000D3
:100D2000F3F10000F7F50000EBE90000EFED000043
:100D3000E3E10000E7E5000000040000080C00000B
:100D400010140000181C000020240000282C0000B3
:100D500030340000383C000040440000484C0000A3
:100D600050540000585C000060640000686C000093
:100D700070740000787C000080840000888C000083
:100D800090940000989C0000A0A40000A8AC000073
:100D9000B0B40000B8BC0000C0C40000C8CC000063
:100DA000D0D40000D8DC0000E0E40000E8EC000053
:100DB000F0F40000F8FC00001B1F000013170000F7
:100DC0000B0F0000030700003B3F0000333700001B
:100DD0002B2F0000232700005B5F0000535700000B
:100DE0004B4F0000434700007B7F000073770000FB
:100DF0006B6F0000636700009B9F000093970000EB
:100E00008B8F000083870000BBBF0000B3B70000DA
:100E1000ABAF0000A3A70000DBDF0000D3D70000CA
:100E2000CBCF0000C3C70000FBFF0000F3F70000BA
:100E3000EBEF0000E3E70000363200003E3A00002E
:100E4000262200002E2A0000161200001E1A0000A2
:100E5000060200000E0A0000767200007E7A000092
:100E6000666200006E6A0000565200005E5A000082
:100E7000464200004E4A0000B6B20000BEBA000072
:100E8000A6A20000AEAA0000969200009E9A000062
:100E9000868200008E8A0000F6F20000FEFA000052
:100EA000E6E20000EEEA0000D6D20000DEDA000042
:100EB000C6C20000CECA00002D2900002521000076
:100EC0003D390000353100000D090000050100002A
:100ED0001D190000151100006D690000656100001A
:100EE0007D790000757100004D490000454100000A
:100EF0005D59000055510000ADA90000A5A10000FA
:100F0000BDB90000B5B100008D89000085810000E9
:100F10009D99000095910000EDE90000E5E10000D9
:100F2000FDF90000F5F10000CDC90000C5C10000C9
:100F3000DDD90000D5D10000000800001018000025
:100F400020280000303800004048000050580000C1
:100F500060680000707800008088000090980000B1
:100F6000A0A80000B0B80000C0C80000D0D80000A1
:100F7000E0E80000F0F800001B1300000B03000085
:100F80003B3300002B2300005B5300004B43000069
:100F90007B7300006B6300009B9300008B83000059
:100FA000BBB30000ABA30000DBD30000CBC3000049
:100FB000FBF30000EBE30000363E0000262E0000AD
:100FC000161E0000060E0000767E0000666E000011
:100FD000565E0000464E0000B6BE0000A6AE000001
:100FE000969E0000868E0000F6FE0000E6EE0000F1
:100FF000D6DE0000C6CE00002D2500003D350000E5
:101000000D0500001D1500006D6500007D750000D8
:101010004D4500005D550000ADA50000BDB50000C8
:101020008D8500009D950000EDE50000FDF50000B8
:10103000CDC50000DDD500006C6400007C740000AC
:101040004C4400005C5400002C2400003C340000A0
:101050000C0400001C140000ECE40000FCF4000090
:10106000CCC40000DCD40000ACA40000BCB4000080
:101070008C8400009C940000777F0000676F000064
:10108000575F0000474F0000373F0000272F000048
:10109000171F0000070F0000F7FF0000E7EF000038
:1010A000D7DF0000C7CF0000B7BF0000A7AF000028
:1010B000979F0000878F00005A5200004A420000AC
:1010C0007A7200006A6200001A1200000A02000030
:1010D0003A3200002A220000DAD20000CAC2000020
:1010E000FAF20000EAE200009A9200008A82000010
:1010F000BAB20000AAA20000414900005159000004
:1011000061690000717900000109000011190000F7
:101110002129000031390000C1C90000D1D90000E7
:10112000E1E90000F1F900008189000091990000D7
:10113000A1A90000B1B900000000000009000000F2
:101140000000000008000000010200000000000094
:10115000000C000000030000040A00000000000072
:101160000A00000000000000050000000008000068
:101170000000000000000000060000000800000061
:10118000000000000000000007080000000B000045
:10119000090000000000000008000000010200003B
:1011A00005060000070800000A0100000500000015
:1011B000020100000500000002040000030000001E
:1011C000020A000003000000020400000A00000000
:1011D00006010000050000000607000008000000EE
:1011E000060700000A000000060A000008000000D0
:1011F00009090000090000000A0A00000A0A0000AC
:10120000D8D00000E0C00000D0D00000D0C0000066
:10121000C0E80000E8D00000D0D00000D0000000FE
:10122000010100000204000008100000204000003E
:101230008000000058020000320000003200000070
:10124000580200003200000058020000580200005E
:10125000320000000000FA00A05E80000000E00004
:1012600003003A0040D02000C0118800160037006B
:10127000B05E8000E10F50000A003200E10F500024
:1012800005003900E20F500009003200E30F500062
:101290000A0032000C00370040D02000C011880046
:1012A0000900370010682000C011880006003700D0
:1012B000F0192000C011880003003700F00C200056
:1012C000C011880000000000E9A2A900D9C2A8004E
:1012D000113A8000F00B20000081600060042000C3
:1012E000710520002374200080497800814978002E
:1012F000824978003135800000FC2F00808060003A
:10130000B00220000100700030358800F136800006
:10131000F00F2C0080806000005020000100700061
:10132000F0368800103A8000000178000260A000CA
:10133000600420007105200023742000804978009B
:1013400081497800824978003022EF003222EF0094
:101350003162A8003062A8009C40A90097C0A90093
:1013600097E0A9008C40A90087C0A90087E0A900E8
:1013700031E2A8000080FA00000006000200FA0036
:10138000E0D520008040EB000148780060D62000C6
:101390008040EB000148780030D6200061C1B300E6
:1013A00001487800E0D720008040EB000148780039
:1013B00060D820008040EB00014878000000EB007E
:1013C000006C880050D820008040EB000148780075
:1013D00030D8200061C1B3000148780000802000AF
:1013E0008000EB0001087800EC22A90000802000BA
:1013F000014B2000210098000040EB00004F7800D6
:10140000060037009E80FB0060D620000080400070
:101410008040EB00114098001E4FE8001E4078000D
:10142000F54F5000F7FF3600A05E80000000E0009E
:1014300007003A0020D6200091C0B3000148780090
:1014400020D8200091C0B300014878002600370062
:10145000B05E8000E10F50000E003200E10F50003E
:1014600005003900E20F500011003200E30F500078
:10147000160032001C00370020D6200091C0B300B7
:101480000148780020D8200091C0B30001487800BE
:101490001500370020D6200051C0B3000148780065
:1014A00020D8200051C0B300014878000E0037005A
:1014B00020D6200011C0B3000148780020D82000B9
:1014C00011C0B300014878000700370020D6200083
:1014D00011C0B3000148780020D8200011C0B3002B
:1014E000014878000000000030D62000104078004D
:1014F0000080FB000080E8000040780021D620003A
:10150000914078008180FB000088B90000007800DD
:101510008040780040D62000014878000828EF007D
:101520000A28EF000080FA00000006000000FA0020
:10153000008020001100200001087800E05E80009B
:10154000610060000000E000050032000080200023
:1015500081D42000110098000A28EF000500370010
:101560000080200001FA200011009800E001200016
:10157000504088003342A8000080FA0000000600B6
:101580000000FA00904080000000E80090408800D1
:101590009140800030062000808F500014003600FB
:1015A0001228EF00A05F8000E60F50000400320018
:1015B000D0758000610060000000E0000C003A007F
:1015C000E01680004400DE006140600000C0EA00D8
:1015D000614060000080FB00610060004400DD00AD
:1015E000E11680000140A10001007000E0168800B3
:1015F0000080FA00000006000000FA006040800051
:101600007140800061004000E08048006040880038
:10161000714088006240800073408000F0342C00EC
:1016200001002000800F5100818F59000200360018
:101630000C28EF000E28EF000080FA0000000600E2
:101640000200FA0002010700E0D7200010407800F5
:10165000E64F500004003A0095040700E0D7200050
:101660008040EB00014878000080200010007800E6
:101670008000EB009200200003002000820F500049
:10168000838F5800B9003E0000600100A6003700BB
:1016900008003700100037003300370053003700D0
:1016A00065003700A0003700700037009800370051
:1016B0009D00370000802000100090000000E00036
:1016C0009B003A00B50107000080200021002000A7
:1016D00001087800A5003700501780006100600005
:1016E0000000E00015003A00EC22A800501780002E
:1016F000610060000000E00004003A00008020006B
:10170000310020000108780098003700E05E80007A
:10171000610060000000E00087003A00EC22A900B0
:101720000080200081D4200011009800008020005B
:1017300011002000010878008C003700501780004D
:10174000610060000000E0007D00320000802000A9
:1017500081D420001100980000802000110020009A
:101760000108780081003700A05E80000000E000E2
:1017700013003A0011178000002020000080600054
:101780000000E00003003A00C5C2A800E502A9007D
:101790009D000700210A0700AC010700008020001F
:1017A0004100200001087800008020002103200073
:1017B0001100980012040200010000006B003700C5
:1017C000160A0700A1010700008020004100200048
:1017D00001087800008020002103200011009800FB
:1017E000120402000100000060003700E6FA020067
:1017F000000000002404020001000000004F7800F7
:101800001E407800E44F500005003A001C0402001E
:101810000100000000802000510020000108780035
:1018200000802000100090000000E00046003A0018
:10183000500007004D00370000802000100090008D
:101840000000E00042003A0000802000710020000B
:101850000108780040D62000104078008080FB000E
:1018600000802000110098004000370060D6200062
:1018700010407800F54F50000C00360091118000A8
:1018800000102000008060000000E0003200320004
:1018900000802000810020000108780000802000E6
:1018A000E101200011009800300037009111800004
:1018B00000202000008060000000E0000E003A00E0
:1018C00060D62000104078000080FB00E800400057
:1018D000E0D5200000804000104090000080FB0018
:1018E000A011880060D62000104078008040E800F9
:1018F00060D6200001487800008020001000900091
:101900000000E00016003A001A0007001700370038
:1019100000802000100090000000E00012003A005B
:101920001400070011003700000000000F0037000E
:10193000000000000D003700000000000B00370021
:101940000000000009003700000000000700370019
:101950000000000005003700000000000300370011
:101960000000000001003700000000000080FA00C5
:10197000000006000200FA000000EB00000F7800F3
:101980000080200011002000010878000080200065
:10199000B00090000080200020009000808F500058
:1019A0000900360000802000B0009000004B2000AD
:1019B00000017800110009008280D8008000FD003D
:1019C000000F78000300370000802000B000900076
:1019D000010F780000802000200090009E00500041
:1019E0000080200011009800A05E80000000E00050
:1019F00002003A00C5C2A900E502A800EC22A90035
:101A00000080FA00000006000000FA00901180003B
:101A1000640060000000E000010032003242A900D2
:101A200090118000620060000000E00001003200C0
:101A30003222A90090118000680060000000E000E0
:101A4000010032003262A9000080FA0000000600A6
:101A50000400FA000000EB00000F78000040EB00EB
:101A600020479800111780000020200000806000AF
:101A70000000E00001003200E3FF07009011800049
:101A8000610060000000E00054003200B0118000EE
:101A90002047980020012000006C8800E0D720003B
:101AA000104078000080FB00E10F5000140032006D
:101AB000E10F500003003C000000E000060032008F
:101AC00046003700E20F50001D003200E30F5000C7
:101AD0002B0032004100370070D82000AE4090004B
:101AE0000148780060D8200011C0B3000148780098
:101AF000E0D7200011C0B30001487800370037005C
:101B000060D82000104078008080FB0060D8200062
:101B100000804000AE4090001140980060D8200046
:101B2000104078008040E80060D82000014878002C
:101B3000E0D7200021C0B30001487800270037001B
:101B400060D82000104078008080FB0060D8200022
:101B500000804000AE4090001140980060D8200006
:101B6000104078008040E80060D8200001487800EC
:101B7000E0D7200031C0B3000148780017003700DB
:101B800060D82000104078008080FB0060D82000E2
:101B900000804000AE4090001140980060D82000C6
:101BA000104078008040E80060D8200001487800AC
:101BB00060D8200010407800F54F50000600360035
:101BC000E0D7200041C0B300014878003004020093
:101BD000010000000100370000000000E0D72000F5
:101BE00010407800E44F50000D003A00D2FE020091
:101BF000000000004204020001000000304798008D
:101C00003E409000E44F500005003A003A040200C4
:101C100001000000E0D7200051C0B3000148780067
:101C2000E0D7200010407800E54F500021003A0036
:101C3000610120000000EB00681E020001000000AE
:101C4000000F78001E0078000000E0001500320050
:101C5000E0D7200071C0B300014878000076800012
:101C60006800600000F0A7000000EA000000E90042
:101C70004F00DE00004078000080FB006100600043
:101C80004300DD00017680000130A10001007000FA
:101C900000768800804080000000E80080408800D6
:101CA00015003700E0D7200061C0B300014878007C
:101CB00011003700E0D72000104078000004E00059
:101CC00006003200006C80000000E00003003A00D3
:101CD000E0D720008040EB0001487800E0D72000EA
:101CE00010407800E74F500003003A00E0D7200092
:101CF0008040EB00014878000080FA0000000600F8
:101D00000000FA001EFE07003BFE070000802000D6
:101D1000100090000000E00005003200008020006C
:101D2000100090008000E900008020001100980061
:101D30000080200010007800E10F500004003A00FD
:101D4000008020008000EB00310098000500370083
:101D500000802000300090008000E800008020001B
:101D600031009800006C80000000E00003003200A9
:101D7000006C80000000E900006C8800504080008A
:101D80000000E00003003200504080000000E90045
:101D9000504088000080FA00000006000000FA00B1
:101DA000E05E8000610060000000E000130032008F
:101DB000E0EC2000104078000004E0000500320054
:101DC000E0EC2000104078008040E900E0EC2000CA
:101DD00001487800F0EC2000104078000004E0009A
:101DE00018003200F0EC2000104078008040E9003C
:101DF000F0EC2000014878001200370000ED2000D0
:101E0000104078000004E0000500320000ED2000E2
:101E1000104078008040E90000ED20000148780083
:101E200010ED2000104078000004E00005003200B2
:101E300010ED2000104078008040E90010ED2000F7
:101E4000014878000080FA00000006000200FA0055
:101E50000040EB00004F7800017680000004200075
:101E6000008060000000E00002003A001A00070055
:101E700001003700FB000700901180006200600045
:101E80000000E000010032003222A9009011800021
:101E9000640060000000E00003003200B011800028
:101EA000004F78003242A900901180006800600065
:101EB0000000E000010032003262A90060048000EE
:101EC000640060000000E000010032008C40A900C6
:101ED0000080FA00000006000800FA000040EB0055
:101EE000004F7800805E8000EE0F500006003A0040
:101EF000E0BC200010407800E640500070D6200082
:101F00000148780011003700805E8000E60F500025
:101F100003003200805E8000E80F500006003A00A7
:101F2000E0BC200010407800E440500070D6200053
:101F30000148780005003700E0BC20001040780020
:101F400080C0E80070D6200001487800E0BC200086
:101F50009040780080D620000148780090D620007C
:101F6000A1CAB300014878000040EB00004F7800A0
:101F7000805E800000407800004F78001E007800EE
:101F80000050A000000F7800E05E8000614060001B
:101F90000080FB00610060004400DD009E007800CE
:101FA0000140A10001007000000F78009E40780001
:101FB000A0D62000014878000040EB00004F7800D8
:101FC000D07580004F00DE00004078000080FB00EC
:101FD000610060009E0078000100A1000100700017
:101FE000000F7800D07580004700DE00614060007F
:101FF0000080FB0061006000000040009E0078004F
:102000000110A10001007000000F7800E075800051
:102010004E00DE00614060000080FB006100600057
:102020004200DD009E0078000120A1000100700048
:10203000000F7800E07580004F00DE00004078005F
:102040000080FB00610060004300DD009E0078001E
:102050000130A10001007000000F7800F0758000D1
:102060004600DE00614060000080FB00610060000F
:102070004400DD009E0078000140A10001007000D6
:10208000000F7800F07580004700DE0061406000BE
:102090000080FB00610060004500DD009E007800CC
:1020A0000150A10001007000000F7800D075800081
:1020B0004700DE00614060000080FB0061006000BE
:1020C0004600DD009E0078000160A1000100700064
:1020D000000F78009E407800B0D6200001487800BC
:1020E0000040EB00004F7800D07580006140600038
:1020F0000080FB00610060009E0078000100A100EC
:1021000001007000000F7800E07580004600DE00DE
:10211000614060000080FB00610060000000400042
:102120009E0078000110A10001007000000F7800EF
:10213000D07580004500DE00614060000080FB003B
:10214000610060004200DD009E0078000120A100D7
:1021500001007000000F7800D07580004600DE009E
:10216000614060000080FB00610060004300DD0012
:102170009E0078000130A10001007000000F78007F
:10218000E05E8000620060000000E00003003200BA
:102190001E0078000040A000000F78009E407800EC
:1021A000C0D62000014878004E9F020000000000C9
:1021B0002007980031079800FE409000D0D62000FC
:1021C00001487800EE409000E0D6200001487800F9
:1021D000DE409000F0D6200001487800CE4090000C
:1021E00000D720000148780050D720008040EB0045
:1021F0000148780060D720008040EB00014878005B
:1022000070D720008040EB000148780080D7200084
:102210008040EB00014878002101200010002000E0
:10222000681E02000100000010079800AE409000F8
:1022300090D7200001487800BE409000A0D7200031
:102240000148780030D6200061C1B3000148780011
:1022500060D620008040EB00014878000080FA0042
:10226000000006000C00FA000040EB00004F780070
:10227000805E8000E60F500003003200805E800028
:10228000E80F500006003A00E0BC20001040780043
:10229000E440500070D62000014878000E0037005E
:1022A000805E8000EE0F500006003A00E0BC200087
:1022B00010407800E640500070D6200001487800B9
:1022C00005003700E0BC20001040780080C0E80026
:1022D00070D6200001487800E0BC200090407800D3
:1022E00080D620000148780090D6200051C5B30068
:1022F000014878000040EB00004F7800805E8000CD
:1023000000407800004F78001E0078000050A000C8
:10231000000F7800E05E8000614060000080FB00FC
:10232000610060004400DD009E0078000140A100D3
:1023300001007000000F78009E407800A0D62000B9
:10234000014878000040EB00004F7800D075800015
:102350004F00DE00004078000080FB00610060005C
:102360009E0078000100A10001007000000F7800BD
:10237000D07580004700DE00614060000080FB00F7
:1023800061006000000040009E0078000110A10084
:1023900001007000000F7800E07580004E00DE0044
:1023A000614060000080FB00610060004200DD00D1
:1023B0009E0078000120A10001007000000F78004D
:1023C000E07580004F00DE00004078000080FB00D8
:1023D000610060004300DD009E0078000130A10034
:1023E00001007000000F7800F07580004600DE00EC
:1023F000614060000080FB00610060004400DD007F
:102400009E0078000140A10001007000000F7800DC
:10241000F07580004700DE00614060000080FB0036
:10242000610060004500DD009E0078000150A100C1
:1024300001007000000F7800A67802000000000084
:10244000204798001E009000614060000080FB0063
:10245000610060004600DD009E0078000160A10080
:1024600001007000000F78001E0090000000D100F5
:10247000614060000080FB00610060004700DD00FB
:102480009E0078000170A10001007000000F78002C
:102490009E407800B0D62000014878000040EB0054
:1024A000004F7800D0758000614060000080FB0024
:1024B000610060009E0078000100A1000100700032
:1024C000000F7800E07580004600DE00614060008B
:1024D0000080FB0061006000000040009E0078006A
:1024E0000110A10001007000000F7800D07580007D
:1024F0004500DE00614060000080FB00610060007C
:102500004200DD009E0078000120A1000100700063
:10251000000F7800D07580004600DE00614060004A
:102520000080FB00610060004300DD009E00780039
:102530000130A10001007000000F7800E05E800013
:10254000620060000000E00035003200805E800024
:10255000E40F500006003200805E8000E50F50005E
:1025600003003200805E8000E60F50000B003A004E
:102570005ACF020000000000614060000080FB00B4
:10258000610060004400DD009E0078000140A10071
:1025900001007000000F780021003700805E80008D
:1025A000EB0F500009003200805E8000EC0F5000FD
:1025B00006003200805E8000ED0F50000300320004
:1025C000805E8000EE0F50000B003A00628902002E
:1025D00000000000614060000080FB0061006000BE
:1025E0004400DD009E0078000140A1000100700061
:1025F000000F78000A00370090FA02000000000087
:10260000614060000080FB00610060004400DD006C
:102610009E0078000140A10001007000000F7800CA
:10262000007680004600DE00614060000080FB0014
:10263000610060004500DD009E0078000150A100AF
:1026400001007000000F78009E407800C0D6200086
:1026500001487800C07802000000000020079800C0
:10266000C87802000000000030079800CE409000BB
:10267000D0D6200001487800DE409000E0D620004F
:1026800001487800EE409000F0D620000148780024
:10269000FE40900000D720000148780094780200A6
:1026A00000000000400798008E48900010D72000DE
:1026B000014878009E48900020D72000014878000B
:1026C00030D720008040EB000148780040D7200040
:1026D0008040EB000148780050D720008040EB009C
:1026E0000148780060D720008040EB000148780066
:1026F00070D720008040EB000148780080D7200090
:102700008040EB000148780090D720008040EB002B
:1027100001487800A0D720008040EB0001487800F5
:10272000805E8000EB0F500009003200EB0F50007C
:102730004B003900ED0F500027003200ED0F500024
:1027400014003900EE0F500034003200450037000D
:10275000F05B800020079800D05B80003007980075
:10276000CE40900030D7200001487800DE40900035
:1027700040D7200001487800EE40900050D720005C
:1027800001487800FE40900060D7200001487800A2
:1027900034003700305B800020079800105B800019
:1027A00030079800CE40900030D7200001487800D4
:1027B000DE40900040D7200001487800EE409000B5
:1027C00050D7200001487800FE40900060D72000DC
:1027D0000148780023003700705B800020079800D4
:1027E000505B800030079800CE40900030D720002A
:1027F00001487800DE40900040D720000148780072
:10280000EE40900050D7200001487800FE40900034
:1028100060D720000148780012003700B05B8000CC
:1028200020079800905B800030079800CE40900011
:1028300030D7200001487800DE40900040D72000CB
:1028400001487800EE40900050D720000148780001
:10285000FE40900060D7200001487800010037005A
:10286000000000004101200010002000681E02004E
:102870000100000050079800AE489000B0D720003B
:1028800001487800BE489000C0D720000148780079
:1028900030D6200061C1B3000148780060D6200026
:1028A0008040EB00014878000080FA00000006003C
:1028B0000200FA0090D82000104F7800A0CAB300A0
:1028C0009E40780080CF500001003A0007000700CA
:1028D00050C5B3009E40780080CF500001003A0000
:1028E000A30007000080FA00000006000A00FA00BA
:1028F000A0D82000104078004047980080D82000E1
:1029000010407800004F780070D820001040780008
:1029100020479800B0D82000104078006047980009
:10292000C0D8200010407800004F9800E0BC200084
:10293000904078002E40900080CF50000C00320074
:1029400080BD2000904078002E40900080CF500045
:10295000070032007828A8006C97020000000000F1
:10296000A0C0B3003A180200010000007E0037004A
:102970001E4078000004E00007003A007828A80014
:102980006C97020000000000A0C0B3003A180200DB
:102990000100000074003700AE4090001E40780037
:1029A00080CF500007003A007828A8006C970200FA
:1029B00000000000A0C0B3003A18020001000000AF
:1029C00069003700AE009000000220000080600027
:1029D0000000E000070032007828A8006C97020091
:1029E00000000000A0C0B3003A180200010000007F
:1029F0005D003700E05E8000620060000000E000E3
:102A00000B0032004E009000700060000000E000FB
:102A100007003A007828A8006C9702000000000028
:102A2000A0C0B3003A180200010000004E003700B9
:102A3000BE0090002E0090006C69020000000000B3
:102A40004E00900024670200000000001E00780085
:102A500043040700BE0090001E0078006B040700CE
:102A60004E009000620060000000E00004003A00A8
:102A70007828A80060002000B05F880001003700BF
:102A80007828A900BE0090000004200000806000AB
:102A90000000E00003003200C05702000000000008
:102AA0000200370010002000B05F88002E00900068
:102AB000700060000000E000160032003E00900050
:102AC0000000D100614060002657020000000000B5
:102AD000D0D820009040780010BE20000148780037
:102AE000E0D820009040780000BE20000148780027
:102AF000F0D8200090407800F0BD20000148780018
:102B000000D9200090407800E0BD20000148780006
:102B1000150037003E0090000000D10061406000C9
:102B20003E57020000000000D0D8200090407800FE
:102B300050BE200001487800E0D820009040780086
:102B400040BE200001487800F0D820009040780076
:102B500030BE20000148780000D920009040780065
:102B600020BE2000014878000080FA000000060026
:102B70001A00FA000040EB00004F7800A0D82000B7
:102B8000104078002057980080D82000104078002E
:102B9000604F980070D820001040780000579800CF
:102BA000B0D820001040780040579800C0D82000CE
:102BB0001040780060579800E0BC200090407800FA
:102BC0000E50900080CF50000500320080BD2000E4
:102BD000904078000E50900080CF500051033A0092
:102BE0006E4890000004E000500332008E509000C8
:102BF0006E48900080CF50004E0332009E08900037
:102C000000022000008060000000E0004B033A005A
:102C10007E009000D2030700AE0890007E00900076
:102C2000FA0307002E089000620060000000E00038
:102C300008003200805E8000E30F50000300360081
:102C4000805E8000E60F500002003600C057020090
:102C500000000000C05F8000620060000000E00033
:102C60000D003A00BE0890000002200000806000C5
:102C70000000E00008003200805E8000E30F50009A
:102C800003003600805E8000E60F50000200360030
:102C9000DE570200000000003E0890006200600065
:102CA0000000E00008003A00805E8000E30F500062
:102CB00003003600805E8000E60F50000200360000
:102CC00060002000B05F8800805E8000E40F50004C
:102CD00006003200805E8000E50F500003003200E5
:102CE000805E8000E60F500004003A0064CF0200CE
:102CF00000000000004F780013003700805E800065
:102D0000EB0F500009003200805E8000EC0F500095
:102D100006003200805E8000ED0F5000030032009C
:102D2000805E8000EE0F500004003A006C890200C3
:102D300000000000004F78000300370086FA020010
:102D400000000000004F78000176800000042000A1
:102D5000008060000000E000030032001E407800A8
:102D6000E74F500010003A001E089000700060000D
:102D70000000E000060032002E0890000000D100A4
:102D80006140600026570200000000000803370081
:102D90002E0890000000D100614060003E57020004
:102DA0000000000002033700805E8000E40F500046
:102DB00006003200805E8000E50F50000300320004
:102DC000805E8000E60F500013003A001E4078003D
:102DD000E14F500041003A001E0890007000600072
:102DE0000000E000060032003E0890004400DE00D3
:102DF000614060006ECF0200000000003700370025
:102E00003E0890004400DE00614060007ACF02007E
:102E10000000000031003700805E8000EB0F5000A2
:102E200009003200805E8000EC0F50000600320086
:102E3000805E8000ED0F500003003200805E800055
:102E4000EE0F500013003A001E407800E14F500092
:102E500022003A001E089000700060000000E000B0
:102E6000060032003E0890004400DE006140600031
:102E70007689020000000000180037003E0890002C
:102E80004400DE0061406000828902000000000012
:102E9000120037001E407800E14F50000F003A004A
:102EA0001E089000700060000000E0000600320084
:102EB0003E0890004400DE006140600060FA0200BD
:102EC00000000000050037003E0890004400DE00CE
:102ED000614060006CFA020000000000AE08900043
:102EE0001E0890006C690200000000003E0890007F
:102EF0002467020000000000E1758000000420004B
:102F0000008060000000E0008E0232003E08900069
:102F1000DB030700D0D8200010407800404798001D
:102F2000E0D820001040780050479800F0D82000EA
:102F3000104078006047980000D9200010407800C9
:102F40007047980030D9200010407800004F98005A
:102F500040D9200010407800104F980050D9200030
:102F600010407800204F980060D920001040780071
:102F7000304F980010D9200010407800404F980042
:102F800020D9200010407800504F98006E0090002B
:102F900010479800DE4890004E4890001AB5020095
:102FA000000000004E5090000080FB004600DE0054
:102FB00020479800805E80006101B8000080EB002F
:102FC0008080EB000200400083804800D200200097
:102FD00003002000820F5000838F58005B023E00E8
:102FE000006001000D0037005A0237001B00370057
:102FF0002A0037005F0037009400370029023700AD
:10300000380237005302370052023700C50037003C
:103010001C01370073013700CA013700EE489000E9
:103020000E50900080CF50004C023600BE00900041
:103030002E00900001017800800078007E00900052
:103040005D0207006E00900000017800AE40900025
:103050007E0090006F02070055023700EE48900096
:103060000E50900080CF50003E023600BE0090000F
:103070002E00900001017800800078007E00900012
:103080004D0207006E00900000017800AE409000F5
:103090007E0090005F02070045023700EE48900076
:1030A0000E50900080CF5000300236000040EB0000
:1030B000005F98001E089000614060000080FB00E7
:1030C00061006000CE0890000100A10001007000C6
:1030D000400F98001E0890000000D1006140600081
:1030E0000080FB006100600000004000CE089000FE
:1030F0000110A10001007000400F98001E08900010
:103100004200DE00614060000080FB006100600062
:103110004200DD00CE0890000120A10001007000F7
:10312000400F98003E019000AE0090000E589000B5
:103130000080FB00820178000101780080007800A7
:103140007E0090008ACA020000000000EE0090009D
:103150000E5890000080FB00810178002E41900005
:10316000800078007E009000D8CD020000000000B2
:103170000F023700EE4890000E50900080CF5000B4
:10318000FC0136000040EB00005F98001E08900034
:10319000614060000080FB0061006000CE0890008C
:1031A0000100A10001007000400F98001E0890006F
:1031B0000000D100614060000080FB006100600001
:1031C00000004000CE0890000110A1000100700036
:1031D000400F98001E0890004200DE006140600031
:1031E0000080FB00610060004200DD00CE0890001E
:1031F0000120A10001007000400F98003E019000E6
:10320000AE0090000E5890000080FB008201780014
:1032100001017800800078007E0090008ACA0200D8
:1032200000000000EE0090000E5890000080FB00AF
:10323000810178002E419000800078007E0090008F
:10324000D8CD020000000000D9013700EE48900000
:103250000E50900080CF5000C80131000040EB00BC
:10326000005F98001E089000614060000080FB0035
:1032700061006000CE0890000100A1000100700014
:10328000400F98001E0890000000D10061406000CF
:103290000080FB006100600000004000CE0890004C
:1032A0000110A10001007000400F98001E0890005E
:1032B0004200DE00614060000080FB0061006000B1
:1032C0004200DD00CE0890000120A1000100700046
:1032D000400F98003E019000AE0090000E58900004
:1032E0000080FB00820178000101780080007800F6
:1032F0007E0090008ACA020000000000EE009000EC
:103300000E5890000080FB00810178002E41900053
:10331000800078007E009000D8CD02000000000000
:10332000A3013700EE4890000E50900080CF50006F
:10333000940136000040EB00005F98001E089000EA
:10334000614060000080FB0061006000CE089000DA
:103350000100A10001007000400F98001E089000BD
:103360000000D100614060000080FB00610060004F
:1033700000004000CE0890000110A1000100700084
:10338000400F98001E0890004200DE00614060007F
:103390000080FB00610060004200DD00CE0890006C
:1033A0000120A10001007000400F98001E0890004D
:1033B0004300DE00614060000080FB0061006000AF
:1033C0004300DD00CE0890000130A1000100700034
:1033D000400F98003E019000AE0090000E58900003
:1033E0000080FB00820178000101780080007800F5
:1033F0007E0090002A83020000000000EE00900092
:103400000E5890000080FB00810178002E41900052
:10341000800078007E0090007287020000000000AB
:1034200020C0B300604F9800CE0090005E00900076
:103430008101780000017800D10020007E0090001A
:103440002A830200000000005E00900080017800E6
:1034500012C0B300D10020007E00900072870200ED
:10346000000000004E0090008001780022C0B300F0
:10347000D10020007E009000728702000000000052
:103480004B013700EE4890000E50900080CF500066
:103490003E0136000040EB00005F98001E089000DF
:1034A000614060000080FB0061006000CE08900079
:1034B0000100A10001007000400F98001E0890005C
:1034C0000000D100614060000080FB0061006000EE
:1034D00000004000CE0890000110A1000100700023
:1034E000400F98001E0890004200DE00614060001E
:1034F0000080FB00610060004200DD00CE0890000B
:103500000120A10001007000400F98001E089000EB
:103510004300DE00614060000080FB00610060004D
:103520004300DD00CE0890000130A10001007000D2
:10353000400F98003E019000AE0090000E589000A1
:103540000080FB0082017800010178008000780093
:103550007E0090002A83020000000000EE00900030
:103560000E5890000080FB00810178002E419000F1
:10357000800078007E00900072870200000000004A
:1035800020C0B300604F9800CE0090005E00900015
:103590008101780000017800E10020007E009000A9
:1035A0002A830200000000005E0090008001780085
:1035B00012C0B300E10020007E009000728702007C
:1035C000000000004E0090008001780022C0B3008F
:1035D000E10020007E0090007287020000000000E1
:1035E000F3003700EE4890000E50900080CF50005E
:1035F000E80036000040EB00005F98001E089000D5
:10360000614060000080FB0061006000CE08900017
:103610000100A10001007000400F98001E089000FA
:103620000000D100614060000080FB00610060008C
:1036300000004000CE0890000110A10001007000C1
:10364000400F98001E0890004200DE0061406000BC
:103650000080FB00610060004200DD00CE089000A9
:103660000120A10001007000400F98001E0890008A
:103670004300DE00614060000080FB0061006000EC
:103680004300DD00CE0890000130A1000100700071
:10369000400F98003E019000AE0090000E58900040
:1036A0000080FB0082017800010178008000780032
:1036B0007E0090002A83020000000000EE009000CF
:1036C0000E5890000080FB00810178002E41900090
:1036D000800078007E0090007287020000000000E9
:1036E00020C0B300604F9800DE0090004E009000B4
:1036F0008101780000017800B10020007E00900078
:103700002A830200000000004E0090008001780033
:1037100012C0B300B10020007E009000728702004A
:10372000000000005E0090008001780022C0B3001D
:10373000B10020007E0090007287020000000000AF
:103740009B003700EE4890000E50900080CF500054
:10375000920031000040EB00005F98001E089000CE
:10376000614060000080FB0061006000CE089000B6
:103770000100A10001007000400F98001E08900099
:103780000000D100614060000080FB00610060002B
:1037900000004000CE0890000110A1000100700060
:1037A000400F98001E0890004200DE00614060005B
:1037B0000080FB00610060004200DD00CE08900048
:1037C0000120A10001007000400F98001E08900029
:1037D0004300DE00614060000080FB00610060008B
:1037E0004300DD00CE0890000130A1000100700010
:1037F000400F98003E019000AE0090000E589000DF
:103800000080FB00820178000101780080007800D0
:103810007E0090002A83020000000000EE0090006D
:103820000E5890000080FB00810178002E4190002E
:10383000800078007E009000728702000000000087
:1038400020C0B300604F9800CE0090005E00900052
:103850008101780000017800C10020007E00900006
:103860002A830200000000005E00900080017800C2
:1038700012C0B300C10020007E00900072870200D9
:10388000000000004E0090008001780022C0B300CC
:10389000C10020007E00900072870200000000003E
:1038A00043003700EE4890000E50900080CF50004B
:1038B0003C003600BE0090002E0090000101780010
:1038C000800078007E009000690007006E00900084
:1038D00000017800AE4090007E0090004D0007008F
:1038E00033003700EE4890000E50900080CF50001B
:1038F0002E003100BE0090002E00900001017800E3
:10390000800078007E009000590007006E00900053
:1039100000017800AE4090007E0090003D0007005E
:1039200023003700000000002100370000000000E5
:103930001F003700000000001D00370000000000DD
:103940001B003700000000001900370000000000D5
:1039500017003700000000001500370000000000CD
:1039600013003700000000001100370000000000C5
:103970000F003700000000000D00370000000000BD
:103980000B003700000000000900370000000000B5
:1039900007003700000000000500370000000000AD
:1039A00003003700000000000100370000000000A5
:1039B0000080FA00000006000600FA00000F780000
:1039C00011079800220798001E007800610060002F
:1039D0000000E000070032002E00900000FA020014
:1039E000000000001E009000ACF902000000000082
:1039F000060037002E0090000CFA020000000000C4
:103A00001E009000B8F90200000000000080FA00DB
:103A1000000006000600FA00000F78002147980019
:103A2000220798001E007800610060000000E0009E
:103A3000070032002E40900030FA02000000000023
:103A40002E00900018FA0200000000000600370067
:103A50002E4090003CFA0200000000002E00900072
:103A600024FA0200000000000080FA0000000600B6
:103A70000600FA00000F780011079800220798004E
:103A8000805E8000EE0F500033003E0011002000E9
:103A90000008DD00F1E72700810060000100E00080
:103AA0002C003A0001102000810060000100E000BD
:103AB00016003A0001082000010060000000E0004C
:103AC000250032001E007800610060000000E00068
:103AD000070032002E00900000FA020000000000F3
:103AE0001E009000ACF90200000000001A00370030
:103AF0002E0090000CFA0200000000001E00900052
:103B0000B8F9020000000000130037001E00780022
:103B1000610060000000E000070032001E0090001D
:103B200000FA0200000000002E009000ACF9020034
:103B300000000000080037001E0090000CFA020090
:103B4000000000002E009000B8F902000000000004
:103B500001003700000000000080FA0000000600AD
:103B60000400FA00100798000040EB00004F7800B6
:103B70000040EB0010479800008020001000780003
:103B8000E10F50001E003A00E05E8000610060001E
:103B90000000E000030032000040EB00004F78001E
:103BA0000200370010C0B300004F78001E009000E4
:103BB000610060000000E000030032000040EB0004
:103BC000104798000200370010C0B300104798005B
:103BD0001E80FB009E4090000181FB00A191280007
:103BE0000000400002004000000040000080400053
:103BF000900078000080200011009800010037003C
:103C0000000000000080FA00000006000400FA0036
:103C1000000F780011079800E05E800061006000EE
:103C20000000E0004B0032001E00780061006000E0
:103C30000000E0002300320090438000610060003B
:103C40000000E00004003200E0EC200031C0B300CE
:103C50000148780003003700E0EC200041C6B300C3
:103C600001487800E075800000E0A000E075880061
:103C70001E0090004200DE00614060000080FB00FA
:103C8000610060004A00DD00E175800001A0A10034
:103C900001007000E07588001E0090004300DE0007
:103CA000614060000080FB00610060004200DD00B8
:103CB000F17580000120A10001007000F0758800FE
:103CC0006D00370090438000610060000000E0005C
:103CD00004003200F0EC200031C0B300014878004D
:103CE00003003700F0EC200041C6B3000148780023
:103CF000E17580000000280001007000E075880078
:103D00001E0090004400DE00614060000080FB0067
:103D1000610060004B00DD00E175800001B0A10092
:103D200001007000E07588001E0090004500DE0074
:103D3000614060000080FB00610060004300DD0026
:103D4000F17580000130A10001007000F07588005D
:103D5000490037001E007800610060000000E000AC
:103D60002300320090438000610060000000E0000A
:103D70000400320000ED200031C0B300014878009B
:103D80000300370000ED200041C6B3000148780071
:103D9000F07580000060A000F07588001E009000A3
:103DA0004200DE00614060000080FB0061006000B6
:103DB0004A00DD00E175800001A0A1000100700053
:103DC000E07588001E0090004300DE006140600046
:103DD0000080FB00610060004200DD00F1758000A2
:103DE0000120A10001007000F0758800220037005A
:103DF00090438000610060000000E0000400320099
:103E000010ED200031C0B3000148780003003700F6
:103E100010ED200041C6B30001487800F075800025
:103E20000070A000F07588001E0090004400DE00C5
:103E3000614060000080FB00610060004B00DD001D
:103E4000E175800001B0A10001007000E0758800FC
:103E50001E0090004500DE00614060000080FB0015
:103E6000610060004300DD00F17580000130A100B9
:103E700001007000F07588000080FA000000060064
:103E80000200FA00000F78001E0078006100600058
:103E90000000E000040032001E00780062006000B4
:103EA0000000E00005003A006C97020000000000EE
:103EB00020C2B3003A180200010000000080FA009E
:103EC000000006000000FA00A05E80000000E00094
:103ED00039003A0040408000E20F500025003200D7
:103EE000E20F500005003E000000E0000600320036
:103EF000E10F50000A00320040003700E30F50008D
:103F0000270032003D003700504080000000E000F4
:103F100033003A001000200040408800370037008E
:103F200050178000610060000000E0000C003A00C3
:103F3000EC22A80050178000610060000000E00043
:103F400029003A00E502A800C5C2A8002000200010
:103F50004040880040012000504088002700370082
:103F6000EC22A9000828EF00E00120005040880062
:103F700022003700504080000000E0001C003A00A2
:103F8000E502A800C5C2A90030002000404088001A
:103F9000EC22A900200320005040880017003700C1
:103FA000504080000000E00013003A004000200074
:103FB000404088001100370040408000E40F50006E
:103FC0000E003200E502A800C5C2A8004000200093
:103FD00040408800E0012000504088000700370082
:103FE000000000000500370000000000030037005B
:103FF0000000000001003700000000000080FA000F
:10400000000006000200FA0040408000004F7800E7
:104010001E4078000080FA00000006000200FA004E
:104020000040EB00004F7800060037009E80FB0048
:1040300060D62000008040008040EB0011409800D6
:104040001E4FE8001E407800F54F5000F7FF360085
:104050000080FA00000006000000FA00905E800078
:104060000000E00003003A0040D02000401188002A
:1040700016003700B05E8000E10F50000A003200E9
:10408000E10F500005003900E20F50000900320036
:10409000E30F50000A0032000C00370040D020002F
:1040A0004011880009003700106820004011880086
:1040B00006003700F0192000401188000300370087
:1040C000F00C20004011880000000000E842A90028
:1040D000E862A800113A8000F00B20000081600027
:1040E00060042000710520002374200080497800BE
:1040F00081497800824978002135800000FC2F003A
:10410000008060000040A00020358800F13680006B
:1041100000FC2F00008060003000B300F036880003
:10412000103A8000000178000260A00060042000C6
:1041300071052000237420008049780081497800AF
:10414000824978002022EF002222EF002162A8009D
:104150002062A8009C20A9009560A9009580A90074
:104160008C20A9008560A9008580A90021E2A80013
:104170000080FA00000006000200FA00E0D92000EA
:104180008040EB000148780060DA20008040EB00BE
:104190000148780030DA200061C1B300014878009E
:1041A000E0DB20008040EB000148780060DC20006C
:1041B0008040EB00014878000000EB00006E8800B2
:1041C00050DC20008040EB000148780030DC20000B
:1041D00061C1B30001487800408120008000EB00FD
:1041E00001087800F422A90040812000014B200042
:1041F000210098000040EB00004F780006003700D7
:104200009E80FB0060DA2000008040008040EB00D0
:10421000114098001E4FE8001E407800F54F5000F6
:10422000F7FF3600905E80000000E00007003A00D3
:1042300020DA200091C0B3000148780020DC200083
:1042400091C0B3000148780026003700B05E8000BE
:10425000E10F50000E003200E10F50000500390060
:10426000E20F500011003200E30F50001600320040
:104270001C00370020DA200091C0B300014878000C
:1042800020DC200091C0B300014878001500370001
:1042900020DA200051C0B3000148780020DC200063
:1042A00051C0B300014878000E00370020DA20002A
:1042B00011C0B3000148780020DC200011C0B30019
:1042C000014878000700370020DA200011C0B30051
:1042D0000148780020DC200011C0B30001487800BC
:1042E0000000000030DA2000104078000080FB0061
:1042F0000080E8000040780021DA2000914078003A
:104300008180FB000088B9000000780080407800C0
:1043100040DA2000014878001C28EF001E28EF003A
:104320000080FA00000006000000FA004081200032
:104330001100200001087800E05E8000610060004C
:104340000000E000050032004081200041E720002D
:10435000110098001E28EF00050037004081200062
:10436000C10C210011009800E0012000F0408800FD
:104370002342A8000080FA00000006000000FA00B6
:10438000304180000000E800304188003141800069
:1043900030062000808F5000140036002628EF00E1
:1043A000D05F8000E60F500004003200D07580001E
:1043B000610060000000E0000C003A00A0168000E0
:1043C0004E00DE006140600000C0EA006140600015
:1043D0000080FB00610060004E00DD00A11680003F
:1043E00001E0A10001007000A01688000080FA0022
:1043F000000006000000FA0000418000114180002A
:1044000061004000E08048000041880011418800C0
:104410000241800013418000F0342C000100200094
:10442000800F5100818F5900020036002028EF00D4
:104430002228EF000080FA00000006000200FA00C7
:10444000E3000700E0DB200010407800E64F50005A
:1044500004003A0099040700E0DB20008040EB00F4
:104460000148780040812000100078008000EB00B7
:104470009200200003002000820F5000838F58001C
:10448000BF003E0000600100AC00370008003700AC
:104490001000370033003700530037006500370045
:1044A000A6003700700037009E003700A3003700D9
:1044B00040812000100090000000E000A1003A00C0
:1044C000BB01070040812000210020000108780086
:1044D000AB00370090178000610060000000E00032
:1044E00015003A00F422A8009017800061006000D7
:1044F0000000E00004003A0040812000310020006C
:10450000010878009E003700E05E800061006000D6
:104510000000E0008D003A00F422A9004081200054
:1045200081D420001100980040812000110020005B
:104530000108780092003700901780006100600049
:104540000000E000830032004081200081D4200080
:10455000110098004081200011002000010878001F
:1045600087003700905E80000000E00013003A00F2
:104570005117800000022000008060000000E00071
:1045800003003A00EC82A900ED02A8007E000700BB
:10459000200A0700B20107004081200041002000EE
:1045A00001087800408120002103200011009800BC
:1045B000780D02000100000071003700150A0700A5
:1045C000A701070040812000410020000108780079
:1045D000408120002103200011009800780D020086
:1045E00001000000660037005C04020001000000CA
:1045F0008A0D020001000000004F78001E40780084
:10460000E44F500005003A00820D02000100000056
:1046100040812000510020000108780040812000E6
:10462000100090000000E0004C003A001401070068
:104630005300370040812000100090000000E0008F
:1046400048003A00408120007100200001087800F5
:1046500040DA2000104078008080FB00408120007C
:10466000110098004600370060DA20001040780002
:10467000F54F50000C003600111180000010200092
:10468000008060000000E00038003200408120001F
:10469000810020000108780040812000E101200015
:1046A00011009800360037001111800000402000F2
:1046B000008060000000E00001003A002342A800F2
:1046C0001111800000202000008060000000E00048
:1046D0000E003A0060DA2000104078000080FB00F5
:1046E000E8004000E0D92000008040001040900029
:1046F0000080FB002011880060DA20001040780064
:104700008040E80060DA2000014878004081200005
:10471000100090000000E00016003A00D8000700EA
:104720001700370040812000100090000000E000DA
:1047300012003A00D200070011003700000000000C
:104740000F003700000000000D00370000000000DF
:104750000B003700000000000900370000000000D7
:1047600007003700000000000500370000000000CF
:1047700003003700000000000100370000000000C7
:104780000080FA00000006000000FA00101180000E
:10479000640060000000E000010032002242A90035
:1047A00090118000620060000000E0000100320013
:1047B0002222A90010118000680060000000E000C3
:1047C000010032002262A9000080FA000000060009
:1047D0000400FA000000EB00000F78000040EB003E
:1047E00020479800511780000002200000806000E0
:1047F0000000E00001003200E3FF0700101180001C
:10480000610060000000E0005400320030118000C0
:104810002047980020012000006E8800E0DB200087
:10482000104078000080FB00E10F500014003200BF
:10483000E10F500003003C000000E00006003200E1
:1048400046003700E20F50001D003200E30F500019
:104850002B0032004100370070DC2000AE40900099
:104860000148780060DC200011C0B30001487800E6
:10487000E0DB200011C0B3000148780037003700AA
:1048800060DC2000104078008080FB0060DC2000AD
:1048900000804000AE4090001140980060DC200095
:1048A000104078008040E80060DC2000014878007B
:1048B000E0DB200021C0B30001487800270037006A
:1048C00060DC2000104078008080FB0060DC20006D
:1048D00000804000AE4090001140980060DC200055
:1048E000104078008040E80060DC2000014878003B
:1048F000E0DB200031C0B30001487800170037002A
:1049000060DC2000104078008080FB0060DC20002C
:1049100000804000AE4090001140980060DC200014
:10492000104078008040E80060DC200001487800FA
:1049300060DC200010407800F54F50000600360083
:10494000E0DB200041C0B30001487800960D020072
:10495000010000000100370000000000E0DB200043
:1049600010407800E44F50000D003A00400802006B
:1049700001000000A80D020001000000304798006F
:104980003E409000E44F500005003A00A00D0200A8
:1049900001000000E0DB200051C0B30001487800B6
:1049A000E0DB200010407800E54F500021003A0085
:1049B0006101200040002000681E0200010000008C
:1049C000000F78001E0078000000E00015003200A3
:1049D000E0DB200071C0B300014878000076800061
:1049E0006400600000F0A7000000EA000000E90099
:1049F0004F00DE00004078000080FB006100600096
:104A00004200DD00017680000120A100010070005D
:104A100000768800204180000000E80020418800E6
:104A200015003700E0DB200061C0B30001487800CA
:104A300011003700E0DB2000104078000004E000A7
:104A400006003200006E80000000E00003003A0023
:104A5000E0DB20008040EB0001487800E0DB200034
:104A600010407800E74F500003003A00E0DB2000E0
:104A70008040EB00014878000080FA00000006004A
:104A80000200FA000000EB00000F780040812000D7
:104A9000110020000108780040812000B000900043
:104AA0004081200020009000808F500009003600D7
:104AB00040812000B0009000004B200000017800F1
:104AC000110009008280D8008000FD00000F7800EE
:104AD0000300370040812000B0009000010F7800F3
:104AE00040812000200090009E0050004081200066
:104AF00011009800905E80000000E00002003A0083
:104B0000ED02A900EC82A800F422A9000080FA00BE
:104B1000000006000000FA0018FE070035FE07003E
:104B200040812000100090000000E00005003200ED
:104B300040812000100090008000E90040812000AA
:104B4000110098004081200010007800E10F500013
:104B500004003A00408120008000EB003100980002
:104B60000500370040812000300090008000E80000
:104B70004081200031009800006E80000000E000BD
:104B800003003200006E80000000E900006E880023
:104B9000F04080000000E00003003200F0408000A0
:104BA0000000E900F04088000080FA0000000600E4
:104BB0000000FA00E05E8000610060000000E0009C
:104BC0001300320020ED2000104078000004E000C7
:104BD0000500320020ED2000104078008040E90000
:104BE00020ED20000148780030ED200010407800D2
:104BF0000004E0001800320030ED20001040780082
:104C00008040E90030ED20000148780012003700B4
:104C100040ED2000104078000004E0000500320064
:104C200040ED2000104078008040E90040ED200079
:104C30000148780050ED2000104078000004E000AA
:104C40000500320050ED2000104078008040E9005F
:104C500050ED2000014878000080FA0000000600B6
:104C60000200FA000040EB00004F7800D175800090
:104C700000002400008060000000E00002003A0014
:104C80001A00070001003700F9000700101180002A
:104C9000680060000000E000010032002262A9000C
:104CA00010118000620060000000E000010032008E
:104CB0002222A90010118000640060000000E000C2
:104CC0000300320030118000004F78002242A9001A
:104CD00060048000620060000000E000010032001B
:104CE0008C20A9000080FA00000006000800FA00ED
:104CF0000040EB00004F7800805E8000E40F500021
:104D000003003200805E8000E70F500006003A008A
:104D1000E0BC200010407800E440400070DA200041
:104D2000014878000E003700805E8000EB0F5000D5
:104D300006003A00E0BC200010407800E640400049
:104D400070DA20000148780005003700E0BC200040
:104D50001040780080C0E90070DA20000148780037
:104D6000E0BC20009040780080DA20000148780004
:104D700090DA2000A1CAB30001487800805E80006C
:104D800000407800004F78001E0078000050A1001D
:104D9000000F7800E05E8000614060000080FB0052
:104DA000610060004400DD009E0078000140A10029
:104DB00001007000000F78009E407800A0DA20000B
:104DC000014878000040EB00004F7800D07580006B
:104DD0004F00DE00004078000080FB0061006000B2
:104DE0009E0078000100A10001007000000F780013
:104DF000D07580004400DE00614060000080FB0050
:104E000061006000000040009E0078000110A100D9
:104E100001007000000F7800E07580004C00DE009B
:104E2000614060000080FB00610060004200DD0026
:104E30009E0078000120A10001007000000F7800A2
:104E4000E07580004D00DE00614060000080FB00E6
:104E5000610060004300DD009E0078000130A10089
:104E600001007000000F7800F07580004400DE0043
:104E7000614060000080FB00610060004400DD00D4
:104E80009E0078000140A10001007000000F780032
:104E9000F07580004500DE00614060000080FB008E
:104EA000610060004500DD009E0078000150A10017
:104EB00001007000000F7800D07580004400DE0013
:104EC000614060000080FB00610060004600DD0082
:104ED0009E0078000160A10001007000000F7800C2
:104EE0009E407800B0DA2000014878000040EB00D6
:104EF000004F7800D0758000614060000080FB00AA
:104F0000610060009E0078000100A10001007000B7
:104F1000000F7800E07580004700DE00614060000F
:104F20000080FB0061006000000040009E007800EF
:104F30000110A10001007000000F7800D075800002
:104F40004500DE00614060000080FB006100600001
:104F50004200DD009E0078000120A10001007000E9
:104F6000000F7800D07580004600DE0061406000D0
:104F70000080FB00610060004300DD009E007800BF
:104F80000130A10001007000000F7800E05E800099
:104F9000620060000000E000030032001E007800A4
:104FA0000040A000000F78009E407800C0DA20008A
:104FB000014878004E9F0200000000002007980082
:104FC00031079800FE409000D0DA200001487800B8
:104FD000EE409000E0DA200001487800DE409000CA
:104FE000F0DA200001487800CE40900000DB20007D
:104FF0000148780050DB20008040EB000148780039
:1050000060DB20008040EB000148780070DB20006E
:105010008040EB000148780080DB20008040EB00FE
:10502000014878002101200050002000681E020085
:105030000100000010079800AE40900090DB2000B7
:1050400001487800BE409000A0DB200001487800B5
:1050500030DA200061C1B3000148780060DA200036
:105060008040EB00014878000080FA000000060054
:105070000C00FA000040EB00004F7800805E8000DA
:10508000E40F500003003200805E8000E70F500004
:1050900006003A00E0BC200010407800E4404000E8
:1050A00070DA2000014878000E003700805E800032
:1050B000EB0F500006003A00E0BC200010407800E2
:1050C000E640400070DA2000014878000500370013
:1050D000E0BC20001040780080C0E90070DA2000B9
:1050E00001487800E0BC20009040780080DA200081
:1050F0000148780090DA200051C5B30001487800DB
:105100000040EB00004F7800805E80000040780097
:10511000004F78001E0078000050A100000F7800BA
:10512000E05E8000614060000080FB006100600084
:105130004400DD009E0078000140A10001007000E5
:10514000000F78009E407800A0DA20000148780027
:105150000040EB00004F7800D07580004F00DE006B
:10516000004078000080FB00610060009E00780035
:105170000100A10001007000000F7800D0758000D0
:105180004400DE00614060000080FB0061006000C0
:10519000000040009E0078000110A1000100700096
:1051A000000F7800E07580004C00DE006140600078
:1051B0000080FB00610060004200DD009E0078007E
:1051C0000120A10001007000000F7800E075800050
:1051D0004D00DE00614060000080FB006100600067
:1051E0004300DD009E0078000130A1000100700046
:1051F000000F7800F07580004400DE006140600020
:105200000080FB00610060004400DD009E0078002B
:105210000140A10001007000000F7800F0758000CF
:105220004500DE00614060000080FB00610060001E
:105230004500DD009E0078000150A10001007000D3
:10524000000F78009C7802000000000020479800C2
:105250001E009000614060000080FB006100600063
:105260004600DD009E0078000160A1000100700092
:10527000000F78001E0090000000D1006140600027
:105280000080FB00610060004700DD009E007800A8
:105290000170A10001007000000F78009E407800AE
:1052A000B0DA2000014878000040EB00004F7800A1
:1052B000D0758000614060000080FB0061006000EC
:1052C0009E0078000100A10001007000000F78002E
:1052D000E07580004700DE00614060000080FB0058
:1052E00061006000000040009E0078000110A100F5
:1052F00001007000000F7800D07580004500DE00CE
:10530000614060000080FB00610060004200DD0041
:105310009E0078000120A10001007000000F7800BD
:10532000D07580004600DE00614060000080FB0018
:10533000610060004300DD009E0078000130A100A4
:1053400001007000000F7800E05E800062006000E5
:105350000000E00035003200805E8000E40F500065
:1053600006003200805E8000E50F5000030032002E
:10537000805E8000E60F50000B003A005ACF02001A
:1053800000000000614060000080FB0061006000E0
:105390004400DD009E0078000140A1000100700083
:1053A000000F780021003700805E8000EB0F500076
:1053B00009003200805E8000EC0F500006003200D1
:1053C000805E8000ED0F500003003200805E8000A0
:1053D000EE0F50000B003A0062890200000000004E
:1053E000614060000080FB00610060004400DD005F
:1053F0009E0078000140A10001007000000F7800BD
:105400000A003700BC160200010000006140600085
:105410000080FB00610060004400DD009E00780019
:105420000140A10001007000000F7800D0758000DD
:105430004E00DE00614060000080FB006100600003
:105440004500DD009E0078000150A10001007000C1
:10545000000F78009E407800C0DA200001487800F4
:10546000B07802000000000020079800B878020021
:105470000000000030079800CE409000D0DA2000F5
:1054800001487800DE409000E0DA20000148780012
:10549000EE409000F0DA200001487800FE409000D5
:1054A00000DB2000014878008C780200000000003A
:1054B000400798008E48900010DB200001487800DB
:1054C0009E48900020DB20000148780030DB20005F
:1054D0008040EB000148780040DB20008040EB007A
:1054E0000148780050DB20008040EB000148780044
:1054F00060DB20008040EB000148780070DB20007A
:105500008040EB000148780080DB20008040EB0009
:105510000148780090DB20008040EB0001487800D3
:10552000A0DB20008040EB0001487800805E800016
:10553000EB0F500009003200EB0F50004B00390018
:10554000ED0F500027003200ED0F5000140039001D
:10555000EE0F50003400320045003700805B8000C1
:1055600020079800605B800030079800CE409000D4
:1055700030DB200001487800DE40900040DB200056
:1055800001487800EE40900050DB20000148780090
:10559000FE40900060DB20000148780034003700B6
:1055A000C05B800020079800A05B80003007980057
:1055B000CE40900030DB200001487800DE409000B3
:1055C00040DB200001487800EE40900050DB2000D6
:1055D00001487800FE40900060DB20000148780020
:1055E00023003700005C800020079800E05B80000B
:1055F00030079800CE40900030DB20000148780052
:10560000DE40900040DB200001487800EE40900032
:1056100050DB200001487800FE40900060DB200055
:105620000148780012003700405B80002007980096
:10563000205B800030079800CE40900030DB2000D7
:1056400001487800DE40900040DB200001487800EF
:10565000EE40900050DB200001487800FE409000B2
:1056600060DB2000014878000100370000000000E6
:105670004101200050002000681E020001000000CF
:1056800050079800AE489000B0DB20000148780039
:10569000BE489000C0DB20000148780030DA2000CE
:1056A00061C1B3000148780060DA20008040EB005F
:1056B000014878000080FA00000006000200FA00AD
:1056C00090DC2000104F780050C5B3009E40780059
:1056D00080CF500001003A00A7000700A0CAB30025
:1056E0009E40780080CF500001003A000200070081
:1056F0000080FA00000006000A00FA00A0DC20008A
:10570000104078004047980080DC2000104078006E
:10571000004F780070DC200010407800204798008F
:10572000B0DC20001040780060479800C0DC20000A
:1057300010407800004F9800E0BC200090407800B6
:105740002E40900080CF50000B00320080BD200022
:10575000904078002E40900080CF5000060032002C
:10576000EC95020000000000A0C0B3003A1802004F
:10577000010000007E0037001E4078000004E000B9
:1057800007003A007808A800EC950200000000002D
:10579000A0C0B3003A1802000100000074003700F6
:1057A000AE4090001E40780080CF500007003A00C5
:1057B0007808A800EC95020000000000A0C0B3002B
:1057C0003A1802000100000069003700AE009000A6
:1057D00000022000008060000000E00007003A00A6
:1057E0007808A800EC95020000000000A0C0B300FB
:1057F0003A180200010000005D003700E05E800002
:10580000620060000000E0000B0032004E009000DB
:10581000700060000000E00007003A007808A8006F
:10582000EC95020000000000A0C0B3003A1802008E
:10583000010000004E003700BE0090002E009000D6
:1058400034690200000000004E00900096670200DC
:10585000000000001E00780040040700BE00900019
:105860001E007800640407004E0090006200600093
:105870000000E00004003A007808A8006000200062
:10588000E05F8800010037007808A900BE009000A2
:1058900000042000008060000000E00003003200EF
:1058A000F657020000000000020037001000200040
:1058B000E05F88002E009000700060000000E000B3
:1058C000160032003E0090000000D10061406000F0
:1058D0005857020000000000D0DC20009040780003
:1058E00090BE200001487800E0DC20009040780065
:1058F00080BE200001487800F0DC20009040780055
:1059000070BE20000148780000DD20009040780043
:1059100060BE200001487800150037003E0090006E
:105920000000D100614060007257020000000000DA
:10593000D0DC200090407800D0BE200001487800E4
:10594000E0DC200090407800C0BE200001487800D4
:10595000F0DC200090407800B0BE200001487800C4
:1059600000DD200090407800A0BE200001487800B3
:105970000080FA00000006001800FA000040EB006A
:10598000004F7800A0DC20001040780020579800DD
:1059900080DC200010407800404F980070DC200030
:1059A00010407800604F9800B0DC20001040780074
:1059B00040579800C0DC20001040780060579800E5
:1059C000E0BC2000904078006E48900080CF5000EE
:1059D0000500320080BD2000904078006E489000A5
:1059E00080CF50004E033A004E4890000004E00083
:1059F0004D033200EE4890004E48900080CF50009A
:105A00004B0332009E0890000002200000806000DE
:105A10000000E000480332006E009000CF03070052
:105A2000AE0890006E009000F30307002E0890006F
:105A3000620060000000E00008003200805E80002C
:105A4000E30F500003003600805E8000E60F500038
:105A500002003600F657020000000000F05F8000F0
:105A6000620060000000E0000D003A00BE089000F7
:105A700000022000008060000000E000080032000A
:105A8000805E8000E30F500003003600805E8000DF
:105A9000E60F50000200360014580200000000001B
:105AA0003E089000620060000000E00008003A003C
:105AB000805E8000E30F500003003600805E8000AF
:105AC000E60F50000200360060002000E05F880012
:105AD000805E8000E40F500006003200805E80008F
