:1000000000020400000000000000000000000000EA
:1000100000000000000000000000000000000000E0
:1000200000000000000000000000000000000000D0
:1000300000000000000000000000000000000000C0
:1000400000000000000000000000000000000000B0
:1000500000000000000000000000000000000000A0
:100060000000000000000000000000000000000090
:100070000000000000000000000000000000000080
:100080000000000000000000000000000000000070
:100090000000000000000000000000000000000060
:1000A0000000000000000000000000000000000050
:1000B0000000000000000000000000000000000040
:1000C0000000000000000000000000000000000030
:1000D0000000000000000000000000000000000020
:1000E0000000000000000000000000000000000010
:1000F0000000000000000000000000000000000000
:1001000000000000000000000000000000000000EF
:1001100000000000000000000000000000000000DF
:1001200000000000000000000000000000000000CF
:1001300000000000000000000000000000000000BF
:1001400000000000000000000000000000000000AF
:10015000000000000000000000000000000000009F
:10016000000000000000000000000000000000008F
:10017000000000000000000000000000000000007F
:10018000000000000000000000000000000000006F
:10019000000000000000000000000000000000005F
:1001A000000000000000000000000000000000004F
:1001B000000000000000000000000000000000003F
:1001C000000000000000000000000000000000002F
:1001D000000000000000000000000000000000001F
:1001E000000000000000000000000000000000000F
:1001F00000000000000000000000000000000000FF
:10020000FFFFFF00FFFFFF000000000000000000F4
:1002100000000000000000000000000000000000DE
:1002200000000000000000000000000000000000CE
:1002300000000000000000000000000000000000BE
:1002400000000000000000000000000000000000AE
:10025000000000000000000000000000000000009E
:10026000000000000000000000000000000000008E
:10027000000000000000000000000000000000007E
:10028000000000000000000000000000000000006E
:10029000000000000000000000000000000000005E
:1002A000000000000000000000000000000000004E
:1002B000000000000000000000000000000000003E
:1002C000000000000000000000000000000000002E
:1002D000000000000000000000000000000000001E
:1002E000000000000000000000000000000000000E
:1002F00000000000000000000000000000000000FE
:1003000000000000000000000000000000000000ED
:1003100000000000000000000000000000000000DD
:1003200000000000000000000000000000000000CD
:1003300000000000000000000000000000000000BD
:1003400000000000000000000000000000000000AD
:10035000000000000000000000000000000000009D
:10036000000000000000000000000000000000008D
:10037000000000000000000000000000000000007D
:10038000000000000000000000000000000000006D
:10039000000000000000000000000000000000005D
:1003A000000000000000000000000000000000004D
:1003B000000000000000000000000000000000003D
:1003C000000000000000000000000000000000002D
:1003D000000000000000000000000000000000001D
:1003E000000000000000000000000000000000000D
:1003F00000000000000000000000000000000000FD
:10040000EFF620000EFF27000E018800000000001C
:10041000000020000000E000020032000001200087
:100420002002880014000700770007000000E000A9
:1004300003003A00002722001100200002003700CC
:100440000000200001002000810F70000100320038
:1004500014000700000020000000E000020032004D
:1004600000000200000000003A4F020000000000FF
:100470000040DA000000FE004440A900E05A2000DD
:100480000000E000030032000020200090018800FE
:100490004440A800000006008A1F78008B1F7800E7
:1004A00000000600A1028800800478000000EB0034
:1004B0001F003700E284440054A0B4009905BA003C
:1004C000E284440054A0B4009906BA00E2844400D7
:1004D00054A0B4000006EB00476FDE00FD07B20039
:1004E000AE018800636CE10003003A00EAFF0700F8
:1004F0000000EB000E003700606CE10008003A00DD
:10050000004DEB000A05E800020039003420EC0041
:100510000AF0A0008B05E900F9FF3E000400370057
:100520006168E100010032000086EB000B0007006B
:1005300019C7BA001905BA000E04E00003003A001A
:100540000A00E000DBFF3A0000000600FE07B200F0
:10055000AE0288008A047800F5FF37000CD0A300B3
:10056000E20F4D001C00390089027800354DBA00B9
:100570000A05E800020039003420EC000AF0A0006F
:100580008B05E9000F003200254DBA000A05E8008E
:10059000020039003420EC000AF0A0008B05E900CD
:1005A000080032000C00E0000600320015CDBA0051
:1005B0000A05E800020039003420EC000AF0A0002F
:1005C0008B05E9008984E80054A0B4000B00E0002A
:1005D000E2FF3A00000006009902BA00055D7800CB
:1005E0008B05E900F7FF3200C82ADE00055D7800C0
:1005F0008B05E900F3FF32000C00E000F1FF320050
:1006000019DDBA00EEFF3700000005005400F800C5
:10061000A10288008002780062004000E08048006B
:100620003549BA003204E0000410A700100032007F
:100630008301E9000E0032002549BA003204E000CF
:100640000410A7000A0032008301E900080032000C
:100650000408A300EEFF320015C9BA003204E0001E
:100660000410A700020032008301E900E8FF3A000D
:100670005400F900000006008000EB00F07A8800CA
:10068000017B880011C0B300C0F52000014878004C
:1006900000000600C0F520001004E00002003A004F
:1006A00010002000F4FF0700D2E62400631C2400A1
:1006B000F07A8000017B800009000700920323008C
:1006C000030020000001410081814900F27A880086
:1006D000037B88000300780000F0A1000000060002
:1006E000020AB900001BB9000200B80081004200F4
:1006F000810043000000060000010000020300002A
:100700000405000006070000080900000A0B0000AD
:100710000C0D00000E0F0000131100001D7F0000E3
:10072000E39400004A170000F3070000A78B0000C5
:100730004D2B000030C50000637C0000777B00007B
:10074000F26B00006FC5000030010000672B000055
:10075000FED70000AB760000CA820000C97D000011
:10076000FA59000047F00000ADD40000A2AF00002D
:100770009CA4000072C00000B7FD0000932600009A
:10078000363F0000F7CC000034A50000E5F1000082
:1007900071D800003115000004C7000023C3000019
:1007A00018960000059A00000712000080E2000081
:1007B000EB270000B2750000098300002C1A00002E
:1007C0001B6E00005AA00000523B0000D6B3000090
:1007D00029E300002F84000053D1000000ED000049
:1007E00020FC0000B15B00006ACB0000BE390000B5
:1007F0004A4C000058CF0000D0EF0000AAFB0000D8
:10080000434D00003385000045F90000027F0000E1
:10081000503C00009FA8000051A30000408F000042
:10082000929D000038F50000BCB60000DA210000FF
:1008300010FF0000F3D20000CD0C000013EC00000C
:100840005F97000044170000C4A700007E3D000031
:10085000645D000019730000608100004FDC00003F
:10086000222A00009088000046EE0000B814000024
:10087000DE5E00000BDB0000E03200003A0A000000
:1008800049060000245C0000C2D30000AC620000F6
:1008900091950000E4790000E7C80000376D000082
:1008A0008DD500004EA900006C560000F4EA00004F
:1008B000657A0000AE080000BA780000252E00001E
:1008C0001CA60000B4C60000E8DD0000741F000094
:1008D0004BBD00008B8A0000703E0000B566000032
:1008E00048030000F60E00006135000057B9000013
:1008F00086C100001D9E0000E1F800009811000074
:1009000069D900008E9400009B1E000087E900005A
:10091000CE55000028DF00008CA10000890D0000EA
:10092000BFE6000042680000419900002D0F000062
:10093000B0540000BB160000520900006AD5000048
:1009400030360000A5380000BF400000A39E000024
:1009500081F30000D7FB00007CE300003982000037
:100960009B2F0000FF870000348E000043440000EE
:10097000C4DE0000E9CB0000547B0000943200008C
:10098000A6C20000233D0000EE4C0000950B0000C5
:1009900042FA0000C34E0000082E0000A1660000CD
:1009A00028D9000024B20000765B0000A2490000B4
:1009B0006D8B0000D125000072F80000F664000085
:1009C0008668000098160000D4A400005CCC0000EB
:1009D0005D650000B69200006C7000004850000099
:1009E000FDED0000B9DA00005E150000465700007A
:1009F000A78D00009D84000090D80000AB0000008F
:100A00008CBC0000D30A0000F7E400005805000089
:100A1000B8B3000045060000D02C00001E8F000077
:100A2000CA3F00000F020000C1AF0000BD0300007C
:100A3000011300008A6B00003A9100001141000090
:100A40004F670000DCEA000097F20000CFCE000004
:100A5000F0B40000E673000096AC000074220000C1
:100A6000E7AD000035850000E2F9000037E800003E
:100A70001C750000DF6E000047F100001A710000D5
:100A80001D290000C58900006FB70000620E00003C
:100A9000AA180000BE1B0000FC5600003E4B0000E0
:100AA000C6D20000792000009ADB0000C0FE0000E2
:100AB00078CD00005AF400001FDD0000A8330000CC
:100AC00088070000C7310000B11200001059000073
:100AD00027800000EC5F0000605100007FA900004B
:100AE00019B500004A0D00002DE500007A9F0000B6
:100AF00093C900009CEF0000A0E000003B4D000007
:100B0000AE2A0000F5B00000C8EB0000BB3C0000BE
:100B10008353000099610000172B0000047E000041
:100B2000BA770000D6260000E169000014630000D7
:100B3000552100000C7D00000002000004060000AA
:100B4000080A00000C0E000010120000141600002D
:100B5000181A00001C1E000020220000242600009D
:100B6000282A00002C2E000030320000343600000D
:100B7000383A00003C3E000040420000444600007D
:100B8000484A00004C4E00005052000054560000ED
:100B9000585A00005C5E000060620000646600005D
:100BA000686A00006C6E00007072000074760000CD
:100BB000787A00007C7E000080820000848600003D
:100BC000888A00008C8E00009092000094960000AD
:100BD000989A00009C9E0000A0A20000A4A600001D
:100BE000A8AA0000ACAE0000B0B20000B4B600008D
:100BF000B8BA0000BCBE0000C0C20000C4C60000FD
:100C0000C8CA0000CCCE0000D0D20000D4D600006C
:100C1000D8DA0000DCDE0000E0E20000E4E60000DC
:100C2000E8EA0000ECEE0000F0F20000F4F600004C
:100C3000F8FA0000FCFE00001B1900001F1D000058
:100C400013110000171500000B0900000F0D000024
:100C500003010000070500003B3900003F3D000094
:100C600033310000373500002B2900002F2D000004
:100C700023210000272500005B5900005F5D000074
:100C800053510000575500004B4900004F4D0000E4
:100C900043410000474500007B7900007F7D000054
:100CA00073710000777500006B6900006F6D0000C4
:100CB00063610000676500009B9900009F9D000034
:100CC00093910000979500008B8900008F8D0000A4
:100CD0008381000087850000BBB90000BFBD000014
:100CE000B3B10000B7B50000ABA90000AFAD000084
:100CF000A3A10000A7A50000DBD90000DFDD0000F4
:100D0000D3D10000D7D50000CBC90000CFCD000063
:100D1000C3C10000C7C50000FBF90000FFFD0000D3
:100D2000F3F10000F7F50000EBE90000EFED000043
:100D3000E3E10000E7E5000000040000080C00000B
:100D400010140000181C000020240000282C0000B3
:100D500030340000383C000040440000484C0000A3
:100D600050540000585C000060640000686C000093
:100D700070740000787C000080840000888C000083
:100D800090940000989C0000A0A40000A8AC000073
:100D9000B0B40000B8BC0000C0C40000C8CC000063
:100DA000D0D40000D8DC0000E0E40000E8EC000053
:100DB000F0F40000F8FC00001B1F000013170000F7
:100DC0000B0F0000030700003B3F0000333700001B
:100DD0002B2F0000232700005B5F0000535700000B
:100DE0004B4F0000434700007B7F000073770000FB
:100DF0006B6F0000636700009B9F000093970000EB
:100E00008B8F000083870000BBBF0000B3B70000DA
:100E1000ABAF0000A3A70000DBDF0000D3D70000CA
:100E2000CBCF0000C3C70000FBFF0000F3F70000BA
:100E3000EBEF0000E3E70000363200003E3A00002E
:100E4000262200002E2A0000161200001E1A0000A2
:100E5000060200000E0A0000767200007E7A000092
:100E6000666200006E6A0000565200005E5A000082
:100E7000464200004E4A0000B6B20000BEBA000072
:100E8000A6A20000AEAA0000969200009E9A000062
:100E9000868200008E8A0000F6F20000FEFA000052
:100EA000E6E20000EEEA0000D6D20000DEDA000042
:100EB000C6C20000CECA00002D2900002521000076
:100EC0003D390000353100000D090000050100002A
:100ED0001D190000151100006D690000656100001A
:100EE0007D790000757100004D490000454100000A
:100EF0005D59000055510000ADA90000A5A10000FA
:100F0000BDB90000B5B100008D89000085810000E9
:100F10009D99000095910000EDE90000E5E10000D9
:100F2000FDF90000F5F10000CDC90000C5C10000C9
:100F3000DDD90000D5D10000000800001018000025
:100F400020280000303800004048000050580000C1
:100F500060680000707800008088000090980000B1
:100F6000A0A80000B0B80000C0C80000D0D80000A1
:100F7000E0E80000F0F800001B1300000B03000085
:100F80003B3300002B2300005B5300004B43000069
:100F90007B7300006B6300009B9300008B83000059
:100FA000BBB30000ABA30000DBD30000CBC3000049
:100FB000FBF30000EBE30000363E0000262E0000AD
:100FC000161E0000060E0000767E0000666E000011
:100FD000565E0000464E0000B6BE0000A6AE000001
:100FE000969E0000868E0000F6FE0000E6EE0000F1
:100FF000D6DE0000C6CE00002D2500003D350000E5
:101000000D0500001D1500006D6500007D750000D8
:101010004D4500005D550000ADA50000BDB50000C8
:101020008D8500009D950000EDE50000FDF50000B8
:10103000CDC50000DDD500006C6400007C740000AC
:101040004C4400005C5400002C2400003C340000A0
:101050000C0400001C140000ECE40000FCF4000090
:10106000CCC40000DCD40000ACA40000BCB4000080
:101070008C8400009C940000777F0000676F000064
:10108000575F0000474F0000373F0000272F000048
:10109000171F0000070F0000F7FF0000E7EF000038
:1010A000D7DF0000C7CF0000B7BF0000A7AF000028
:1010B000979F0000878F00005A5200004A420000AC
:1010C0007A7200006A6200001A1200000A02000030
:1010D0003A3200002A220000DAD20000CAC2000020
:1010E000FAF20000EAE200009A9200008A82000010
:1010F000BAB20000AAA20000414900005159000004
:1011000061690000717900000109000011190000F7
:101110002129000031390000C1C90000D1D90000E7
:10112000E1E90000F1F900008189000091990000D7
:10113000A1A90000B1B900000000000009000000F2
:101140000000000008000000010200000000000094
:10115000000C000000030000040A00000000000072
:101160000A00000000000000050000000008000068
:101170000000000000000000060000000800000061
:10118000000000000000000007080000000B000045
:10119000090000000000000008000000010200003B
:1011A00005060000070800000A0100000500000015
:1011B000020100000500000002040000030000001E
:1011C000020A000003000000020400000A00000000
:1011D00006010000050000000607000008000000EE
:1011E000060700000A000000060A000008000000D0
:1011F00009090000090000000A0A00000A0A0000AC
:10120000D8D00000E0C00000D0D00000D0C0000066
:10121000C0E80000E8D00000D0D00000D0000000FE
:10122000010100000204000008100000204000003E
:101230008000000058020000320000003200000070
:10124000580200003200000058020000580200005E
:10125000320000000000FA00F06380000000E000AF
:1012600003003A0040D02000C0118800160037006B
:1012700000648000E10F50000A003200E10F5000CE
:1012800005003900E20F500009003200E30F500062
:101290000A0032000C00370040D02000C011880046
:1012A0000900370010682000C011880006003700D0
:1012B000F0192000C011880003003700F00C200056
:1012C000C011880000000000E9A2A900D9C2A8004E
:1012D000113A8000F00B20000081600060042000C3
:1012E000710520002374200080497800814978002E
:1012F000824978003135800000FC2F00808060003A
:10130000B00220000100700030358800F136800006
:10131000F00F2C0080806000005020000100700061
:10132000F0368800103A8000000178000260A000CA
:10133000600420007105200023742000804978009B
:1013400081497800824978003022EF003222EF0094
:101350003162A8003062A8009C40A90097C0A90093
:1013600097E0A9008C40A90087C0A90087E0A900E8
:1013700031E2A8000080FA00000006000200FA0036
:1013800080E020008040EB000148780000E1200070
:101390008040EB0001487800D0E0200061C1B3003C
:1013A0000148780080E220008040EB00014878008E
:1013B00000E320008040EB00014878000000EB00D3
:1013C00050718800F0E220008040EB000148780076
:1013D000D0E2200061C1B300014878000080200005
:1013E0008000EB0001087800EC22A90000802000BA
:1013F000014B2000210098000040EB00004F7800D6
:10140000060037009E80FB0000E1200000804000C5
:101410008040EB00114098001E4FE8001E4078000D
:10142000F54F5000F7FF3600F06380000000E00049
:1014300007003A00C0E0200091C0B30001487800E6
:10144000C0E2200091C0B3000148780026003700B8
:1014500000648000E10F50000E003200E10F5000E8
:1014600005003900E20F500011003200E30F500078
:10147000160032001C003700C0E0200091C0B3000D
:1014800001487800C0E2200091C0B3000148780014
:1014900015003700C0E0200051C0B30001487800BB
:1014A000C0E2200051C0B300014878000E003700B0
:1014B000C0E0200011C0B30001487800C0E2200065
:1014C00011C0B3000148780007003700C0E02000D9
:1014D00011C0B30001487800C0E2200011C0B30081
:1014E0000148780000000000D0E0200010407800A3
:1014F0000080FB000080E80000407800C1E0200090
:10150000914078008180FB000088B90000007800DD
:1015100080407800E0E02000014878000828EF00D3
:101520000A28EF000080FA00000006000000FA0020
:101530000080200011002000010878003064800045
:10154000610060000000E000050032000080200023
:1015500081D42000110098000A28EF000500370010
:101560000080200001FA200011009800E001200016
:10157000504088003342A8000080FA0000000600B6
:101580000000FA00904080000000E80090408800D1
:101590009140800030062000808F500014003600FB
:1015A0001228EF00F0648000E60F500004003200C3
:1015B000707A8000610060000000E0000C003A00DA
:1015C000E01680004400DE006140600000C0EA00D8
:1015D000614060000080FB00610060004400DD00AD
:1015E000E11680000140A10001007000E0168800B3
:1015F0000080FA00000006000000FA006040800051
:101600007140800061004000E08048006040880038
:10161000714088006240800073408000F0342C00EC
:1016200001002000800F5100818F59000200360018
:101630000C28EF000E28EF000080FA0000000600E2
:101640000200FA000201070080E22000104078004A
:10165000E64F500004003A009504070080E22000A5
:101660008040EB00014878000080200010007800E6
:101670008000EB009200200003002000820F500049
:10168000838F5800B9003E0000600100A6003700BB
:1016900008003700100037003300370053003700D0
:1016A00065003700A0003700700037009800370051
:1016B0009D00370000802000100090000000E00036
:1016C0009B003A00B50107000080200021002000A7
:1016D00001087800A5003700501780006100600005
:1016E0000000E00015003A00EC22A800501780002E
:1016F000610060000000E00004003A00008020006B
:101700003100200001087800980037003064800024
:10171000610060000000E00087003A00EC22A900B0
:101720000080200081D4200011009800008020005B
:1017300011002000010878008C003700501780004D
:10174000610060000000E0007D00320000802000A9
:1017500081D420001100980000802000110020009A
:101760000108780081003700F06380000000E0008D
:1017700013003A0011178000002020000080600054
:101780000000E00003003A00C5C2A800E502A9007D
:101790009D0007006E0A0700AC01070000802000D2
:1017A0004100200001087800008020002103200073
:1017B00011009800B80C0200010000006B00370017
:1017C000630A0700A10107000080200041002000FB
:1017D00001087800008020002103200011009800FB
:1017E000B80C020001000000600037008C0302000A
:1017F00001000000CA0C020001000000004F780048
:101800001E407800E44F500005003A00C20C020070
:101810000100000000802000510020000108780035
:1018200000802000100090000000E00046003A0018
:10183000500007004D00370000802000100090008D
:101840000000E00042003A0000802000710020000B
:1018500001087800E0E02000104078008080FB0064
:1018600000802000110098004000370000E12000B7
:1018700010407800F54F50000C00360091118000A8
:1018800000102000008060000000E0003200320004
:1018900000802000810020000108780000802000E6
:1018A000E101200011009800300037009111800004
:1018B00000202000008060000000E0000E003A00E0
:1018C00000E12000104078000080FB00E8004000AC
:1018D00080E0200000804000104090000080FB006D
:1018E000A011880000E12000104078008040E8004E
:1018F00000E12000014878000080200010009000E6
:101900000000E00016003A001A0007001700370038
:1019100000802000100090000000E00012003A005B
:101920001400070011003700000000000F0037000E
:10193000000000000D003700000000000B00370021
:101940000000000009003700000000000700370019
:101950000000000005003700000000000300370011
:101960000000000001003700000000000080FA00C5
:10197000000006000200FA000000EB00000F7800F3
:101980000080200011002000010878000080200065
:10199000B00090000080200020009000808F500058
:1019A0000900360000802000B0009000004B2000AD
:1019B00000017800110009008280D8008000FD003D
:1019C000000F78000300370000802000B000900076
:1019D000010F780000802000200090009E00500041
:1019E0000080200011009800F06380000000E000FB
:1019F00002003A00C5C2A900E502A800EC22A90035
:101A00000080FA00000006000000FA00901180003B
:101A1000640060000000E000010032003242A900D2
:101A200090118000620060000000E00001003200C0
:101A30003222A90090118000680060000000E000E0
:101A4000010032003262A9000080FA0000000600A6
:101A50000400FA000000EB00000F78000040EB00EB
:101A600020479800111780000020200000806000AF
:101A70000000E00001003200E3FF07009011800049
:101A8000610060000000E00054003200B0118000EE
:101A900020479800200120005071880080E220003B
:101AA000104078000080FB00E10F5000140032006D
:101AB000E10F500003003C000000E000060032008F
:101AC00046003700E20F50001D003200E30F5000C7
:101AD0002B0032004100370010E32000AE409000A0
:101AE0000148780000E3200011C0B30001487800ED
:101AF00080E2200011C0B3000148780037003700B1
:101B000000E32000104078008080FB0000E320000C
:101B100000804000AE4090001140980000E320009B
:101B2000104078008040E80000E320000148780081
:101B300080E2200021C0B300014878002700370070
:101B400000E32000104078008080FB0000E32000CC
:101B500000804000AE4090001140980000E320005B
:101B6000104078008040E80000E320000148780041
:101B700080E2200031C0B300014878001700370030
:101B800000E32000104078008080FB0000E320008C
:101B900000804000AE4090001140980000E320001B
:101BA000104078008040E80000E320000148780001
:101BB00000E3200010407800F54F5000060036008A
:101BC00080E2200041C0B30001487800D60C02003A
:101BD00001000000010037000000000080E220004A
:101BE00010407800E44F50000D003A0078070200E2
:101BF00001000000E80C02000100000030479800DE
:101C00003E409000E44F500005003A00E00C020016
:101C10000100000080E2200051C0B30001487800BC
:101C200080E2200010407800E54F500021003A008B
:101C3000610120000000EB000E27020001000000FF
:101C4000000F78001E0078000000E0001500320050
:101C500080E2200071C0B30001487800A07A8000C3
:101C60006800600000F0A7000000EA000000E90042
:101C70004F00DE00004078000080FB006100600043
:101C80004300DD00A17A80000130A1000100700056
:101C9000A07A8800804080000000E8008040880032
:101CA0001500370080E2200061C0B30001487800D1
:101CB0001100370080E22000104078000004E000AE
:101CC00006003200507180000000E00003003A007E
:101CD00080E220008040EB000148780080E2200094
:101CE00010407800E74F500003003A0080E22000E7
:101CF0008040EB00014878000080FA0000000600F8
:101D00000000FA001EFE07003BFE070000802000D6
:101D1000100090000000E00005003200008020006C
:101D2000100090008000E900008020001100980061
:101D30000080200010007800E10F500004003A00FD
:101D4000008020008000EB00310098000500370083
:101D500000802000300090008000E800008020001B
:101D600031009800507180000000E0000300320054
:101D7000507180000000E9005071880050408000E0
:101D80000000E00003003200504080000000E90045
:101D9000504088000080FA00000006000000FA00B1
:101DA00030648000610060000000E0001300320039
:101DB00020F62000104078000004E000050032000A
:101DC00020F62000104078008040E90020F6200036
:101DD0000148780030F62000104078000004E00050
:101DE0001800320030F62000104078008040E900F2
:101DF00030F62000014878001200370040F620003D
:101E0000104078000004E0000500320040F6200099
:101E1000104078008040E90040F62000014878003A
:101E200050F62000104078000004E0000500320069
:101E300050F62000104078008040E90050F6200065
:101E4000014878000080FA00000006000200FA0055
:101E50000040EB00004F7800A17A800000042000D1
:101E6000008060000000E00002003A001A00070055
:101E700001003700FB000700901180006200600045
:101E80000000E000010032003222A9009011800021
:101E9000640060000000E00003003200B011800028
:101EA000004F78003242A900901180006800600065
:101EB0000000E000010032003262A90060048000EE
:101EC000640060000000E000010032008C40A900C6
:101ED0000080FA00000006000800FA000040EB0055
:101EE000004F7800D0638000EE0F500006003A00EB
:101EF00080C7200010407800E640500010E120002C
:101F00000148780011003700D0638000E60F5000D0
:101F100003003200D0638000E80F500006003A0052
:101F200080C7200010407800E440500010E12000FD
:101F3000014878000500370080C720001040780075
:101F400080C0E80010E120000148780080C7200030
:101F50009040780020E120000148780030E1200026
:101F6000A1CAB300014878000040EB00004F7800A0
:101F7000D063800000407800004F78001E00780099
:101F80000050A000000F78003064800061406000C5
:101F90000080FB00610060004400DD009E007800CE
:101FA0000140A10001007000000F78009E40780001
:101FB00040E12000014878000040EB00004F78002D
:101FC000707A80004F00DE00004078000080FB0047
:101FD000610060009E0078000100A1000100700017
:101FE000000F7800707A80004700DE0061406000DA
:101FF0000080FB0061006000000040009E0078004F
:102000000110A10001007000000F7800807A8000AC
:102010004E00DE00614060000080FB006100600057
:102020004200DD009E0078000120A1000100700048
:10203000000F7800807A80004F00DE0000407800BA
:102040000080FB00610060004300DD009E0078001E
:102050000130A10001007000000F7800907A80002C
:102060004600DE00614060000080FB00610060000F
:102070004400DD009E0078000140A10001007000D6
:10208000000F7800907A80004700DE006140600019
:102090000080FB00610060004500DD009E007800CC
:1020A0000150A10001007000000F7800707A8000DC
:1020B0004700DE00614060000080FB0061006000BE
:1020C0004600DD009E0078000160A1000100700064
:1020D000000F78009E40780050E120000148780011
:1020E0000040EB00004F7800707A80006140600093
:1020F0000080FB00610060009E0078000100A100EC
:1021000001007000000F7800807A80004600DE0039
:10211000614060000080FB00610060000000400042
:102120009E0078000110A10001007000000F7800EF
:10213000707A80004500DE00614060000080FB0096
:10214000610060004200DD009E0078000120A100D7
:1021500001007000000F7800707A80004600DE00F9
:10216000614060000080FB00610060004300DD0012
:102170009E0078000130A10001007000000F78007F
:1021800030648000620060000000E0000300320064
:102190001E0078000040A000000F78009E407800EC
:1021A00060E1200001487800F4A702000000000070
:1021B0002007980031079800FE40900070E1200051
:1021C00001487800EE40900080E12000014878004E
:1021D000DE40900090E1200001487800CE40900061
:1021E000A0E1200001487800F0E120008040EB00F1
:1021F0000148780000E220008040EB0001487800B0
:1022000010E220008040EB000148780020E220002E
:102210008040EB00014878002101200010002000E0
:102220000E2702000100000010079800AE40900049
:1022300030E2200001487800BE40900040E22000DB
:1022400001487800D0E0200061C1B3000148780067
:1022500000E120008040EB00014878000080FA0097
:10226000000006000C00FA000040EB00004F780070
:10227000D0638000E60F500003003200D06380007E
:10228000E80F500006003A0080C720001040780098
:10229000E440500010E12000014878000E003700B3
:1022A000D0638000EE0F500006003A0080C7200087
:1022B00010407800E640500010E12000014878000E
:1022C0000500370080C720001040780080C0E8007B
:1022D00010E120000148780080C72000904078007D
:1022E00020E120000148780030E1200051C5B30012
:1022F000014878000040EB00004F7800D063800078
:1023000000407800004F78001E0078000050A000C8
:10231000000F780030648000614060000080FB00A6
:10232000610060004400DD009E0078000140A100D3
:1023300001007000000F78009E40780040E120000E
:10234000014878000040EB00004F7800707A800070
:102350004F00DE00004078000080FB00610060005C
:102360009E0078000100A10001007000000F7800BD
:10237000707A80004700DE00614060000080FB0052
:1023800061006000000040009E0078000110A10084
:1023900001007000000F7800807A80004E00DE009F
:1023A000614060000080FB00610060004200DD00D1
:1023B0009E0078000120A10001007000000F78004D
:1023C000807A80004F00DE00004078000080FB0033
:1023D000610060004300DD009E0078000130A10034
:1023E00001007000000F7800907A80004600DE0047
:1023F000614060000080FB00610060004400DD007F
:102400009E0078000140A10001007000000F7800DC
:10241000907A80004700DE00614060000080FB0091
:10242000610060004500DD009E0078000150A100C1
:1024300001007000000F78002AA0020000000000D8
:10244000204798001E009000614060000080FB0063
:10245000610060004600DD009E0078000160A10080
:1024600001007000000F78001E0090000000D100F5
:10247000614060000080FB00610060004700DD00FB
:102480009E0078000170A10001007000000F78002C
:102490009E40780050E12000014878000040EB00A9
:1024A000004F7800707A8000614060000080FB007F
:1024B000610060009E0078000100A1000100700032
:1024C000000F7800807A80004600DE0061406000E6
:1024D0000080FB0061006000000040009E0078006A
:1024E0000110A10001007000000F7800707A8000D8
:1024F0004500DE00614060000080FB00610060007C
:102500004200DD009E0078000120A1000100700063
:10251000000F7800707A80004600DE0061406000A5
:102520000080FB00610060004300DD009E00780039
:102530000130A10001007000000F780030648000BD
:10254000620060000000E00035003200D0638000CF
:10255000E40F500006003200D0638000E50F500009
:1025600003003200D0638000E60F50000B003A00F9
:1025700000D8020000000000614060000080FB0005
:10258000610060004400DD009E0078000140A10071
:1025900001007000000F780021003700D063800038
:1025A000EB0F500009003200D0638000EC0F5000A8
:1025B00006003200D0638000ED0F500003003200AF
:1025C000D0638000EE0F50000B003A00D68202006C
:1025D00000000000614060000080FB0061006000BE
:1025E0004400DD009E0078000140A1000100700061
:1025F000000F78000A0037003603020001000000D7
:10260000614060000080FB00610060004400DD006C
:102610009E0078000140A10001007000000F7800CA
:10262000A07A80004600DE00614060000080FB0070
:10263000610060004500DD009E0078000150A100AF
:1026400001007000000F78009E40780060E12000DB
:102650000148780044A00200000000002007980014
:102660004CA002000000000030079800CE4090000F
:1026700070E1200001487800DE40900080E12000F9
:1026800001487800EE40900090E120000148780079
:10269000FE409000A0E120000148780018A0020050
:1026A00000000000400798008E489000B0E1200034
:1026B000014878009E489000C0E120000148780061
:1026C000D0E120008040EB0001487800E0E12000EC
:1026D0008040EB0001487800F0E120008040EB00F2
:1026E0000148780000E220008040EB0001487800BB
:1026F00010E220008040EB000148780020E220003A
:102700008040EB000148780030E220008040EB0080
:102710000148780040E220008040EB00014878004A
:10272000D0638000EB0F500009003200EB0F500027
:102730004B003900ED0F500027003200ED0F500024
:1027400014003900EE0F500034003200450037000D
:1027500040618000200798002061800030079800C9
:10276000CE409000D0E1200001487800DE4090008B
:10277000E0E1200001487800EE409000F0E1200008
:1027800001487800FE40900000E2200001487800F7
:10279000340037008060800020079800606080006F
:1027A00030079800CE409000D0E12000014878002A
:1027B000DE409000E0E1200001487800EE4090000B
:1027C000F0E1200001487800FE40900000E2200087
:1027D0000148780023003700C0608000200798007F
:1027E000A060800030079800CE409000D0E120002B
:1027F00001487800DE409000E0E1200001487800C8
:10280000EE409000F0E1200001487800FE4090008A
:1028100000E22000014878001200370000618000CB
:1028200020079800E060800030079800CE409000BC
:10283000D0E1200001487800DE409000E0E1200077
:1028400001487800EE409000F0E120000148780057
:10285000FE40900000E220000148780001003700AF
:102860000000000041012000100020000E2702009F
:102870000100000050079800AE48900050E2200090
:1028800001487800BE48900060E2200001487800CE
:10289000D0E0200061C1B3000148780000E12000D1
:1028A0008040EB00014878000080FA00000006003C
:1028B0000200FA0030E32000104F7800A0CAB300F5
:1028C0009E40780080CF500001003A0007000700CA
:1028D00050C5B3009E40780080CF500001003A0000
:1028E000A30007000080FA00000006000A00FA00BA
:1028F00040E32000104078004047980020E320008B
:1029000010407800004F780010E32000104078005D
:102910002047980050E3200010407800604798005E
:1029200060E3200010407800004F980080C720002E
:10293000904078002E40900080CF50000C00320074
:1029400020C82000904078002E40900080CF50009A
:10295000070032008828A800E09002000000000074
:10296000A0C0B300E0200200010000007E0037009C
:102970001E4078000004E00007003A008828A80004
:10298000E090020000000000A0C0B300E0200200C0
:102990000100000074003700AE4090001E40780037
:1029A00080CF500007003A008828A800E09002007D
:1029B00000000000A0C0B300E02002000100000001
:1029C00069003700AE009000000220000080600027
:1029D0000000E000070032008828A800E090020014
:1029E00000000000A0C0B300E020020001000000D1
:1029F0005D00370030648000620060000000E0008D
:102A00000B0032004E009000700060000000E000FB
:102A100007003A008828A800E090020000000000AB
:102A2000A0C0B300E0200200010000004E0037000B
:102A3000BE0090002E0090005A4E020000000000E0
:102A40004E009000124C0200000000001E007800B2
:102A500090040700BE0090001E007800B804070034
:102A60004E009000620060000000E00004003A00A8
:102A70008828A80060002000006588000100370059
:102A80008828A900BE00900000042000008060009B
:102A90000000E000030032000071020000000000AE
:102AA0000200370010002000006588002E00900012
:102AB000700060000000E000160032003E00900050
:102AC0000000D1006140600066700200000000005C
:102AD00070E3200090407800B0C8200001487800E2
:102AE00080E3200090407800A0C8200001487800D2
:102AF00090E320009040780090C8200001487800C2
:102B0000A0E320009040780080C8200001487800B1
:102B1000150037003E0090000000D10061406000C9
:102B20007E7002000000000070E3200090407800FA
:102B3000F0C820000148780080E320009040780031
:102B4000E0C820000148780090E320009040780021
:102B5000D0C8200001487800A0E320009040780011
:102B6000C0C82000014878000080FA00000006007C
:102B70001A00FA000040EB00004F780040E320000C
:102B8000104078002057980020E320001040780083
:102B9000604F980010E32000104078000057980024
:102BA00050E32000104078004057980060E3200078
:102BB000104078006057980080C72000904078004F
:102BC0000E50900080CF50000500320020C8200039
:102BD000904078000E50900080CF50009E033A0045
:102BE0006E4890000004E0009D0332008E5090007B
:102BF0006E48900080CF50009B0332009E089000EA
:102C000000022000008060000000E00098033A000D
:102C10007E0090001F040700AE0890007E00900028
:102C2000470407002E089000620060000000E000EA
:102C300008003200D0638000E30F5000030036002C
:102C4000D0638000E60F50000200360000710200E1
:102C50000000000010658000620060000000E000DD
:102C60000D003A00BE0890000002200000806000C5
:102C70000000E00008003200D0638000E30F500045
:102C800003003600D0638000E60F500002003600DB
:102C90001E710200000000003E089000620060000B
:102CA0000000E00008003A00D0638000E30F50000D
:102CB00003003600D0638000E60F500002003600AB
:102CC0006000200000658800D0638000E40F5000A1
:102CD00006003200D0638000E50F50000300320090
:102CE000D0638000E60F500004003A000AD80200CA
:102CF00000000000004F780013003700D063800010
:102D0000EB0F500009003200D0638000EC0F500040
:102D100006003200D0638000ED0F50000300320047
:102D2000D0638000EE0F500004003A00E082020001
:102D300000000000004F7800030037002C03020061
:102D400001000000004F7800A17A800000042000FC
:102D5000008060000000E000030032001E407800A8
:102D6000E74F500010003A001E089000700060000D
:102D70000000E000060032002E0890000000D100A4
:102D800061406000667002000000000055033700DB
:102D90002E0890000000D100614060007E700200AB
:102DA000000000004F033700D0638000E40F5000A4
:102DB00006003200D0638000E50F500003003200AF
:102DC000D0638000E60F500013003A001E407800E8
:102DD000E14F500041003A001E0890007000600072
:102DE0000000E000060032003E0890004400DE00D3
:102DF0006140600014D80200000000003700370076
:102E00003E0890004400DE006140600020D80200CF
:102E10000000000031003700D0638000EB0F50004D
:102E200009003200D0638000EC0F50000600320031
:102E3000D0638000ED0F500003003200D0638000AB
:102E4000EE0F500013003A001E407800E14F500092
:102E500022003A001E089000700060000000E000B0
:102E6000060032003E0890004400DE006140600031
:102E7000EA82020000000000180037003E089000BF
:102E80004400DE0061406000F682020000000000A5
:102E9000120037001E407800E14F50000F003A004A
:102EA0001E089000700060000000E0000600320084
:102EB0003E0890004400DE0061406000060302000E
:102EC00001000000050037003E0890004400DE00CD
:102ED000614060001203020001000000AE08900093
:102EE0001E0890005A4E0200000000003E089000AC
:102EF000124C020000000000817A800000042000D3
:102F0000008060000000E000DB0232003E0890001C
:102F10002804070070E32000104078004047980024
:102F200080E32000104078005047980090E3200094
:102F30001040780060479800A0E32000104078001F
:102F400070479800D0E3200010407800004F9800B0
:102F5000E0E3200010407800104F9800F0E32000DC
:102F600010407800204F980000E4200010407800C6
:102F7000304F9800B0E3200010407800404F980098
:102F8000C0E3200010407800504F9800306480006B
:102F9000610060000000E0001F003200D06380008C
:102FA000E10F50003B003A00905B80000000E00021
:102FB0003A003A00F0648000E50F500039003A0012
:102FC0000040EB00104798000F0037001E409000B3
:102FD0000081FB001E4090000080FB006600400066
:102FE000E800400080E22000008040009040900017
:102FF00060B7200000004100014878001E409000AA
:103000000040E800104798001E409000E94F500033
:10301000EEFF36002A003700D0638000E10F500039
:1030200022003A00605C80000000E00021003A00CD
:10303000F0648000E50F500020003A000040EB00F3
:10304000104798000F0037001E4090000081FB00E1
:103050001E4090000080FB0066004000E800400039
:1030600080E22000008040009040900000B92000E5
:1030700000004100014878001E4090000040E80038
:10308000104798001E409000E94F5000EEFF3600B8
:103090000B003700000000000900370000000000AE
:1030A00007003700000000000500370000000000A6
:1030B000030037000000000001003700000000009E
:1030C0006E00900020479800DE4890004E48900027
:1030D000C0BD0200000000004E5090000080FB00C8
:1030E0004600DE0030479800D06380006101B800E0
:1030F0000080EB008080EB000200400083804800ED
:10310000D200200003002000820F5000838F58005F
:103110005B023E00006001000D0037005A023700DC
:103120001B0037002A0037005F003700940037008B
:1031300029023700380237005302370052023700A5
:10314000C50037001C01370073013700CA01370082
:10315000EE4890000E50900080CF50004C02360098
:10316000BE0090002E0090000101780080007800E1
:103170007E0090005D0207006E0090000001780064
:10318000BE4090007E0090006F020700550237009D
:10319000EE4890000E50900080CF50003E02360066
:1031A000BE0090002E0090000101780080007800A1
:1031B0007E0090004D0207006E0090000001780034
:1031C000BE4090007E0090005F020700450237007D
:1031D000EE4890000E50900080CF50003002360034
:1031E0000040EB00005F98001E0890006140600006
:1031F0000080FB0061006000CE0890000100A1008B
:1032000001007000400F98001E0890000000D100DF
:10321000614060000080FB00610060000000400031
:10322000CE0890000110A10001007000400F98002E
:103230001E0890004200DE00614060000080FB003C
:10324000610060004200DD00CE0890000120A10076
:1032500001007000400F98003E019000AE00900009
:103260000E5890000080FB00820178000101780078
:10327000800078007E00900030D302000000000043
:10328000EE0090000E5890000080FB008101780055
:103290003E419000800078007E0090007ED60200C3
:1032A000000000000F023700EE4890000E50900022
:1032B00080CF5000FC0136000040EB00005F98001A
:1032C0001E089000614060000080FB00610060000B
:1032D000CE0890000100A10001007000400F98008E
:1032E0001E0890000000D100614060000080FB00DB
:1032F0006100600000004000CE0890000110A100B5
:1033000001007000400F98001E0890004200DE008F
:10331000614060000080FB00610060004200DD0051
:10332000CE0890000120A10001007000400F98001D
:103330003E019000AE0090000E5890000080FB000F
:103340008201780001017800800078007E00900002
:1033500030D3020000000000EE0090000E589000F4
:103360000080FB00810178003E41900080007800E1
:103370007E0090007ED6020000000000D9013700D8
:10338000EE4890000E50900080CF5000C8013100F0
:103390000040EB00005F98001E0890006140600054
:1033A0000080FB0061006000CE0890000100A100D9
:1033B00001007000400F98001E0890000000D1002E
:1033C000614060000080FB00610060000000400080
:1033D000CE0890000110A10001007000400F98007D
:1033E0001E0890004200DE00614060000080FB008B
:1033F000610060004200DD00CE0890000120A100C5
:1034000001007000400F98003E019000AE00900057
:103410000E5890000080FB008201780001017800C6
:10342000800078007E00900030D302000000000091
:10343000EE0090000E5890000080FB0081017800A3
:103440003E419000800078007E0090007ED6020011
:1034500000000000A3013700EE4890000E509000DD
:1034600080CF5000940136000040EB00005F9800D0
:103470001E089000614060000080FB006100600059
:10348000CE0890000100A10001007000400F9800DC
:103490001E0890000000D100614060000080FB0029
:1034A0006100600000004000CE0890000110A10003
:1034B00001007000400F98001E0890004200DE00DE
:1034C000614060000080FB00610060004200DD00A0
:1034D000CE0890000120A10001007000400F98006C
:1034E0001E0890004300DE00614060000080FB0089
:1034F000610060004300DD00CE0890000130A100B3
:1035000001007000400F98003E019000AE00900056
:103510000E5890000080FB008201780001017800C5
:10352000800078007E0090009E7C02000000000079
:10353000EE0090000E5890000080FB0081017800A2
:103540003E419000800078007E009000E6800200FE
:103550000000000020C0B300604F9800CE00900033
:103560005E0090008101780000017800D100200009
:103570007E0090009E7C0200000000005E00900033
:103580008001780012C0B300D10020007E009000BE
:10359000E6800200000000004E00900080017800EC
:1035A00022C0B300D10020007E009000E68002001F
:1035B000000000004B013700EE4890000E509000D4
:1035C00080CF50003E0136000040EB00005F9800C5
:1035D0001E089000614060000080FB0061006000F8
:1035E000CE0890000100A10001007000400F98007B
:1035F0001E0890000000D100614060000080FB00C8
:103600006100600000004000CE0890000110A100A1
:1036100001007000400F98001E0890004200DE007C
:10362000614060000080FB00610060004200DD003E
:10363000CE0890000120A10001007000400F98000A
:103640001E0890004300DE00614060000080FB0027
:10365000610060004300DD00CE0890000130A10051
:1036600001007000400F98003E019000AE009000F5
:103670000E5890000080FB00820178000101780064
:10368000800078007E0090009E7C02000000000018
:10369000EE0090000E5890000080FB008101780041
:1036A0003E419000800078007E009000E68002009D
:1036B0000000000020C0B300604F9800CE009000D2
:1036C0005E0090008101780000017800E100200098
:1036D0007E0090009E7C0200000000005E009000D2
:1036E0008001780012C0B300E10020007E0090004D
:1036F000E6800200000000004E009000800178008B
:1037000022C0B300E10020007E009000E6800200AD
:1037100000000000F3003700EE4890000E509000CB
:1037200080CF5000E80036000040EB00005F9800BA
:103730001E089000614060000080FB006100600096
:10374000CE0890000100A10001007000400F980019
:103750001E0890000000D100614060000080FB0066
:103760006100600000004000CE0890000110A10040
:1037700001007000400F98001E0890004200DE001B
:10378000614060000080FB00610060004200DD00DD
:10379000CE0890000120A10001007000400F9800A9
:1037A0001E0890004300DE00614060000080FB00C6
:1037B000610060004300DD00CE0890000130A100F0
:1037C00001007000400F98003E019000AE00900094
:1037D0000E5890000080FB00820178000101780003
:1037E000800078007E0090009E7C020000000000B7
:1037F000EE0090000E5890000080FB0081017800E0
:103800003E419000800078007E009000E68002003B
:103810000000000020C0B300604F9800DE00900060
:103820004E0090008101780000017800B100200076
:103830007E0090009E7C0200000000004E00900080
:103840008001780012C0B300B10020007E0090001B
:10385000E6800200000000005E0090008001780019
:1038600022C0B300B10020007E009000E68002007C
:10387000000000009B003700EE4890000E509000C2
:1038800080CF5000920031000040EB00005F9800B4
:103890001E089000614060000080FB006100600035
:1038A000CE0890000100A10001007000400F9800B8
:1038B0001E0890000000D100614060000080FB0005
:1038C0006100600000004000CE0890000110A100DF
:1038D00001007000400F98001E0890004200DE00BA
:1038E000614060000080FB00610060004200DD007C
:1038F000CE0890000120A10001007000400F980048
:103900001E0890004300DE00614060000080FB0064
:10391000610060004300DD00CE0890000130A1008E
:1039200001007000400F98003E019000AE00900032
:103930000E5890000080FB008201780001017800A1
:10394000800078007E0090009E7C02000000000055
:10395000EE0090000E5890000080FB00810178007E
:103960003E419000800078007E009000E6800200DA
:103970000000000020C0B300604F9800CE0090000F
:103980005E0090008101780000017800C1002000F5
:103990007E0090009E7C0200000000005E0090000F
:1039A0008001780012C0B300C10020007E009000AA
:1039B000E6800200000000004E00900080017800C8
:1039C00022C0B300C10020007E009000E68002000B
:1039D0000000000043003700EE4890000E509000B9
:1039E00080CF50003C003600BE0090002E009000BA
:1039F00001017800800078007E00900069000700D7
:103A00006E00900000017800BE4090007E009000A3
:103A10004D00070033003700EE4890000E50900034
:103A200080CF50002E003100BE0090002E0090008C
:103A300001017800800078007E00900059000700A6
:103A40006E00900000017800BE4090007E00900063
:103A50003D00070023003700000000002100370070
:103A6000000000001F003700000000001D003700AC
:103A7000000000001B0037000000000019003700A4
:103A8000000000001700370000000000150037009C
:103A90000000000013003700000000001100370094
:103AA000000000000F003700000000000D0037008C
:103AB000000000000B003700000000000900370084
:103AC000000000000700370000000000050037007C
:103AD0000000000003003700000000000100370074
:103AE000000000000080FA00000006000600FA0056
:103AF000000F780011079800220798001E00780038
:103B0000610060000000E000070032002E0090001D
:103B1000A6020200010000001E00900052020200F6
:103B200001000000060037002E009000B2020200E3
:103B3000010000001E0090005E0202000100000073
:103B40000080FA00000006000600FA00000F78006E
:103B500021479800220798001E007800610060004D
:103B60000000E000070032002E409000D602020064
:103B7000010000002E009000BE02020001000000C3
:103B8000060037002E409000E20202000100000013
:103B90002E009000CA020200010000000080FA001E
:103BA000000006000600FA00000F780011079800D8
:103BB00022079800D0638000EE0F500033003E00D3
:103BC000110020000008DD00F1E7270081006000FF
:103BD0000100E0002C003A0001102000810060008C
:103BE0000100E00016003A0001082000010060001A
:103BF0000000E000250032001E0078006100600037
:103C00000000E000070032002E009000A602020033
:103C1000010000001E00900052020200010000009E
:103C20001A0037002E009000B202020001000000CE
:103C30001E0090005E020200010000001300370029
:103C40001E007800610060000000E0000700320004
:103C50001E009000A6020200010000002E0090004D
:103C60005202020001000000080037001E00900010
:103C7000B2020200010000002E0090005E0202006D
:103C80000100000001003700000000000080FA0081
:103C9000000006000400FA00100798000040EB0046
:103CA000004F78000040EB00104798000080200093
:103CB00010007800E10F50001E003A0030648000D0
:103CC000610060000000E000030032000040EB00F3
:103CD000004F78000200370010C0B300004F78009A
:103CE0001E009000610060000000E0000300320050
:103CF0000040EB00104798000200370010C0B300EE
:103D0000104798001E80FB009E4090000181FB0040
:103D1000A191280000004000020040000000400087
:103D20000080400090007800008020001100980082
:103D300001003700000000000080FA0000000600CB
:103D40000400FA00000F780011079800306480002A
:103D5000610060000000E0004B0032001E007800AF
:103D6000610060000000E000230032001044800089
:103D7000610060000000E0000400320020F6200036
:103D800031C0B300014878000300370020F620005E
:103D900031C0B30001487800807A800000E0A000C4
:103DA000807A88001E0090004200DE0061406000C2
:103DB0000080FB00610060004A00DD00817A800025
:103DC00001A0A10001007000807A88001E00900010
:103DD0004300DE00614060000080FB006100600085
:103DE0004200DD00917A80000120A10001007000F6
:103DF000907A88006D0037001044800061006000F8
:103E00000000E0000400320030F6200031C0B300B2
:103E1000014878000300370030F6200031C0B300BD
:103E200001487800817A80000000280001007000BD
:103E3000807A88001E0090004400DE00614060002F
:103E40000080FB00610060004B00DD00817A800093
:103E500001B0A10001007000807A88001E0090006F
:103E60004500DE00614060000080FB0061006000F2
:103E70004300DD00917A80000130A1000100700054
:103E8000907A8800490037001E00780061006000C9
:103E90000000E00023003200104480006100600058
:103EA0000000E0000400320040F6200031C0B30002
:103EB000014878000300370040F6200031C0B3000D
:103EC00001487800907A80000060A000907A880015
:103ED0001E0090004200DE00614060000080FB0098
:103EE000610060004A00DD00817A800001A0A1002D
:103EF00001007000807A88001E0090004300DE0000
:103F0000614060000080FB00610060004200DD0055
:103F1000917A80000120A10001007000907A880051
:103F20002200370010448000610060000000E000C3
:103F30000400320050F6200031C0B3000148780080
:103F40000300370050F6200031C0B300014878006C
:103F5000907A80000070A000907A88001E00900087
:103F60004400DE00614060000080FB0061006000F2
:103F70004B00DD00817A800001B0A10001007000DB
:103F8000807A88001E0090004500DE0061406000DD
:103F90000080FB00610060004300DD00917A80003A
:103FA0000130A10001007000907A88000080FA00C2
:103FB000000006000200FA00000F78001E007800E2
:103FC000610060000000E000040032001E00780084
:103FD000620060000000E00005003A00E09002008E
:103FE0000000000020C2B300E02002000100000039
:103FF0000080FA00000006000000FA00F063800074
:104000000000E00039003A0040408000E20F50001C
:1040100025003200E20F500005003E000000E000E5
:1040200006003200E10F50000A0032004000370065
:10403000E30F5000270032003D0037005040800061
:104040000000E00033003A001000200040408800EB
:104050003700370050178000610060000000E0006A
:104060000C003A00EC22A8005017800061006000AC
:104070000000E00029003A00E502A800C5C2A8003F
:10408000200020004040880040012000504088006F
:1040900027003700EC22A9000828EF00E0012000EB
:1040A0005040880022003700504080000000E000AF
:1040B0001C003A00E502A800C5C2A900300020009B
:1040C00040408800EC22A9002003200050408800D6
:1040D00017003700504080000000E00013003A0055
:1040E0004000200040408800110037004040800020
:1040F000E40F50000E003200E502A800C5C2A8007F
:104100004000200040408800E0012000504088002E
:104110000700370000000000050037000000000025
:10412000030037000000000001003700000000001D
:104130000080FA00000006000200FA004040800003
:10414000004F78001E4078000080FA000000060052
:104150000200FA000040EB00004F78000600370034
:104160009E80FB0000E12000008040008040EB00CA
:10417000114098001E4FE8001E407800F54F500097
:10418000F7FF36000080FA00000006000000FA0089
:10419000E06380000000E00003003A0040D020000F
:1041A000401188001600370000648000E10F5000C5
:1041B0000A003200E10F500005003900E20F500004
:1041C00009003200E30F50000A0032000C003700F3
:1041D00040D02000401188000900370010682000FE
:1041E0004011880006003700F019200040118800B7
:1041F00003003700F00C2000401188000000000090
:10420000E842A900E862A800113A8000F00B200003
:1042100000816000600420007105200023742000EC
:1042200080497800814978008249780021358000F2
:1042300000FC2F00008060000040A00020358800B6
:10424000F136800000FC2F00008060003000B300D9
:10425000F0368800103A8000000178000260A0006B
:10426000600420007105200023742000804978003C
:1042700081497800824978002022EF002222EF0055
:104280002162A8002062A8009C20A9009560A900D6
:104290009580A9008C20A9008560A9008580A900CF
:1042A00021E2A8000080FA00000006000200FA00E7
:1042B00080E420008040EB000148780000E5200009
:1042C0008040EB0001487800D0E4200061C1B300D9
:1042D0000148780080E620008040EB00014878002B
:1042E00000E720008040EB00014878000000EB0070
:1042F00050738800F0E620008040EB000148780011
:10430000D0E6200061C1B300014878004081200060
:104310008000EB0001087800F422A9004081200011
:10432000014B2000210098000040EB00004F780076
:10433000060037009E80FB0000E520000080400062
:104340008040EB00114098001E4FE8001E407800AE
:10435000F54F5000F7FF3600E06380000000E000FA
:1043600007003A00C0E4200091C0B3000148780083
:10437000C0E6200091C0B300014878002600370055
:1043800000648000E10F50000E003200E10F500089
:1043900005003900E20F500011003200E30F500019
:1043A000160032001C003700C0E4200091C0B300AA
:1043B00001487800C0E6200091C0B30001487800B1
:1043C00015003700C0E4200051C0B3000148780058
:1043D000C0E6200051C0B300014878000E0037004D
:1043E000C0E4200011C0B30001487800C0E62000FE
:1043F00011C0B3000148780007003700C0E4200076
:1044000011C0B30001487800C0E6200011C0B3001D
:104410000148780000000000D0E42000104078003F
:104420000080FB000080E80000407800C1E420002C
:10443000914078008180FB000088B900000078007E
:1044400080407800E0E42000014878001C28EF005C
:104450001E28EF000080FA00000006000000FA00AD
:1044600040812000110020000108780030648000A5
:10447000610060000000E000050032004081200083
:1044800041E72000110098001E28EF0005003700CA
:1044900040812000C10C210011009800E0012000A3
:1044A000F04088002342A8000080FA0000000600C7
:1044B0000000FA00304180000000E8003041880030
:1044C0003141800030062000808F500014003600FB
:1044D0002628EF0020658000E60F5000040032001F
:1044E000707A8000610060000000E0000C003A007B
:1044F000A01680004E00DE006140600000C0EA00AF
:10450000614060000080FB00610060004E00DD0043
:10451000A116800001E0A10001007000A016880033
:104520000080FA00000006000000FA000041800050
:104530001141800061004000E08048000041880097
:10454000114188000241800013418000F0342C00AA
:1045500001002000800F5100818F590002003600B9
:104560002028EF002228EF000080FA00000006005B
:104570000200FA00E300070080E620001040780007
:10458000E64F500004003A009904070080E620003E
:104590008040EB0001487800408120001000780046
:1045A0008000EB009200200003002000820F5000EA
:1045B000838F5800BF003E0000600100AC00370050
:1045C0000800370010003700330037005300370071
:1045D00065003700A6003700700037009E003700E6
:1045E000A300370040812000100090000000E00090
:1045F000A1003A00BB0107004081200021002000FB
:1046000001087800AB00370090178000610060005F
:104610000000E00015003A00F422A8009017800086
:10462000610060000000E00004003A0040812000CA
:1046300031002000010878009E00370030648000BF
:10464000610060000000E0008D003A00F422A90043
:104650004081200081D4200011009800408120007A
:1046600011002000010878009200370090178000A8
:10467000610060000000E000830032004081200003
:1046800081D42000110098004081200011002000FA
:104690000108780087003700E06380000000E00038
:1046A00013003A00511780000002200000806000D3
:1046B0000000E00003003A00EC82A900ED02A8002F
:1046C0007E0007006D0A0700B2010700408120004C
:1046D00041002000010878004081200021032000D3
:1046E000110098001E160200010000007100370042
:1046F000620A0700A7010700408120004100200056
:10470000010878004081200021032000110098005A
:104710001E1602000100000066003700020D0200B4
:10472000010000003016020001000000004F780078
:104730001E407800E44F500005003A0028160200A1
:104740000100000040812000510020000108780095
:1047500040812000100090000000E0004C003A0072
:104760001401070053003700408120001000900022
:104770000000E00048003A00408120007100200065
:1047800001087800E0E42000104078008080FB0001
:1047900040812000110098004600370000E520000D
:1047A00010407800F54F50000C00360011118000C9
:1047B00000102000008060000000E000380032009F
:1047C0004081200081002000010878004081200005
:1047D000E10120001100980036003700111180001F
:1047E00000402000008060000000E00001003A006E
:1047F0002342A800111180000020200000806000EA
:104800000000E0000E003A0000E5200010407800B3
:104810000080FB00E800400080E4200000804000B1
:10482000104090000080FB002011880000E520006F
:10483000104078008040E80000E520000148780042
:1048400040812000100090000000E00016003A00B7
:10485000D8000700170037004081200010009000AA
:104860000000E00012003A00D200070011003700FB
:10487000000000000F003700000000000D003700AE
:10488000000000000B0037000000000009003700A6
:10489000000000000700370000000000050037009E
:1048A0000000000003003700000000000100370096
:1048B000000000000080FA00000006000000FA007E
:1048C00010118000640060000000E0000100320070
:1048D0002242A90090118000620060000000E00008
:1048E000010032002222A90010118000680060003F
:1048F0000000E000010032002262A9000080FA00FE
:10490000000006000400FA000000EB00000F780031
:104910000040EB0020479800511780000002200063
:10492000008060000000E00001003200E3FF0700AB
:1049300010118000610060000000E00054003200AF
:10494000301180002047980020012000507388001B
:1049500080E62000104078000080FB00E10F50004E
:1049600014003200E10F500003003C000000E000A2
:104970000600320046003700E20F50001D003200F2
:10498000E30F50002B0032004100370010E72000F9
:10499000AE4090000148780000E7200011C0B3004D
:1049A0000148780080E6200011C0B300014878007B
:1049B0003700370000E72000104078008080FB00BF
:1049C00000E7200000804000AE40900011409800B9
:1049D00000E72000104078008040E80000E7200059
:1049E0000148780080E6200021C0B300014878002B
:1049F0002700370000E72000104078008080FB008F
:104A000000E7200000804000AE4090001140980078
:104A100000E72000104078008040E80000E7200018
:104A20000148780080E6200031C0B30001487800DA
:104A30001700370000E72000104078008080FB005E
:104A400000E7200000804000AE4090001140980038
:104A500000E72000104078008040E80000E72000D8
:104A60000148780000E7200010407800F54F500022
:104A70000600360080E6200041C0B30001487800FF
:104A80003C16020001000000010037000000000099
:104A900080E6200010407800E44F50000D003A00FE
:104AA000E6100200010000004E16020001000000A6
:104AB000304798003E409000E44F500005003A0017
:104AC000461602000100000080E6200051C0B3003D
:104AD0000148780080E6200010407800E54F500043
:104AE00021003A0061012000400020000E27020052
:104AF00001000000000F78001E0078000000E000B8
:104B00001500320080E6200071C0B3000148780033
:104B1000A07A80006400600000F0A7000000EA00B6
:104B20000000E9004F00DE00004078000080FB003C
:104B3000610060004200DD00A17A80000120A10038
:104B400001007000A07A8800204180000000E80089
:104B5000204188001500370080E6200061C0B300C6
:104B6000014878001100370080E6200010407800EE
:104B70000004E00006003200507380000000E000F6
:104B800003003A0080E620008040EB0001487800F6
:104B900080E6200010407800E74F500003003A0004
:104BA00080E620008040EB00014878000080FA0099
:104BB000000006000200FA000000EB00000F780081
:104BC0004081200011002000010878004081200071
:104BD000B00090004081200020009000808F5000A5
:104BE0000900360040812000B0009000004B2000FA
:104BF00000017800110009008280D8008000FD00CB
:104C0000000F78000300370040812000B0009000C2
:104C1000010F780040812000200090009E0050008D
:104C20004081200011009800E06380000000E00057
:104C300002003A00ED02A900EC82A800F422A900CB
:104C40000080FA00000006000000FA0018FE0700CD
:104C500035FE070040812000100090000000E000B9
:104C60000500320040812000100090008000E90023
:104C70004081200011009800408120001000780041
:104C8000E10F500004003A00408120008000EB005A
:104C9000310098000500370040812000300090006E
:104CA0008000E800408120003100980050738000AF
:104CB0000000E00003003200507380000000E900B3
:104CC00050738800F04080000000E00003003200D4
:104CD000F04080000000E900F04088000080FA0009
:104CE000000006000000FA003064800061006000EF
:104CF0000000E0001300320060F620001040780051
:104D00000004E0000500320060F62000104078004A
:104D10008040E90060F620000148780070F620002D
:104D2000104078000004E0001800320070F6200007
:104D3000104078008040E90070F6200001487800BB
:104D40001200370080F62000104078000004E000D8
:104D50000500320080F62000104078008040E90015
:104D600080F620000148780090F62000104078007E
:104D70000004E0000500320090F6200010407800AA
:104D80008040E90090F62000014878000080FA0099
:104D9000000006000200FA000040EB00004F78001F
:104DA000717A800000002400008060000000E000B4
:104DB00002003A001A00070001003700F90007005E
:104DC00010118000680060000000E0000100320067
:104DD0002262A90010118000620060000000E00063
:104DE000010032002222A90010118000640060003E
:104DF0000000E0000300320030118000004F780016
:104E00002242A90060048000620060000000E0000F
:104E1000010032008C20A9000080FA00000006008A
:104E20000800FA000040EB00004F7800D0638000DB
:104E3000E40F500003003200D0638000E70F500001
:104E400006003A0080C7200010407800E44040008F
:104E500010E52000014878000E003700D063800084
:104E6000EB0F500006003A0080C720001040780089
:104E7000E640400010E520000148780005003700BA
:104E800080C720001040780080C0E90010E52000B5
:104E90000148780080C720009040780020E520007D
:104EA0000148780030E52000A1CAB300014878002D
:104EB000D063800000407800004F78001E0078002A
:104EC0000050A100000F7800306480006140600055
:104ED0000080FB00610060004400DD009E0078005F
:104EE0000140A10001007000000F78009E40780092
:104EF00040E52000014878000040EB00004F7800BA
:104F0000707A80004F00DE00004078000080FB00D7
:104F1000610060009E0078000100A10001007000A7
:104F2000000F7800707A80004400DE00614060006D
:104F30000080FB0061006000000040009E007800DF
:104F40000110A10001007000000F7800807A80003D
:104F50004C00DE00614060000080FB0061006000EA
:104F60004200DD009E0078000120A10001007000D9
:104F7000000F7800807A80004D00DE006140600004
:104F80000080FB00610060004300DD009E007800AF
:104F90000130A10001007000000F7800907A8000BD
:104FA0004400DE00614060000080FB0061006000A2
:104FB0004400DD009E0078000140A1000100700067
:104FC000000F7800907A80004500DE0061406000AC
:104FD0000080FB00610060004500DD009E0078005D
:104FE0000150A10001007000000F7800707A80006D
:104FF0004400DE00614060000080FB006100600052
:105000004600DD009E0078000160A10001007000F4
:10501000000F78009E40780050E52000014878009D
:105020000040EB00004F7800707A80006140600023
:105030000080FB00610060009E0078000100A1007C
:1050400001007000000F7800807A80004700DE00C9
:10505000614060000080FB006100600000004000D3
:105060009E0078000110A10001007000000F780080
:10507000707A80004500DE00614060000080FB0027
:10508000610060004200DD009E0078000120A10068
:1050900001007000000F7800707A80004600DE008A
:1050A000614060000080FB00610060004300DD00A3
:1050B0009E0078000130A10001007000000F780010
:1050C00030648000620060000000E00003003200F5
:1050D0001E0078000040A000000F78009E4078007D
:1050E00060E5200001487800F4A7020000000000FD
:1050F0002007980031079800FE40900070E52000DE
:1051000001487800EE40900080E5200001487800DA
:10511000DE40900090E5200001487800CE409000ED
:10512000A0E5200001487800F0E520008040EB0079
:105130000148780000E620008040EB00014878003C
:1051400010E620008040EB000148780020E62000B7
:105150008040EB0001487800210120005000200031
:105160000E2702000100000010079800AE409000DA
:1051700030E6200001487800BE40900040E6200064
:1051800001487800D0E4200061C1B30001487800F4
:1051900000E520008040EB00014878000080FA0024
:1051A000000006000C00FA000040EB00004F780001
:1051B000D0638000E40F500003003200D063800011
:1051C000E70F500006003A0080C72000104078002A
:1051D000E440400010E52000014878000E00370050
:1051E000D0638000EB0F500006003A0080C720001B
:1051F00010407800E640400010E5200001487800AB
:105200000500370080C720001040780080C0E9000A
:1052100010E520000148780080C720009040780009
:1052200020E520000148780030E5200051C5B3009A
:10523000014878000040EB00004F7800D063800008
:1052400000407800004F78001E0078000050A10058
:10525000000F780030648000614060000080FB0037
:10526000610060004400DD009E0078000140A10064
:1052700001007000000F78009E40780040E520009B
:10528000014878000040EB00004F7800707A800001
:105290004F00DE00004078000080FB0061006000ED
:1052A0009E0078000100A10001007000000F78004E
:1052B000707A80004400DE00614060000080FB00E6
:1052C00061006000000040009E0078000110A10015
:1052D00001007000000F7800807A80004C00DE0032
:1052E000614060000080FB00610060004200DD0062
:1052F0009E0078000120A10001007000000F7800DE
:10530000807A80004D00DE00614060000080FB007C
:10531000610060004300DD009E0078000130A100C4
:1053200001007000000F7800907A80004400DE00D9
:10533000614060000080FB00610060004400DD000F
:105340009E0078000140A10001007000000F78006D
:10535000907A80004500DE00614060000080FB0024
:10536000610060004500DD009E0078000150A10052
:1053700001007000000F780020A002000000000073
:10538000204798001E009000614060000080FB00F4
:10539000610060004600DD009E0078000160A10011
:1053A00001007000000F78001E0090000000D10086
:1053B000614060000080FB00610060004700DD008C
:1053C0009E0078000170A10001007000000F7800BD
:1053D0009E40780050E52000014878000040EB0036
:1053E000004F7800707A8000614060000080FB0010
:1053F000610060009E0078000100A10001007000C3
:10540000000F7800807A80004700DE006140600075
:105410000080FB0061006000000040009E007800FA
:105420000110A10001007000000F7800707A800068
:105430004500DE00614060000080FB00610060000C
:105440004200DD009E0078000120A10001007000F4
:10545000000F7800707A80004600DE006140600036
:105460000080FB00610060004300DD009E007800CA
:105470000130A10001007000000F7800306480004E
:10548000620060000000E00035003200D063800060
:10549000E40F500006003200D0638000E50F50009A
:1054A00003003200D0638000E60F50000B003A008A
:1054B00000D8020000000000614060000080FB0096
:1054C000610060004400DD009E0078000140A10002
:1054D00001007000000F780021003700D0638000C9
:1054E000EB0F500009003200D0638000EC0F500039
:1054F00006003200D0638000ED0F50000300320040
:10550000D0638000EE0F50000B003A00D6820200FC
:1055100000000000614060000080FB00610060004E
:105520004400DD009E0078000140A10001007000F1
:10553000000F78000A003700621F0200010000001F
:10554000614060000080FB00610060004400DD00FD
:105550009E0078000140A10001007000000F78005B
:10556000707A80004E00DE00614060000080FB0029
:10557000610060004500DD009E0078000150A10040
:1055800001007000000F78009E40780060E5200068
:105590000148780034A002000000000020079800B5
:1055A0003CA002000000000030079800CE409000B0
:1055B00070E5200001487800DE40900080E5200082
:1055C00001487800EE40900090E520000148780006
:1055D000FE409000A0E520000148780010A00200E5
:1055E00000000000400798008E489000B0E52000C1
:1055F000014878009E489000C0E5200001487800EE
:10560000D0E520008040EB0001487800E0E5200074
:105610008040EB0001487800F0E520008040EB007E
:105620000148780000E620008040EB000148780047
:1056300010E620008040EB000148780020E62000C2
:105640008040EB000148780030E620008040EB000D
:105650000148780040E620008040EB0001487800D7
:10566000D0638000EB0F500009003200EB0F5000B8
:105670004B003900ED0F500027003200ED0F5000B5
:1056800014003900EE0F500034003200450037009E
:10569000D060800020079800B0608000300798003C
:1056A000CE409000D0E5200001487800DE40900018
:1056B000E0E5200001487800EE409000F0E5200091
:1056C00001487800FE40900000E620000148780084
:1056D000340037001061800020079800F0608000DF
:1056E00030079800CE409000D0E5200001487800B7
:1056F000DE409000E0E5200001487800EE40900098
:10570000F0E5200001487800FE40900000E620000F
:10571000014878002300370050618000200798007E
:105720003061800030079800CE409000D0E5200026
:1057300001487800DE409000E0E520000148780054
:10574000EE409000F0E5200001487800FE40900017
:1057500000E62000014878001200370090608000C9
:10576000200798007060800030079800CE409000BD
:10577000D0E5200001487800DE409000E0E5200000
:1057800001487800EE409000F0E5200001487800E4
:10579000FE40900000E6200001487800010037003C
:1057A0000000000041012000500020000E270200F0
:1057B0000100000050079800AE48900050E620001D
:1057C00001487800BE48900060E62000014878005B
:1057D000D0E4200061C1B3000148780000E520005A
:1057E0008040EB00014878000080FA0000000600CD
:1057F0000200FA0030E72000104F780050C5B300D7
:105800009E40780080CF500001003A00A7000700BA
:10581000A0CAB3009E40780080CF500001003A003B
:10582000020007000080FA00000006000A00FA00EB
:1058300040E72000104078004047980020E7200013
:1058400010407800004F780010E7200010407800EA
:105850002047980050E720001040780060479800EB
:1058600060E7200010407800004F980080C72000BB
:10587000904078002E40900080CF50000B00320006
:1058800020C82000904078002E40900080CF50002B
:1058900006003200608F020000000000A0C0B300CC
:1058A000E0200200010000007E0037001E4078006A
:1058B0000004E00007003A008808A800608F02009A
:1058C00000000000A0C0B300E020020001000000C2
:1058D00074003700AE4090001E40780080CF50002A
:1058E00007003A008808A800608F0200000000004E
:1058F000A0C0B300E02002000100000069003700F2
:10590000AE00900000022000008060000000E00077
:1059100007003A008808A800608F0200000000001D
:10592000A0C0B300E0200200010000005D003700CD
:1059300030648000620060000000E0000B00320074
:105940004E009000700060000000E00007003A0088
:105950008808A800608F020000000000A0C0B3000B
:10596000E0200200010000004E003700BE00900061
:105970002E009000224E0200000000004E00900019
:10598000844C0200000000001E0078008D04070017
:10599000BE0090001E007800B10407004E00900089
:1059A000620060000000E00004003A008808A800DF
:1059B0006000200030658800010037008808A900D9
:1059C000BE00900000042000008060000000E000A5
:1059D00003003200367102000000000002003700B0
:1059E00010002000306588002E00900070006000DC
:1059F0000000E000160032003E0090000000D100E0
:105A000061406000987002000000000070E7200014
:105A10009040780030C920000148780080E72000DD
:105A20009040780020C920000148780090E72000CD
:105A30009040780010C9200001487800A0E72000BD
:105A40009040780000C92000014878001500370018
:105A50003E0090000000D10061406000B270020082
:105A60000000000070E720009040780070C920001E
:105A70000148780080E720009040780060C920004D
:105A80000148780090E720009040780050C920003D
:105A900001487800A0E720009040780040C920002D
:105AA000014878000080FA00000006001A00FA00A1
:105AB0000040EB001047980040E7200010407800BD
:105AC0004057980020E7200010407800604F980071
:105AD00010E72000104078000057980050E72000A1
