:1000000000020400000000000000000000000000EA
:1000100000000000000000000000000000000000E0
:1000200000000000000000000000000000000000D0
:1000300000000000000000000000000000000000C0
:1000400000000000000000000000000000000000B0
:1000500000000000000000000000000000000000A0
:100060000000000000000000000000000000000090
:100070000000000000000000000000000000000080
:100080000000000000000000000000000000000070
:100090000000000000000000000000000000000060
:1000A0000000000000000000000000000000000050
:1000B0000000000000000000000000000000000040
:1000C0000000000000000000000000000000000030
:1000D0000000000000000000000000000000000020
:1000E0000000000000000000000000000000000010
:1000F0000000000000000000000000000000000000
:1001000000000000000000000000000000000000EF
:1001100000000000000000000000000000000000DF
:1001200000000000000000000000000000000000CF
:1001300000000000000000000000000000000000BF
:1001400000000000000000000000000000000000AF
:10015000000000000000000000000000000000009F
:10016000000000000000000000000000000000008F
:10017000000000000000000000000000000000007F
:10018000000000000000000000000000000000006F
:10019000000000000000000000000000000000005F
:1001A000000000000000000000000000000000004F
:1001B000000000000000000000000000000000003F
:1001C000000000000000000000000000000000002F
:1001D000000000000000000000000000000000001F
:1001E000000000000000000000000000000000000F
:1001F00000000000000000000000000000000000FF
:10020000FFFFFF00FFFFFF000000000000000000F4
:1002100000000000000000000000000000000000DE
:1002200000000000000000000000000000000000CE
:1002300000000000000000000000000000000000BE
:1002400000000000000000000000000000000000AE
:10025000000000000000000000000000000000009E
:10026000000000000000000000000000000000008E
:10027000000000000000000000000000000000007E
:10028000000000000000000000000000000000006E
:10029000000000000000000000000000000000005E
:1002A000000000000000000000000000000000004E
:1002B000000000000000000000000000000000003E
:1002C000000000000000000000000000000000002E
:1002D000000000000000000000000000000000001E
:1002E000000000000000000000000000000000000E
:1002F00000000000000000000000000000000000FE
:1003000000000000000000000000000000000000ED
:1003100000000000000000000000000000000000DD
:1003200000000000000000000000000000000000CD
:1003300000000000000000000000000000000000BD
:1003400000000000000000000000000000000000AD
:10035000000000000000000000000000000000009D
:10036000000000000000000000000000000000008D
:10037000000000000000000000000000000000007D
:10038000000000000000000000000000000000006D
:10039000000000000000000000000000000000005D
:1003A000000000000000000000000000000000004D
:1003B000000000000000000000000000000000003D
:1003C000000000000000000000000000000000002D
:1003D000000000000000000000000000000000001D
:1003E000000000000000000000000000000000000D
:1003F00000000000000000000000000000000000FD
:100400006FFD20000EFF27000E0188000000000095
:10041000000020000000E000020032000001200087
:100420002002880014000700770007000000E000A9
:1004300003003A00A0BB2200110020000200370098
:100440000000200001002000810F70000100320038
:1004500014000700000020000000E000020032004D
:1004600000000200000000007C58020000000000B4
:100470000040DA000000FE004440A900E05A2000DD
:100480000000E000030032000020200090018800FE
:100490004440A800000006008A1F78008B1F7800E7
:1004A00000000600A1028800800478000000EB0034
:1004B0001F003700E284440054A0B4009905BA003C
:1004C000E284440054A0B4009906BA00E2844400D7
:1004D00054A0B4000006EB00476FDE00FD07B20039
:1004E000AE018800636CE10003003A00EAFF0700F8
:1004F0000000EB000E003700606CE10008003A00DD
:10050000004DEB000A05E800020039003420EC0041
:100510000AF0A0008B05E900F9FF3E000400370057
:100520006168E100010032000086EB000B0007006B
:1005300019C7BA001905BA000E04E00003003A001A
:100540000A00E000DBFF3A0000000600FE07B200F0
:10055000AE0288008A047800F5FF37000CD0A300B3
:10056000E20F4D001C00390089027800354DBA00B9
:100570000A05E800020039003420EC000AF0A0006F
:100580008B05E9000F003200254DBA000A05E8008E
:10059000020039003420EC000AF0A0008B05E900CD
:1005A000080032000C00E0000600320015CDBA0051
:1005B0000A05E800020039003420EC000AF0A0002F
:1005C0008B05E9008984E80054A0B4000B00E0002A
:1005D000E2FF3A00000006009902BA00055D7800CB
:1005E0008B05E900F7FF3200C82ADE00055D7800C0
:1005F0008B05E900F3FF32000C00E000F1FF320050
:1006000019DDBA00EEFF3700000005005400F800C5
:10061000A10288008002780062004000E08048006B
:100620003549BA003204E0000410A700100032007F
:100630008301E9000E0032002549BA003204E000CF
:100640000410A7000A0032008301E900080032000C
:100650000408A300EEFF320015C9BA003204E0001E
:100660000410A700020032008301E900E8FF3A000D
:100670005400F900000006008000EB00307E880086
:10068000417E880011C0B30040FC20000148780082
:100690000000060040FC20001004E00002003A00C8
:1006A00010002000F4FF0700D2E62400631C2400A1
:1006B000307E8000417E8000090007009203230005
:1006C000030020000001410081814900327E880042
:1006D000437E88000300780000F0A10000000600BF
:1006E000020AB900001BB9000200B80081004200F4
:1006F000810043000000060000010000020300002A
:100700000405000006070000080900000A0B0000AD
:100710000C0D00000E0F0000131100001D7F0000E3
:10072000E39400004A170000F3070000A78B0000C5
:100730004D2B000030C50000637C0000777B00007B
:10074000F26B00006FC5000030010000672B000055
:10075000FED70000AB760000CA820000C97D000011
:10076000FA59000047F00000ADD40000A2AF00002D
:100770009CA4000072C00000B7FD0000932600009A
:10078000363F0000F7CC000034A50000E5F1000082
:1007900071D800003115000004C7000023C3000019
:1007A00018960000059A00000712000080E2000081
:1007B000EB270000B2750000098300002C1A00002E
:1007C0001B6E00005AA00000523B0000D6B3000090
:1007D00029E300002F84000053D1000000ED000049
:1007E00020FC0000B15B00006ACB0000BE390000B5
:1007F0004A4C000058CF0000D0EF0000AAFB0000D8
:10080000434D00003385000045F90000027F0000E1
:10081000503C00009FA8000051A30000408F000042
:10082000929D000038F50000BCB60000DA210000FF
:1008300010FF0000F3D20000CD0C000013EC00000C
:100840005F97000044170000C4A700007E3D000031
:10085000645D000019730000608100004FDC00003F
:10086000222A00009088000046EE0000B814000024
:10087000DE5E00000BDB0000E03200003A0A000000
:1008800049060000245C0000C2D30000AC620000F6
:1008900091950000E4790000E7C80000376D000082
:1008A0008DD500004EA900006C560000F4EA00004F
:1008B000657A0000AE080000BA780000252E00001E
:1008C0001CA60000B4C60000E8DD0000741F000094
:1008D0004BBD00008B8A0000703E0000B566000032
:1008E00048030000F60E00006135000057B9000013
:1008F00086C100001D9E0000E1F800009811000074
:1009000069D900008E9400009B1E000087E900005A
:10091000CE55000028DF00008CA10000890D0000EA
:10092000BFE6000042680000419900002D0F000062
:10093000B0540000BB160000520900006AD5000048
:1009400030360000A5380000BF400000A39E000024
:1009500081F30000D7FB00007CE300003982000037
:100960009B2F0000FF870000348E000043440000EE
:10097000C4DE0000E9CB0000547B0000943200008C
:10098000A6C20000233D0000EE4C0000950B0000C5
:1009900042FA0000C34E0000082E0000A1660000CD
:1009A00028D9000024B20000765B0000A2490000B4
:1009B0006D8B0000D125000072F80000F664000085
:1009C0008668000098160000D4A400005CCC0000EB
:1009D0005D650000B69200006C7000004850000099
:1009E000FDED0000B9DA00005E150000465700007A
:1009F000A78D00009D84000090D80000AB0000008F
:100A00008CBC0000D30A0000F7E400005805000089
:100A1000B8B3000045060000D02C00001E8F000077
:100A2000CA3F00000F020000C1AF0000BD0300007C
:100A3000011300008A6B00003A9100001141000090
:100A40004F670000DCEA000097F20000CFCE000004
:100A5000F0B40000E673000096AC000074220000C1
:100A6000E7AD000035850000E2F9000037E800003E
:100A70001C750000DF6E000047F100001A710000D5
:100A80001D290000C58900006FB70000620E00003C
:100A9000AA180000BE1B0000FC5600003E4B0000E0
:100AA000C6D20000792000009ADB0000C0FE0000E2
:100AB00078CD00005AF400001FDD0000A8330000CC
:100AC00088070000C7310000B11200001059000073
:100AD00027800000EC5F0000605100007FA900004B
:100AE00019B500004A0D00002DE500007A9F0000B6
:100AF00093C900009CEF0000A0E000003B4D000007
:100B0000AE2A0000F5B00000C8EB0000BB3C0000BE
:100B10008353000099610000172B0000047E000041
:100B2000BA770000D6260000E169000014630000D7
:100B3000552100000C7D00000002000004060000AA
:100B4000080A00000C0E000010120000141600002D
:100B5000181A00001C1E000020220000242600009D
:100B6000282A00002C2E000030320000343600000D
:100B7000383A00003C3E000040420000444600007D
:100B8000484A00004C4E00005052000054560000ED
:100B9000585A00005C5E000060620000646600005D
:100BA000686A00006C6E00007072000074760000CD
:100BB000787A00007C7E000080820000848600003D
:100BC000888A00008C8E00009092000094960000AD
:100BD000989A00009C9E0000A0A20000A4A600001D
:100BE000A8AA0000ACAE0000B0B20000B4B600008D
:100BF000B8BA0000BCBE0000C0C20000C4C60000FD
:100C0000C8CA0000CCCE0000D0D20000D4D600006C
:100C1000D8DA0000DCDE0000E0E20000E4E60000DC
:100C2000E8EA0000ECEE0000F0F20000F4F600004C
:100C3000F8FA0000FCFE00001B1900001F1D000058
:100C400013110000171500000B0900000F0D000024
:100C500003010000070500003B3900003F3D000094
:100C600033310000373500002B2900002F2D000004
:100C700023210000272500005B5900005F5D000074
:100C800053510000575500004B4900004F4D0000E4
:100C900043410000474500007B7900007F7D000054
:100CA00073710000777500006B6900006F6D0000C4
:100CB00063610000676500009B9900009F9D000034
:100CC00093910000979500008B8900008F8D0000A4
:100CD0008381000087850000BBB90000BFBD000014
:100CE000B3B10000B7B50000ABA90000AFAD000084
:100CF000A3A10000A7A50000DBD90000DFDD0000F4
:100D0000D3D10000D7D50000CBC90000CFCD000063
:100D1000C3C10000C7C50000FBF90000FFFD0000D3
:100D2000F3F10000F7F50000EBE90000EFED000043
:100D3000E3E10000E7E5000000040000080C00000B
:100D400010140000181C000020240000282C0000B3
:100D500030340000383C000040440000484C0000A3
:100D600050540000585C000060640000686C000093
:100D700070740000787C000080840000888C000083
:100D800090940000989C0000A0A40000A8AC000073
:100D9000B0B40000B8BC0000C0C40000C8CC000063
:100DA000D0D40000D8DC0000E0E40000E8EC000053
:100DB000F0F40000F8FC00001B1F000013170000F7
:100DC0000B0F0000030700003B3F0000333700001B
:100DD0002B2F0000232700005B5F0000535700000B
:100DE0004B4F0000434700007B7F000073770000FB
:100DF0006B6F0000636700009B9F000093970000EB
:100E00008B8F000083870000BBBF0000B3B70000DA
:100E1000ABAF0000A3A70000DBDF0000D3D70000CA
:100E2000CBCF0000C3C70000FBFF0000F3F70000BA
:100E3000EBEF0000E3E70000363200003E3A00002E
:100E4000262200002E2A0000161200001E1A0000A2
:100E5000060200000E0A0000767200007E7A000092
:100E6000666200006E6A0000565200005E5A000082
:100E7000464200004E4A0000B6B20000BEBA000072
:100E8000A6A20000AEAA0000969200009E9A000062
:100E9000868200008E8A0000F6F20000FEFA000052
:100EA000E6E20000EEEA0000D6D20000DEDA000042
:100EB000C6C20000CECA00002D2900002521000076
:100EC0003D390000353100000D090000050100002A
:100ED0001D190000151100006D690000656100001A
:100EE0007D790000757100004D490000454100000A
:100EF0005D59000055510000ADA90000A5A10000FA
:100F0000BDB90000B5B100008D89000085810000E9
:100F10009D99000095910000EDE90000E5E10000D9
:100F2000FDF90000F5F10000CDC90000C5C10000C9
:100F3000DDD90000D5D10000000800001018000025
:100F400020280000303800004048000050580000C1
:100F500060680000707800008088000090980000B1
:100F6000A0A80000B0B80000C0C80000D0D80000A1
:100F7000E0E80000F0F800001B1300000B03000085
:100F80003B3300002B2300005B5300004B43000069
:100F90007B7300006B6300009B9300008B83000059
:100FA000BBB30000ABA30000DBD30000CBC3000049
:100FB000FBF30000EBE30000363E0000262E0000AD
:100FC000161E0000060E0000767E0000666E000011
:100FD000565E0000464E0000B6BE0000A6AE000001
:100FE000969E0000868E0000F6FE0000E6EE0000F1
:100FF000D6DE0000C6CE00002D2500003D350000E5
:101000000D0500001D1500006D6500007D750000D8
:101010004D4500005D550000ADA50000BDB50000C8
:101020008D8500009D950000EDE50000FDF50000B8
:10103000CDC50000DDD500006C6400007C740000AC
:101040004C4400005C5400002C2400003C340000A0
:101050000C0400001C140000ECE40000FCF4000090
:10106000CCC40000DCD40000ACA40000BCB4000080
:101070008C8400009C940000777F0000676F000064
:10108000575F0000474F0000373F0000272F000048
:10109000171F0000070F0000F7FF0000E7EF000038
:1010A000D7DF0000C7CF0000B7BF0000A7AF000028
:1010B000979F0000878F00005A5200004A420000AC
:1010C0007A7200006A6200001A1200000A02000030
:1010D0003A3200002A220000DAD20000CAC2000020
:1010E000FAF20000EAE200009A9200008A82000010
:1010F000BAB20000AAA20000414900005159000004
:1011000061690000717900000109000011190000F7
:101110002129000031390000C1C90000D1D90000E7
:10112000E1E90000F1F900008189000091990000D7
:10113000A1A90000B1B900000000000009000000F2
:101140000000000008000000010200000000000094
:10115000000C000000030000040A00000000000072
:101160000A00000000000000050000000008000068
:101170000000000000000000060000000800000061
:10118000000000000000000007080000000B000045
:10119000090000000000000008000000010200003B
:1011A00005060000070800000A0100000500000015
:1011B000020100000500000002040000030000001E
:1011C000020A000003000000020400000A00000000
:1011D00006010000050000000607000008000000EE
:1011E000060700000A000000060A000008000000D0
:1011F00009090000090000000A0A00000A0A0000AC
:10120000D8D00000E0C00000D0D00000D0C0000066
:10121000C0E80000E8D00000D0D00000D0000000FE
:10122000010100000204000008100000204000003E
:101230008000000058020000320000003200000070
:10124000580200003200000058020000580200005E
:10125000320000000200FA000000EB00C0548800D9
:10126000800C2000E05488000000EB00D05488007F
:101270000040EB00004F7800070037001E80FB00A5
:10128000C200DD00E0A92000008040008000EB00EB
:10129000010878001E4FE8001E407800E94F50001A
:1012A000F6FF360060AC20008040EB00014878007B
:1012B00070AC20008040EB000148780080AC20003A
:1012C0008040EB000148780090AC20008040EB00AB
:1012D000014878008068EF008268EF000080FA0023
:1012E000000006000000FA0037000700C05480002C
:1012F000E10F50000C003200E10F500005003900F2
:10130000E20F500019003200E30F50001B003200C2
:101310002600370034AF020000000000100020005B
:10132000C05488002100370010678000E90F50008A
:101330000600320010678000EA0F50000300320000
:10134000106780000000E00003003A003000200039
:10135000C054880003003700CE030700200020009F
:10136000C05488006B0D070010003700E90D07001E
:1013700030002000C05488000C00370084C8BF0033
:101380003501070084C8BF000040E80084E8B700CA
:1013900084C8BF00E94F5000010036008468EF00A8
:1013A0000000EB00C0548800000000000080FA003C
:1013B000000006000000FA0010002000D054880051
:1013C0000080FA00000006000000FA00D0548000FF
:1013D0008000EB00A200200003002000820F5000DC
:1013E000838F580086003E000060010083003700B4
:1013F00009003700140037001F0037002A003700AB
:1014000035003700400037004B00370056003700EA
:10141000610037006C00370000AA200010407800FF
:101420000004E0000500320000AA2000104078000F
:101430008040E90000AA2000014878002000200038
:10144000D05488006E00370040AA20001040780079
:101450000004E0000500320040AA2000104078009F
:101460008040E90040AA20000148780030002000B8
:10147000D05488006200370080AA20001040780015
:101480000004E0000500320080AA2000104078002F
:101490008040E90080AA2000014878004000200038
:1014A000D054880056003700C0AA200010407800B1
:1014B0000004E00005003200C0AA200010407800BF
:1014C0008040E900C0AA20000148780050002000B8
:1014D000D05488004A00370000AB2000104078004C
:1014E0000004E0000500320000AB2000104078004E
:1014F0008040E90000AB2000014878006000200037
:10150000D05488003E00370040AB200010407800E7
:101510000004E0000500320040AB200010407800DD
:101520008040E90040AB20000148780070002000B6
:10153000D05488003200370080AB20001040780083
:101540000004E0000500320080AB2000104078006D
:101550008040E90080AB2000014878008000200036
:10156000D054880026003700C0AB2000104078001F
:101570000004E00005003200C0AB200010407800FD
:101580008040E900C0AB20000148780090002000B6
:10159000D05488001A00370000AC200010407800BA
:1015A0000004E0000500320000AC2000104078008C
:1015B0008040E90000AC200001487800A000200035
:1015C000D05488000E00370040AC20001040780056
:1015D0000004E0000500320040AC2000104078001C
:1015E0008040E90040AC2000014878000000EB009A
:1015F000D054880000000000010037000000000007
:101600000080FA00000006000200FA00000F7800D7
:101610001E007800C200DD00E0A92000008040002C
:1016200011002000010878001E007800C200DD00D3
:1016300000AA20000080400041C1B30001487800AA
:101640001E0078008000EB009200200003002000C4
:10165000820F5000838F58006D003E000060010033
:10166000090037000E00370013003700180037005C
:101670001D00370022003700270037002C003700FC
:1016800031003700490037000000EB00105588009A
:1016900040AA20008040EB00014878005C00370041
:1016A0000000EB00F054880000AA20008040EB000E
:1016B00001487800560037000000EB0050558800C4
:1016C000C0AA20008040EB0001487800500037009D
:1016D0000000EB003055880080AA20008040EB001D
:1016E000014878004A0037000000EB009055880060
:1016F00040AB20008040EB000148780044003700F8
:101700000000EB007055880000AB20008040EB002B
:10171000014878003E0037000000EB00D0558800FB
:10172000C0AB20008040EB00014878003800370053
:101730000000EB00B055880080AB20008040EB003B
:101740000148780032003700C17D80000008200089
:10175000008060000000E0000D003A001E007800EC
:10176000C200DD00E0A92000008040008000EB0006
:10177000010878001E007800C200DD0000AA2000E9
:10178000008040008040EB000148780020003700D6
:101790001E007800C200DD0000AA2000008040008A
:1017A00081CCB3000148780019003700C17D80006A
:1017B00000042000008060000000E0000D003A00FE
:1017C0001E007800C200DD00E0A92000008040007B
:1017D0008000EB00010878001E007800C200DD00E8
:1017E00000AA2000008040008040EB000148780003
:1017F000070037001E007800C200DD0000AA2000AC
:101800000080400081CCB300014878000000000057
:101810000080FA00000006000200FA00000F7800C5
:101820001E007800C200DD00E0A92000008040001A
:101830008000EB00010878001E007800C200DD0087
:1018400000AA2000008040008040EB0001487800A2
:101850000080FA00000006000200FA00004F780045
:101860001E80FB00C200DD00E0A9200000804000D7
:1018700010007800E10F50000F003A001E80FB00BE
:101880004200DD008080E800E0A9200000804000E8
:10189000104078000004E00007003A001E80FB00C2
:1018A000C200DD00E0A920000080400021002000EF
:1018B00001087800150037001E80FB00C200DD0023
:1018C000E0A920000080400010007800E20F5000E6
:1018D0000E003A001E4078000E0007001E80FB003C
:1018E000C200DD00E0A920000080400011002000BF
:1018F000010878001E80FB00C200DD0000AA200065
:101900000080400041C1B300014878000080FA0027
:10191000000006000200FA00004F78001E80FB0065
:10192000CF80DE009200200003002000820F5000D4
:10193000838F580034023E00006001000900370028
:101940004D00370091003700DE0037002B013700D3
:101950006001370099013700C9013700FD013700E8
:101960001302370051168000000021000080600043
:101970000000E00005003200511680000000220047
:10198000008060000000E0000600320060AC200033
:10199000104078008040E80060AC200001487800EA
:1019A0000600370060AC20008040EB000148780062
:1019B000E07D80000050A000E07D8800106780007E
:1019C000E40F50000600320010678000E50F500061
:1019D0000300320010678000E60F500007003A0055
:1019E00060AC20008040EB0001487800E07D800082
:1019F0000050A000E07D88001200370010678000D2
:101A0000EB0F50000900320010678000EC0F50000F
:101A10000600320010678000ED0F50000300320016
:101A200010678000EE0F500006003A0060AC200006
:101A30008040EB0001487800E07D80000050A0006D
:101A4000E07D880060AC200010407800E14F50003D
:101A5000EF013600B298020000000000E07D800037
:101A60000050A100E07D88000040EB002A2A02001F
:101A7000010000000502370051168000000021001F
:101A8000008060000000E00005003A005116800070
:101A900000002200008060000000E00006003A0024
:101AA00060AC2000104078008040E80060AC20006E
:101AB000014878000600370060AC20008040EB0051
:101AC00001487800E07D80000050A000E07D8800A3
:101AD00010678000E40F500006003200106780009D
:101AE000E50F50000300320010678000E60F500041
:101AF00007003A0060AC20008040EB00014878000D
:101B0000E07D80000050A000E07D880012003700DA
:101B100010678000EB0F5000090032001067800052
:101B2000EC0F50000600320010678000ED0F5000EF
:101B30000300320010678000EE0F500006003A00EC
:101B400060AC20008040EB0001487800E07D800020
:101B50000050A000E07D880060AC200010407800BC
:101B6000E14F5000AC013600B298020000000000C6
:101B7000E07D80000050A100E07D88000040EB0087
:101B80002A2A020001000000C0013700511680001F
:101B900000402000008060000000E00005003200EE
:101BA0005116800000802000008060000000E000EE
:101BB0000600320070AC2000104078008040E80041
:101BC00070AC2000014878000600370070AC20009F
:101BD0008040EB0001487800B07D800000D0A0007C
:101BE000B07D880010678000E40F500006003200CE
:101BF00010678000E50F500003003200106780007E
:101C0000E60F500007003A0060AC20008040EB0077
:101C100001487800E07D80000050A000E07D880051
:101C20001200370010678000EB0F500009003200EF
:101C300010678000EC0F5000060032001067800033
:101C4000ED0F50000300320010678000EE0F5000CF
:101C500006003A0060AC20008040EB0001487800AC
:101C6000E07D80000050A000E07D880070AC200086
:101C700010407800E14F5000690136001067800085
:101C8000E90F50000300320010678000EA0F500097
:101C900003003A00A4970200000000000200370091
:101CA000329A020000000000B07D800000D0A10048
:101CB000B07D880010C0B3002A2A02000100000095
:101CC0007201370051168000004020000080600043
:101CD0000000E00005003A0051168000008020005E
:101CE000008060000000E00006003A0070AC2000B8
:101CF000104078008040E80070AC20000148780077
:101D00000600370070AC20008040EB0001487800EE
:101D1000B07D800000D0A000B07D880010678000FA
:101D2000E40F50000600320010678000E50F5000FD
:101D30000300320010678000E60F500007003A00F1
:101D400060AC20008040EB0001487800E07D80001E
:101D50000050A000E07D880012003700106780006E
:101D6000EB0F50000900320010678000EC0F5000AC
:101D70000600320010678000ED0F500003003200B3
:101D800010678000EE0F500006003A0060AC2000A3
:101D90008040EB0001487800E07D80000050A0000A
:101DA000E07D880070AC200010407800E14F5000CA
:101DB0001D01360010678000E90F5000030032005B
:101DC00010678000EA0F500003003A00A497020059
:101DD0000000000002003700329A020000000000FC
:101DE000B07D800000D0A100B07D880010C0B3009D
:101DF0002A2A020001000000240137001067800039
:101E0000E90F50000300320010678000EA0F500015
:101E10000B003A0080AC20008040EB0001487800C5
:101E2000B07D80000050A000B07D88008228A8000E
:101E3000B07D800000B0A000B07D880013013700A5
:101E400010178000640060000000E0000400320011
:101E500010178000680060000000E00006003200FB
:101E600080AC2000104078008040E80080AC20006A
:101E7000014878000A00370080AC20008040EB0069
:101E800001487800B07D80000050A000B07D88003F
:101E90008228A800B07D800000B0A000B07D88003E
:101EA00080AC200010407800E14F5000E000360088
:101EB000B298020000000000B07D800000B0A100D8
:101EC000B07D880020C0B3002A2A02000100000073
:101ED000EE00370010678000E90F50000300320069
:101EE00010678000EA0F50000B003A0080AC200021
:101EF0008040EB0001487800B07D80000050A000D9
:101F0000B07D88008228A800B07D800000B0A000CD
:101F1000B07D8800DD00370010178000640060008D
:101F20000000E00004003A00101780006800600024
:101F30000000E00006003A0080AC2000104078006D
:101F40008040E80080AC2000014878000A0037009B
:101F500080AC20008040EB0001487800B07D80001C
:101F60000050A100B07D88008228A900B07D8000CB
:101F700000B0A000B07D880080AC20001040780048
:101F8000E14F5000AC003600B298020000000000A3
:101F9000B07D80000050A100B07D88008228A9009B
:101FA000B07D800000B0A100B07D880020C0B300EB
:101FB0002A2A020001000000B40037001017800038
:101FC000610060000000E000040032001017800093
:101FD000620060000000E0000600320090AC2000CB
:101FE000104078008040E80090AC20000148780064
:101FF0000A00370090AC20008040EB0001487800D8
:10200000B07D80000060A000B07D88008208A8003C
:10201000B07D800000C0A000B07D880090AC2000A2
:1020200010407800E14F50008500360010678000B6
:10203000E90F50000600320010678000EA0F5000E0
:1020400003003200106780000000E00003003A0047
:10205000A49702000000000002003700329A02003C
:1020600000000000B07D800000C0A100B07D8800AD
:1020700030C0B3002A2A02000100000083003700AC
:1020800010178000610060000000E00004003A00CA
:1020900010178000620060000000E00006003A00B7
:1020A00090AC2000104078008040E80090AC200008
:1020B000014878000A00370090AC20008040EB0017
:1020C00001487800B07D80000060A100B07D8800EC
:1020D0008208A900B07D800000C0A000B07D88000B
:1020E00090AC200010407800E14F500056003600C0
:1020F00010678000E90F5000060032001067800072
:10210000EA0F500003003200106780000000E0007A
:1021100003003A00A497020000000000020037000C
:10212000329A020000000000B07D80000060A10033
:10213000B07D88008208A900B07D800000C0A100A9
:10214000B07D880030C0B3002A2A020001000000E0
:102150004E003700104480000000D100E1406000D4
:10216000104480004300DE006140600080CF5000DA
:102170003700320010678000E90F5000360032004F
:1021800010678000EA0F50003500320010678000B1
:102190000000E00034003200B298020000000000AD
:1021A00030C2B3002A2A02000100000037003700C5
:1021B00010448000E1406000104480004200DE00D6
:1021C0006140600080CF500029003200106780001D
:1021D000E90F50002800320010678000EA0F50001D
:1021E00027003200106780000000E0002600320067
:1021F000329A02000000000020C2B3002A2A020026
:102200000100000021003700000000001F0037001F
:10221000000000001D003700000000001B00370018
:102220000000000019003700000000001700370010
:102230000000000015003700000000001300370008
:102240000000000011003700000000000F00370000
:10225000000000000D003700000000000B003700F8
:1022600000000000090037000000000007003700F0
:1022700000000000050037000000000003003700E8
:102280000000000001003700000000000080FA009C
:10229000000006000200FA00106780006101B8002B
:1022A0000080EB008080EB0002004000838048004B
:1022B000D200200003002000820F5000838F5800BE
:1022C00068003E00006001000D0037001400370078
:1022D0001B0037003B003700440037004D0037003B
:1022E0001700370016003700600037005F00370026
:1022F0005200370051003700500037004F003700C0
:1023000070678000610060000000E00002003200A1
:102310005D0007005A0037007101070058003700C0
:1023200070678000610060000000E0000200320081
:1023300052070700520037006308070050003700BB
:10234000A228020001000000004F7800760C020075
:1023500001000000104798001E407800E74F500031
:102360000A0032001E407800E14F5000070036009E
:1023700070678000610060000000E0000200320031
:102380006A020700010037009D0307001E4090000D
:10239000E74F5000370032001E409000E14F5000E0
:1023A0003600360070678000610060000000E000C9
:1023B00002003200C604070031003700FB050700A9
:1023C0002F00370070678000610060000000E000AF
:1023D0000300320055020700BD0407002800370043
:1023E00087030700F10507002500370070678000AC
:1023F000610060000000E000030032004B020700B3
:10240000B30407001E0037007D030700E70507003F
:102410001B00370070678000610060000000E00072
:102420000300320041020700A9040700140037002E
:1024300073030700DD050700110037007067800097
:10244000610060000000E000030032003702070076
:102450009F0407000A00370069030700D30507003F
:1024600007003700000000000500370000000000F2
:1024700003003700000000000100370000000000EA
:102480000080FA00000006000200FA00881F7800B1
:102490000040EB00004F780030688000E50F5000EE
:1024A000C5003A00C17D800000402000008060002F
:1024B0000000E00015003200C17D80000080200097
:1024C000008060000000E00010003200D07D80003D
:1024D000640060000000E0000C003200D07D80004D
:1024E000680060000000E00008003200A0FC20004E
:1024F000104078000004E00004003200B0FC20002E
:10250000104078000004E00064003A00A0FC2000C5
:1025100031C0B30001487800B0FC200031C0B300E6
:1025200001487800505680000000E00014003A0096
:102530001000200050568800009620006056880049
:102540007CA9020000000000E24F5000DA003A00CF
:102550009EA90200000000008040780080AD2000AD
:10256000014878009EA90200000000004800DE003B
:102570008040780090AD200001487800D5003700F9
:10258000605680000000E0003C0032007CA90200A0
:1025900000000000E24F5000C9003A0020AE2000C9
:1025A0008040EB000148780080AD200010447800A6
:1025B0009EA902000000000000407800804F5400F7
:1025C0000300320020AE200011C0B30001487800A3
:1025D00090AD2000104478009EA902000000000089
:1025E0004800DE0000407800804F540003003200B5
:1025F00020AE200011C0B3000148780020AE2000BA
:10260000104078000004E000AF003200C07D800080
:1026100000E0A100C07D8800C17D8000F0FF2700A0
:1026200000806000C07D8800A497020000000000C8
:1026300090FB2000104078008040780050C0B3002C
:10264000062A020001000000A0FB200010407800D4
:102650008040780060C0B300062A0200010000003C
:10266000B07D80000080A000B07D8800D0C0B300A5
:102670002A2A02000100000096003700A0FC20007A
:102680008040EB0001487800B0FC20008040EB0067
:1026900001487800000000004E00370000E92000EB
:1026A00010407800E64F500089003A0050568000F4
:1026B000E10F50003D003A000040EB001047980049
:1026C000150037001E4090000080FB00E400400031
:1026D000A0AC200000804000904078001E40900098
:1026E0000080FB00660040006801400000E9200017
:1026F000000041001040900080CF500003003200E5
:1027000020AE200011C0B300014878001E409000A8
:102710000040E800104798001E409000E94F50002C
:10272000E8FF360020AE2000104078000004E000F2
:102730001E003200C07D800000E0A100C07D880046
:10274000C17D8000F0FF270000806000C07D880010
:10275000A49702000000000090FB200010407800C9
:102760008040780050C0B300062A0200010000003B
:10277000A0FB2000104078008040780060C0B300CB
:10278000062A020001000000B07D80000080A00049
:10279000B07D8800D0C0B3002A2A020001000000EA
:1027A0000000EB00505688004A0037000000EB00A4
:1027B000505688000700370030688000E40F500052
:1027C00004003A000000EB00505688000000EB00C7
:1027D00060568800A0FC2000104078000004E00053
:1027E00005003A00C07D800000E0A100C07D8800A7
:1027F00010C0B300004F7800B0FC200010407800FB
:102800000004E00006003A00C17D8000F0FF2700D0
:1028100000806000C07D880010C0B300004F7800C9
:10282000C17D800000402000008060000000E000CA
:102830000D003200C17D800000802000008060001B
:102840000000E00008003200D07D800064006000DD
:102850000000E00004003200D07D800068006000CD
:102860000000E00002003A0010C0B300004F780002
:102870001E4078000004E00016003200A497020019
:102880000000000090FB200010407800804078009D
:1028900050C0B300062A020001000000A0FB200087
:1028A000104078008040780060C0B300062A020023
:1028B000010000000700370000000000050037009D
:1028C0000000000003003700000000000100370096
:1028D000000000004F0478000080FA0000000600AD
:1028E0000200FA00881F78000040EB00004F7800DB
:1028F00030688000E50F5000C3003A00D07D8000B2
:10290000640060000000E00016003200D07D80000E
:10291000680060000000E00012003200C17D80000D
:1029200000402000008060000000E0000D00320048
:10293000C17D800000802000008060000000E00079
:1029400008003200C0FC2000104078000004E000C5
:1029500004003200D0FC2000104078000004E000A9
:1029600063003A00C0FC200031C0B3000148780089
:10297000D0FC200031C0B30001487800205780000F
:102980000000E00014003A001000200020578800EA
:1029900000962000305788007CA90200000000004B
:1029A000E24F5000D7003A009EA90200000000004C
:1029B0008040780020AF2000014878009EA90200E6
:1029C000000000004800DE008040780030AF2000AA
:1029D00001487800D2003700305780000000E00046
:1029E0003B0032007CA9020000000000E24F5000D2
:1029F000C6003A00C0AF20008040EB0001487800DC
:102A000020AF2000104478009EA9020000000000C2
:102A100000407800804F540003003200C0AF200017
:102A200011C0B3000148780030AF20001044780096
:102A30009EA90200000000004800DE00004078006F
:102A4000804F540003003200C0AF200011C0B3001B
:102A500001487800C0AF2000104078000004E0007A
:102A6000AC003200D07D80000060A100D07D8800E5
:102A7000D07D80000070A100D07D8800A497020066
:102A80000000000090FB200010407800804078009B
:102A900050C0B300062A020001000000A0FB200085
:102AA000104078008040780060C0B300062A020021
:102AB00001000000B07D80000080A000B07D880093
:102AC000D0C0B3002A2A02000100000094003700A1
:102AD000C0FC20008040EB0001487800D0FC2000C2
:102AE0008040EB0001487800000000004D003700F6
:102AF00000E9200010407800E64F500087003A00BF
:102B000020578000E10F50003C003A000040EB00ED
:102B100010479800150037001E4090000080FB0011
:102B2000E400400040AE200000804000904078006B
:102B30001E4090000080FB006600400068014000DD
:102B400000E92000000041001040900080CF5000BC
:102B500003003200C0AF200011C0B300014878006C
:102B60001E4090000040E800104798001E40900072
:102B7000E94F5000E8FF3600C0AF20001040780059
:102B80000004E0001D003200D07D80000060A10044
:102B9000D07D8800D07D80000070A100D07D8800AD
:102BA000A49702000000000090FB20001040780075
:102BB0008040780050C0B300062A020001000000E7
:102BC000A0FB2000104078008040780060C0B30077
:102BD000062A020001000000B07D80000080A000F5
:102BE000B07D8800D0C0B3002A2A02000100000096
:102BF0000000EB0020578800490037000000EB0080
:102C0000205788000700370030688000E40F50002C
:102C100004003A000000EB00205788000000EB00A1
:102C200030578800C0FC2000104078000004E0000D
:102C300005003A00D07D80000060A100D07D8800B2
:102C400010C0B300004F7800D0FC20001040780086
:102C50000004E00005003A00D07D80000070A10073
:102C6000D07D880010C0B300004F7800D07D800078
:102C7000640060000000E0000E003200D07D8000A3
:102C8000680060000000E0000A003200C17D8000A2
:102C900000402000008060000000E00005003200DD
:102CA000C17D800000802000008060000000E00006
:102CB00002003A0010C0B300004F78001E407800B8
:102CC0000004E00016003200A4970200000000009B
:102CD00090FB2000104078008040780050C0B30086
:102CE000062A020001000000A0FB2000104078002E
:102CF0008040780060C0B300062A02000100000096
:102D00000700370000000000050037000000000049
:102D10000300370000000000010037000000000041
:102D20004F0478000080FA00000006000200FA005C
:102D3000881F78000040EB00004F7800606880003A
:102D4000E50F5000E5003A00C17D80000010200032
:102D5000008060000000E00015003200C17D8000AE
:102D600000202000008060000000E0001000320021
:102D7000D07D8000610060000000E0000C003200A7
:102D8000D07D8000620060000000E000080032009A
:102D9000E0FC2000104078000004E0000400320055
:102DA000F0FC2000104078000004E00085003A00AC
:102DB000E0FC200031C0B30001487800F0FC2000A6
:102DC00031C0B30001487800905980000000E00055
:102DD00017003A001000200090598800009620004B
:102DE000A059880010678000E70F5000FA003200F9
:102DF00072A9020000000000E14F5000F8003A0004
:102E000086A90200000000008040780000B4200085
:102E10000148780086A90200000000004800DE009A
:102E20008040780010B4200001487800F10037009D
:102E3000A05980000000E0005A00320010678000B6
:102E4000E70F500004003A00A0B420008040EB00DF
:102E5000014878001C00370072A902000000000041
:102E6000E14F500018003A00A0B420008040EB0071
:102E70000148780000B420001044780086A90200C0
:102E80000000000000407800804F54000300320032
:102E9000A0B4200011C0B3000148780010B4200095
:102EA0001044780086A90200000000004800DE00FF
:102EB00000407800804F540003003200A0B420008E
:102EC00011C0B30001487800A0B420001040780081
:102ED0000004E000C4003200C07D800000C0A100FA
:102EE000C07D8800C07D800000D0A100C07D88002A
:102EF000B29802000000000090FB20001040780013
:102F00008040780050C0B300062A02000100000093
:102F1000A0FB2000104078008040780060C0B30023
:102F2000062A02000100000010678000E80F500030
:102F300015003A00C07D800000E0A100C07D88003F
:102F4000C17D8000F0FF270000806000C07D880008
:102F5000329A02000000000090FB20001040780030
:102F60008040780050C0B300062A02000100000033
:102F7000A0FB2000104078008040780060C0B300C3
:102F8000062A020001000000B07D80000080A00041
:102F9000B07D8800D0C0B3002A2A020001000000E2
:102FA00094003700E0FC20008040EB0001487800EE
:102FB000F0FC20008040EB00014878000000000099
:102FC0004D00370000ED200010407800E64F500023
:102FD00087003A0090598000E10F50003C003A0011
:102FE0000040EB0010479800150037001E4090008D
:102FF0000080FB00E400400020B32000008040007F
:10300000904078001E4090000080FB006600400069
:103010006801400000ED20000000410010409000D9
:1030200080CF500003003200A0B4200011C0B300D4
:10303000014878001E4090000040E80010479800CA
:103040001E409000E94F5000E8FF3600A0B4200079
:10305000104078000004E0001D003200C07D8000B8
:1030600000C0A100C07D8800C07D800000D0A1000C
:10307000C07D8800B29802000000000090FB200094
:10308000104078008040780050C0B300062A02004B
:1030900001000000A0FB2000104078008040780074
:1030A00060C0B300062A020001000000B07D80006D
:1030B0000080A000B07D8800D0C0B3002A2A0200A2
:1030C000010000000000EB00905988004900370023
:1030D0000000EB009059880007003700606880000E
:1030E000E40F500004003A000000EB009059880003
:1030F0000000EB00A0598800E0FC200010407800A0
:103100000004E00005003A00C07D800000C0A1007E
:10311000C07D880010C0B300004F7800F0FC200094
:10312000104078000004E00005003A00C07D8000F7
:1031300000D0A100C07D880010C0B300004F78000F
:10314000C17D800000102000008060000000E000D1
:103150000D003200C17D8000002020000080600052
:103160000000E00008003200D07D800061006000B7
:103170000000E00004003200D07D800062006000AA
:103180000000E00002003A0010C0B300004F7800D9
:103190001E4078000004E00016003200B2980200E1
:1031A0000000000090FB2000104078008040780074
:1031B00050C0B300062A020001000000A0FB20005E
:1031C000104078008040780060C0B300062A0200FA
:1031D0000100000007003700000000000500370074
:1031E000000000000300370000000000010037006D
:1031F000000000004F0478000080FA000000060084
:103200000200FA00881F78000040EB00004F7800B1
:1032100060688000E50F5000E4003A00D07D800037
:10322000610060000000E00016003200D07D8000E8
:10323000620060000000E00012003200C17D8000EA
:1032400000102000008060000000E0000D0032004F
:10325000C17D800000202000008060000000E000B0
:103260000800320000FD2000104078000004E0005B
:103270000400320010FD2000104078000004E0003F
:1032800084003A0000FD200031C0B30001487800FE
:1032900010FD200031C0B30001487800305B800091
:1032A0000000E00017003A0010002000305B8800AA
:1032B00000962000405B880010678000E70F5000F8
:1032C000F900320072A9020000000000E14F500036
:1032D000F7003A0086A90200000000008040780054
:1032E00040B720000148780086A9020000000000D5
:1032F0004800DE008040780050B720000148780088
:10330000F0003700405B80000000E0005900320010
:1033100010678000E70F500004003A00E0B720007B
:103320008040EB00014878001C00370072A90200C1
:1033300000000000E14F500018003A00E0B7200004
:103340008040EB000148780040B72000104478002E
:1033500086A902000000000000407800804F540061
:1033600003003200E0B7200011C0B300014878002C
:1033700050B720001044780086A902000000000029
:103380004800DE0000407800804F54000300320007
:10339000E0B7200011C0B30001487800E0B720007A
:1033A000104078000004E000C3003200D07D8000AF
:1033B0000040A100D07D8800D07D80000050A10099
:1033C000D07D8800B29802000000000090FB200031
:1033D000104078008040780050C0B300062A0200F8
:1033E00001000000A0FB2000104078008040780021
:1033F00060C0B300062A02000100000010678000D0
:10340000E80F500014003A00D07D80000060A10059
:10341000D07D8800D07D80000070A100D07D880024
:10342000329A02000000000090FB2000104078005B
:103430008040780050C0B300062A0200010000005E
:10344000A0FB2000104078008040780060C0B300EE
:10345000062A020001000000B07D80000080A0006C
:10346000B07D8800D0C0B3002A2A0200010000000D
:103470009400370000FD20008040EB0001487800F8
:1034800010FD20008040EB000148780000000000A3
:103490004D00370000ED200010407800E64F50004E
:1034A00087003A00305B8000E10F50003C003A009A
:1034B0000040EB0010479800150037001E409000B8
:1034C0000080FB00E400400060B620000080400067
:1034D000904078001E4090000080FB006600400095
:1034E0006801400000ED2000000041001040900005
:1034F00080CF500003003200E0B7200011C0B300BD
:10350000014878001E4090000040E80010479800F5
:103510001E409000E94F5000E8FF3600E0B7200061
:10352000104078000004E0001D003200D07D8000D3
:103530000040A100D07D8800D07D80000050A10017
:10354000D07D8800B29802000000000090FB2000AF
:10355000104078008040780050C0B300062A020076
:1035600001000000A0FB200010407800804078009F
:1035700060C0B300062A020001000000B07D800098
:103580000080A000B07D8800D0C0B3002A2A0200CD
:10359000010000000000EB00305B880049003700AC
:1035A0000000EB00305B8800070037006068800097
:1035B000E40F500004003A000000EB00305B88008C
:1035C0000000EB00405B880000FD20001040780008
:1035D0000004E00005003A00D07D80000040A1001A
:1035E000D07D880010C0B300004F780010FD20008F
:1035F000104078000004E00005003A00D07D800013
:103600000050A100D07D880010C0B300004F7800AA
:10361000D07D8000610060000000E0000E003200FC
:10362000D07D8000620060000000E0000A003200EF
:10363000C17D800000102000008060000000E000DC
:1036400005003200C17D8000002020000080600065
:103650000000E00002003A0010C0B300004F780004
:103660001E4078000004E00016003200B29802000C
:103670000000000090FB200010407800804078009F
:1036800050C0B300062A020001000000A0FB200089
:10369000104078008040780060C0B300062A020025
:1036A000010000000700370000000000050037009F
:1036B0000000000003003700000000000100370098
:1036C000000000004F0478000080FA0000000600AF
:1036D0000200FA00881F78000040EB00004F7800DD
:1036E00030688000E50F5000E6003A00C17D8000A0
:1036F00000402000008060000000E0001500320063
:10370000C17D800000802000008060000000E0009B
:1037100010003200D07D8000640060000000E000F6
:103720000C003200D07D8000680060000000E000E6
:1037300008003200A0FC2000104078000004E000E7
:1037400004003200B0FC2000104078000004E000CB
:1037500085003A00A0FC200031C0B3000148780089
:10376000B0FC200031C0B30001487800605A8000EE
:103770000000E00017003A0010002000605A8800A6
:1037800000962000705A880010678000E80F5000F3
:10379000FC0032007CA9020000000000E24F500053
:1037A000FA003A009EA90200000000008040780064
:1037B000A0B52000014878009EA90200000000008A
:1037C0004800DE0080407800B0B520000148780055
:1037D000F3003700705A80000000E0005A00320009
:1037E00010678000E80F500004003A0040B6200047
:1037F0008040EB00014878001C0037007CA90200E3
:1038000000000000E24F500018003A0040B62000CF
:103810008040EB0001487800A0B5200010447800FB
:103820009EA902000000000000407800804F540074
:103830000300320040B6200011C0B30001487800F8
:10384000B0B52000104478009EA9020000000000DE
:103850004800DE0000407800804F54000300320032
:1038600040B6200011C0B3000148780040B62000E7
:10387000104078000004E000C6003200C07D8000E7
:1038800000E0A100C07D8800C17D8000F0FF27001E
:1038900000806000C07D8800329A020000000000B5
:1038A00090FB2000104078008040780050C0B300AA
:1038B000062A020001000000A0FB20001040780052
:1038C0008040780060C0B300062A020001000000BA
:1038D00010678000E70F500014003A00C07D8000A0
:1038E00000C0A100C07D8800C07D800000D0A10084
:1038F000C07D8800B29802000000000090FB20000C
:10390000104078008040780050C0B300062A0200C2
:1039100001000000A0FB20001040780080407800EB
:1039200060C0B300062A020001000000B07D8000E4
:103930000080A000B07D8800D0C0B3002A2A020019
:103940000100000096003700A0FC20008040EB0042
:1039500001487800B0FC20008040EB00014878006E
:10396000000000004E00370000E920001040780001
:10397000E64F500089003A00605A8000E10F500085
:103980003D003A000040EB0010479800150037005A
:103990001E4090000080FB00E4004000C0B4200006
:1039A00000804000904078001E4090000080FB00A6
:1039B000660040006801400000E92000000041006E
:1039C0001040900080CF50000300320040B620002D
:1039D00011C0B300014878001E4090000040E8008C
:1039E000104798001E409000E94F5000E8FF360055
:1039F00040B62000104078000004E0001E003200B5
:103A0000C07D800000E0A100C07D8800C17D8000F5
:103A1000F0FF270000806000C07D8800329A02001D
:103A20000000000090FB20001040780080407800EB
:103A300050C0B300062A020001000000A0FB2000D5
:103A4000104078008040780060C0B300062A020071
:103A500001000000B07D80000080A000B07D8800E3
:103A6000D0C0B3002A2A0200010000000000EB00D1
:103A7000605A88004A0037000000EB00605A880056
:103A80000700370030688000E40F500004003A005F
:103A90000000EB00605A88000000EB00705A8800BC
:103AA000A0FC2000104078000004E00005003A006F
:103AB000C07D800000E0A100C07D880010C0B30080
:103AC000004F7800B0FC2000104078000004E000B7
:103AD00006003A00C17D8000F0FF270000806000F2
:103AE000C07D880010C0B300004F7800C17D800009
:103AF00000402000008060000000E0000D00320067
:103B0000C17D800000802000008060000000E00097
:103B100008003200D07D8000640060000000E000FA
:103B200004003200D07D8000680060000000E000EA
:103B300002003A0010C0B300004F78001E40780029
:103B40000004E00016003200329A0200000000007B
:103B500090FB2000104078008040780050C0B300F7
:103B6000062A020001000000A0FB2000104078009F
:103B70008040780060C0B300062A02000100000007
:103B800007003700000000000500370000000000BB
:103B900003003700000000000100370000000000B3
:103BA0004F0478000080FA00000006000200FA00CE
:103BB000881F78000040EB00004F780030688000DC
:103BC000E50F5000E4003A00D07D80006400600002
:103BD0000000E00016003200D07D80006800600028
:103BE0000000E00012003200C17D80000040200093
:103BF000008060000000E0000D003200C17D800008
:103C000000802000008060000000E000080032001A
:103C1000C0FC2000104078000004E00004003200E6
:103C2000D0FC2000104078000004E00084003A003E
:103C3000C0FC200031C0B30001487800D0FC200057
:103C400031C0B30001487800005C80000000E00053
:103C500017003A0010002000005C88000096200049
:103C6000105C880010678000E80F5000F9003200F7
:103C70007CA9020000000000E24F5000F7003A006B
:103C80009EA902000000000080407800E0B82000FB
:103C9000014878009EA90200000000004800DE00F4
:103CA00080407800F0B8200001487800F00037002C
:103CB000105C80000000E0005900320010678000B6
:103CC000E80F500004003A0080B920008040EB006B
:103CD000014878001C0037007CA9020000000000A9
:103CE000E24F500018003A0080B920008040EB00FD
:103CF00001487800E0B82000104478009EA9020036
:103D00000000000000407800804F540003003200A3
:103D100080B9200011C0B30001487800F0B820003D
:103D2000104478009EA90200000000004800DE0058
:103D300000407800804F54000300320080B920001A
:103D400011C0B3000148780080B92000104078000D
:103D50000004E000C3003200D07D80000060A100BC
:103D6000D07D8800D07D80000070A100D07D8800CB
:103D7000329A02000000000090FB20001040780002
:103D80008040780050C0B300062A02000100000005
:103D9000A0FB2000104078008040780060C0B30095
:103DA000062A02000100000010678000E70F5000A3
:103DB00014003A00D07D80000040A100D07D880032
:103DC000D07D80000050A100D07D8800B298020014
:103DD0000000000090FB2000104078008040780038
:103DE00050C0B300062A020001000000A0FB200022
:103DF000104078008040780060C0B300062A0200BE
:103E000001000000B07D80000080A000B07D88002F
:103E1000D0C0B3002A2A020001000000940037003D
:103E2000C0FC20008040EB0001487800D0FC20005E
:103E30008040EB0001487800000000004D00370092
:103E400000E9200010407800E64F500087003A005B
:103E5000005C8000E10F50003C003A000040EB00A5
:103E600010479800150037001E4090000080FB00AE
:103E7000E400400000B8200000804000904078003E
:103E80001E4090000080FB0066004000680140007A
:103E900000E92000000041001040900080CF500059
:103EA0000300320080B9200011C0B300014878003F
:103EB0001E4090000040E800104798001E4090000F
:103EC000E94F5000E8FF360080B92000104078002C
:103ED0000004E0001D003200D07D80000060A100E1
:103EE000D07D8800D07D80000070A100D07D88004A
:103EF000329A02000000000090FB20001040780081
:103F00008040780050C0B300062A02000100000083
:103F1000A0FB2000104078008040780060C0B30013
:103F2000062A020001000000B07D80000080A00091
:103F3000B07D8800D0C0B3002A2A02000100000032
:103F40000000EB00005C8800490037000000EB0037
:103F5000005C88000700370030688000E40F5000E4
:103F600004003A000000EB00005C88000000EB0059
:103F7000105C8800C0FC2000104078000004E000C5
:103F800005003A00D07D80000060A100D07D88004F
:103F900010C0B300004F7800D0FC20001040780023
:103FA0000004E00005003A00D07D80000070A10010
:103FB000D07D880010C0B300004F7800D07D800015
:103FC000640060000000E0000E003200D07D800040
:103FD000680060000000E0000A003200C17D80003F
:103FE00000402000008060000000E000050032007A
:103FF000C17D800000802000008060000000E000A3
:1040000002003A0010C0B300004F78001E40780054
:104010000004E00016003200329A020000000000A6
:1040200090FB2000104078008040780050C0B30022
:10403000062A020001000000A0FB200010407800CA
:104040008040780060C0B300062A02000100000032
:1040500007003700000000000500370000000000E6
:1040600003003700000000000100370000000000DE
:104070004F0478000080FA00000006000200FA00F9
:10408000881F78000040EB00004F780060688000D7
:10409000E50F5000C3003A00C17D800000102000F1
:1040A000008060000000E00015003200C17D80004B
:1040B00000202000008060000000E00010003200BE
:1040C000D07D8000610060000000E0000C00320044
:1040D000D07D8000620060000000E0000800320037
:1040E000E0FC2000104078000004E00004003200F2
:1040F000F0FC2000104078000004E00063003A006B
:10410000E0FC200031C0B30001487800F0FC200042
:1041100031C0B30001487800F05780000000E00093
:1041200014003A0010002000F0578800009620008C
:104130000058880072A9020000000000E14F500002
:10414000D7003A0086A902000000000080407800F5
:10415000C0B020000148780086A9020000000000DD
:104160004800DE0080407800D0B020000148780090
:10417000D2003700005880000000E0003B00320011
:1041800072A9020000000000E14F5000C6003A0092
:1041900060B120008040EB0001487800C0B02000F2
:1041A0001044780086A9020000000000004078005A
:1041B000804F54000300320060B1200011C0B300F2
:1041C00001487800D0B020001044780086A9020091
:1041D000000000004800DE0000407800804F5400DE
:1041E0000300320060B1200011C0B3000148780024
:1041F00060B12000104078000004E000AC00320004
:10420000C07D800000C0A100C07D8800C07D80000E
:1042100000D0A100C07D8800A4970200000000002B
:1042200090FB2000104078008040780050C0B30020
:10423000062A020001000000A0FB200010407800C8
:104240008040780060C0B300062A02000100000030
:10425000B07D80000080A000B07D8800D0C0B30099
:104260002A2A02000100000094003700E0FC200030
:104270008040EB0001487800F0FC20008040EB001B
:1042800001487800000000004D00370000ED2000DC
:1042900010407800E64F500087003A00F057800049
:1042A000E10F50003C003A000040EB00104798003E
:1042B000150037001E4090000080FB00E400400025
:1042C000E0AF200000804000904078001E40900049
:1042D0000080FB00660040006801400000ED200007
:1042E000000041001040900080CF500003003200D9
:1042F00060B1200011C0B300014878001E4090005A
:104300000040E800104798001E409000E94F500020
:10431000E8FF360060B12000104078000004E000A3
:104320001D003200C07D800000C0A100C07D88005B
:10433000C07D800000D0A100C07D8800A49702004D
:104340000000000090FB20001040780080407800C2
:1043500050C0B300062A020001000000A0FB2000AC
:10436000104078008040780060C0B300062A020048
:1043700001000000B07D80000080A000B07D8800BA
:10438000D0C0B3002A2A0200010000000000EB00A8
:10439000F0578800490037000000EB00F057880014
:1043A0000700370060688000E40F500004003A0006
:1043B0000000EB00F05788000000EB000058880078
:1043C000E0FC2000104078000004E00005003A0006
:1043D000C07D800000C0A100C07D880010C0B30077
:1043E000004F7800F0FC2000104078000004E0004E
:1043F00005003A00C07D800000D0A100C07D88008B
:1044000010C0B300004F7800C17D80000010200074
:10441000008060000000E0000D003200C17D8000DF
:1044200000202000008060000000E0000800320052
:10443000D07D8000610060000000E00004003200D8
:10444000D07D8000620060000000E00002003A00C1
:1044500010C0B300004F78001E4078000004E00058
:1044600016003200A49702000000000090FB20001C
:10447000104078008040780050C0B300062A020047
:1044800001000000A0FB2000104078008040780070
:1044900060C0B300062A02000100000007003700D8
:1044A0000000000005003700000000000300370096
:1044B0000000000001003700000000004F047800F9
:1044C0000080FA00000006000200FA00881F780051
:1044D0000040EB00004F780060688000E50F50005E
:1044E000C3003A00D07D8000610060000000E00061
:1044F00016003200D07D8000620060000000E00005
:1045000012003200C17D8000001020000080600099
:104510000000E0000D003200C17D8000002020007E
:10452000008060000000E0000800320000FD200074
:10453000104078000004E0000400320010FD20006C
:10454000104078000004E00063003A0000FD200005
:1045500031C0B3000148780010FD200031C0B30025
:1045600001487800C05880000000E00014003A00C4
:1045700010002000C058880000962000D058880005
:1045800072A9020000000000E14F5000D7003A007D
:1045900086A90200000000008040780060B2200080
:1045A0000148780086A90200000000004800DE00F3
:1045B0008040780070B2200001487800D2003700B7
:1045C000D05880000000E0003B00320072A90200D9
:1045D00000000000E14F5000C6003A0000B3200088
:1045E0008040EB000148780060B220001044780061
:1045F00086A902000000000000407800804F5400AF
:104600000300320000B3200011C0B300014878005D
:1046100070B220001044780086A90200000000005B
:104620004800DE0000407800804F54000300320054
:1046300000B3200011C0B3000148780000B320008F
:10464000104078000004E000AC003200D07D800013
:104650000040A100D07D8800D07D80000050A100E6
:10466000D07D8800A49702000000000090FB20008D
:10467000104078008040780050C0B300062A020045
:1046800001000000A0FB200010407800804078006E
:1046900060C0B300062A020001000000B07D800067
:1046A0000080A000B07D8800D0C0B3002A2A02009C
:1046B000010000009400370000FD20008040EB0066
:1046C0000148780010FD20008040EB000148780090
:1046D000000000004D00370000ED20001040780081
:1046E000E64F500087003A00C0588000E10F5000AC
:1046F0003C003A000040EB001047980015003700DE
:104700001E4090000080FB00E400400080B12000CB
:1047100000804000904078001E4090000080FB0028
:10472000660040006801400000ED200000004100EC
:104730001040900080CF50000300320000B32000F2
:1047400011C0B300014878001E4090000040E8000E
:10475000104798001E409000E94F5000E8FF3600D7
:1047600000B32000104078000004E0001D0032007B
:10477000D07D80000040A100D07D8800D07D8000E9
:104780000050A100D07D8800A49702000000000026
:1047900090FB2000104078008040780050C0B300AB
:1047A000062A020001000000A0FB20001040780053
:1047B0008040780060C0B300062A020001000000BB
:1047C000B07D80000080A000B07D8800D0C0B30024
:1047D0002A2A0200010000000000EB00C0588800F7
:1047E000490037000000EB00C05888000700370080
:1047F00060688000E40F500004003A000000EB0005
:10480000C05888000000EB00D058880000FD200050
:10481000104078000004E00005003A00D07D8000E0
:104820000040A100D07D880010C0B300004F780088
:1048300010FD2000104078000004E00005003A0060
:10484000D07D80000050A100D07D880010C0B30052
:10485000004F7800D07D8000610060000000E00023
:104860000E003200D07D8000620060000000E00099
:104870000A003200C17D800000102000008060002E
:104880000000E00005003200C17D80000020200013
:10489000008060000000E00002003A0010C0B30099
:1048A000004F78001E4078000004E000160032003F
:1048B000A49702000000000090FB20001040780048
:1048C0008040780050C0B300062A020001000000BA
:1048D000A0FB2000104078008040780060C0B3004A
:1048E000062A020001000000070037000000000057
:1048F0000500370000000000030037000000000042
:1049000001003700000000004F0478000080FA002A
:10491000000006000000FA00006280000000E000D5
:1049200008003A00C07D80000010A100C07D880012
:1049300010C2B3002A2A020001000000A49702005E
:10494000000000000080FA00000006000400FA00E9
:104950001007980010678000E40F50000600320036
:1049600010678000E50F50000300320010678000E0
:10497000E60F500005003A001E0090004300DE00E4
:1049800061406000004F780015003700106780001C
:10499000EB0F50000900320010678000EC0F500050
:1049A0000600320010678000ED0F50000300320057
:1049B00010678000EE0F500005003A001E009000C6
:1049C0004300DE0061406000004F780004003700C3
:1049D0001E0090004200DE0061406000004F780041
:1049E000104480004200DE00614060008080FB00D7
:1049F0001E80FB00808F50000B0032009E4078002C
:104A000061C060000080FB00610060004200DD00CA
:104A1000114480000120A1000100700010448800B2
:104A200090002000F8F207000080FA000000060065
:104A30000400FA001007980010678000E40F50008F
:104A40000600320010678000E50F500003003200BE
:104A500010678000E60F500005003A001E0090002D
:104A60004200DE0061406000004F78001500370012
:104A700010678000EB0F50000900320010678000C3
:104A8000EC0F50000600320010678000ED0F500060
:104A90000300320010678000EE0F500005003A005E
:104AA0001E0090004200DE0061406000004F780070
:104AB000040037001E0090004300DE0061406000EB
:104AC000004F7800104480004300DE006140600029
:104AD0008080FB001E80FB00808F50000B003200A6
:104AE0009E40780061C060000080FB0061006000B3
:104AF0004300DD00114480000130A100010070007E
:104B00001044880080002000BFF207000080FA00F7
:104B1000000006000000FA00004480004400DE00AF
:104B2000E1406000004480004500DE00614060001C
:104B300080CF500017003A00004480004600DE009D
:104B4000E1406000004480004700DE0061406000FA
:104B500080CF50000F003A0000448000E140600028
:104B6000004480000000D1006140600080CF500010
:104B700008003A00004480004200DE00E14060008E
:104B8000004480004300DE006140600080CF5000A0
:104B9000030032003A00070004000700010037005C
:104BA000000000000080FA00000006000000FA008B
:104BB00000448000610060000000E00005003A0051
:104BC00000448000620060000000E000010032004C
:104BD0008008A80000448000640060000000E0003D
:104BE00005003A0000448000680060000000E0001A
:104BF000010032008048A80000448000610060008D
:104C00000000E0000C003200004480006200600000
:104C10000000E00008003A00329A020000000000A4
:104C2000C07D80000040A100C07D880040C0B3006E
:104C30002A2A020001000000004480006400600095
:104C40000000E0000C0032000044800068006000BA
:104C50000000E00008003A00329A02000000000064
:104C6000C07D80000050A100C07D880050C0B3000E
:104C70002A2A0200010000000080FA00000006005D
:104C80000000FA0000448000700060000000E000B6
:104C900006003A000144800000022000008060000D
:104CA0000000E000010032008088A800014480007C
:104CB00000042000008060000000E00006003A00D0
:104CC0000144800000082000008060000000E00037
:104CD0000100320080C8A80000448000700060001D
:104CE0000000E0000D0032000144800000022000BE
:104CF000008060000000E00008003A0060C0B300DF
:104D00002A2A020001000000C07D80000020A100CE
:104D1000C07D8800B29802000000000001448000BD
:104D200000042000008060000000E0000D00320060
:104D30000144800000082000008060000000E000C6
:104D400008003A00B298020000000000C07D800018
:104D50000030A100C07D880070C0B3002A2A020084
:104D6000010000000080FA00000006000400FA00C4
:104D7000000F7800110798001E0078007000600096
:104D80000000E0000A0032001E0090006140600058
:104D90000080FB00610060004500DD0001448000F0
:104DA0000150A10001007000004488000900370094
:104DB0001E009000614060000080FB006100600008
:104DC0004700DD00014480000170A1000100700077
:104DD000004488000080FA00000006000400FA0089
:104DE000000F7800110798001E0078007000600026
:104DF0000000E0000A0032001E00900061406000E8
:104E00000080FB0061006000000040000144800061
:104E10000110A10001007000004488000900370063
:104E20001E009000614060000080FB006100600097
:104E30004300DD00014480000130A100010070004A
:104E4000004488000080FA00000006000000FA001C
:104E50008088A90080C8A90080A8A90080E8A900CE
:104E6000C07D80000020A000C07D8800C07D800043
:104E70000030A000C07D88000080FA00000006001D
:104E80000000FA008008A9008048A9008028A90035
:104E90008068A900C07D80000040A000C07D88001F
:104EA000C07D80000050A000C07D88000080FA0016
:104EB000000006000000FA00C07D800000C0A000D5
:104EC000C07D8800D07D80000040A000D07D88009B
:104ED000C07D800000D0A000C07D8800D07D800013
:104EE0000050A000D07D88000080FA00000006007D
:104EF0000000FA00C07D800000E0A000C07D8800B6
:104F0000D07D80000060A000D07D8800C17D800041
:104F10000000280001007000C07D8800D07D800066
:104F20000070A000D07D88000080FA00000006001C
:104F30000000FA00605680000000E000030032002C
:104F4000605680000000E9006056880030578000FD
:104F50000000E00003003200305780000000E9004C
:104F600030578800005880000000E0000300320045
:104F7000005880000000E90000588800D0588000E8
:104F80000000E00003003200D05880000000E9007B
:104F9000D0588800A05980000000E00003003200D3
:104FA000A05980000000E900A0598800405B800003
:104FB0000000E00003003200405B80000000E900D8
:104FC000405B8800705A80000000E000030032005F
:104FD000705A80000000E900705A8800105C800060
:104FE0000000E00003003200105C80000000E900D7
:104FF000105C88000080FA00000006000000FA0043
:10500000306780000000E00003003A0040D020003C
:10501000C01188001600370040678000E10F500083
:105020000A003200E10F500005003900E20F500085
:1050300009003200E30F50000A0032000C00370074
:1050400040D02000C01188000900370010682000FF
:10505000C011880006003700F0192000C011880038
:1050600003003700F00C2000C01188000000000091
:10507000E9A2A900D9C2A800113A8000F00B2000D3
:10508000008160006004200071052000237420006E
:105090008049780081497800824978003135800064
:1050A00000FC2F0080806000B00220000100700032
:1050B00030358800F1368000F00F2C0080806000D1
:1050C0000050200001007000F0368800103A800087
:1050D000000178000260A00060042000710520003B
:1050E0002374200080497800814978008249780043
:1050F0003022EF003222EF003162A8003062A800B7
:105100009C40A90097C0A90097E0A9008C40A90085
:1051100087C0A90087E0A90031E2A8000080FA005A
:10512000000006000200FA0000E720008040EB00CB
:105130000148780080E720008040EB0001487800BB
:1051400050E7200061C1B3000148780000E9200069
:105150008040EB000148780080E920008040EB00AF
:10516000014878000000EB009074880070E920008E
:105170008040EB000148780050E9200061C1B30095
:1051800001487800008020008000EB0001087800D2
:10519000EC22A90000802000014B20002100980093
:1051A0000040EB00004F7800060037009E80FB00B7
:1051B00080E72000008040008040EB001140980014
:1051C0001E4FE8001E407800F54F5000F7FF3600F4
:1051D000306780000000E00007003A0040E7200050
:1051E00091C0B3000148780040E9200091C0B300AD
:1051F000014878002600370040678000E10F50002A
:105200000E003200E10F500005003900E20F50009F
:1052100011003200E30F5000160032001C0037006E
:1052200040E7200091C0B3000148780040E9200029
:1052300091C0B300014878001500370040E7200016
:1052400051C0B3000148780040E9200051C0B300CC
:10525000014878000E00370040E7200011C0B3007D
:105260000148780040E9200011C0B30001487800EF
:105270000700370040E7200011C0B3000148780064
:1052800040E9200011C0B300014878000000000090
:1052900050E72000104078000080FB000080E8000C
:1052A0000040780041E72000914078008180FB00B9
:1052B0000088B900000078008040780060E7200096
:1052C000014878000828EF000A28EF000080FA0063
:1052D000000006000000FA000080200011002000FD
:1052E0000108780070678000610060000000E00045
:1052F000050032000080200081D4200011009800B9
:105300000A28EF00050037000080200001FA200085
:1053100011009800E0012000504088003342A800AE
:105320000080FA00000006000000FA0090408000B3
:105330000000E80090408800914080003006200086
:10534000808F5000140036001228EF003068800073
:10535000E60F500004003200B07D80006100600064
:105360000000E0000C003A00E01680004400DE007F
:105370006140600000C0EA00614060000080FB0006
:10538000610060004400DD00E11680000140A100E2
:1053900001007000E01688000080FA00000006009E
:1053A0000000FA0060408000714080006100400011
:1053B000E0804800604088007140880062408000C2
:1053C00073408000F0342C0001002000800F510059
:1053D000818F5900020036000C28EF000E28EF00E4
:1053E0000080FA00000006000200FA000201070037
:1053F00000E9200010407800E64F500004003A0019
:105400009504070000E920008040EB000148780087
:1054100000802000100078008000EB009200200047
:1054200003002000820F5000838F5800B9003E0017
:1054300000600100A60037000800370010003700A8
:10544000330037005300370065003700A0003700F5
:1054500070003700980037009D0037000080200062
:10546000100090000000E0009B003A00B50107002A
:10547000008020002100200001087800A5003700EE
:1054800050178000610060000000E00015003A0045
:10549000EC22A80050178000610060000000E000CE
:1054A00004003A000080200031002000010878004C
:1054B0009800370070678000610060000000E00025
:1054C00087003A00EC22A9000080200081D420004F
:1054D00011009800008020001100200001087800D1
:1054E0008C00370050178000610060000000E00071
:1054F0007D0032000080200081D42000110098003F
:105500000080200011002000010878008100370091
:10551000306780000000E00013003A00111780009F
:1055200000202000008060000000E00003003A003E
:10553000C5C2A800E502A9009D000700CE0A070029
:10554000AC01070000802000410020000108780025
:1055500000802000210320001100980002160200A4
:10556000010000006B003700C30A0700A10107001B
:105570000080200041002000010878000080200009
:105580002103200011009800021602000100000013
:1055900060003700D60C0200010000001416020063
:1055A00001000000004F78001E407800E44F5000DA
:1055B00005003A000C1602000100000000802000E7
:1055C00051002000010878000080200010009000A9
:1055D0000000E00046003A00500007004D00370090
:1055E00000802000100090000000E00042003A001F
:1055F00000802000710020000108780060E7200092
:10560000104078008080FB0000802000110098008E
:105610004000370080E7200010407800F54F500030
:105620000C00360091118000001020000080600006
:105630000000E000320032000080200081002000E5
:105640000108780000802000E1012000110098008E
:1056500030003700911180000020200000806000A1
:105660000000E0000E003A0080E7200010407800C3
:105670000080FB00E800400000E7200000804000C0
:10568000104090000080FB00A011880080E72000FF
:10569000104078008040E80080E720000148780052
:1056A00000802000100090000000E00016003A008A
:1056B0001A0007001700370000802000100090003B
:1056C0000000E00012003A0014000700110037004B
:1056D000000000000F003700000000000D00370040
:1056E000000000000B003700000000000900370038
:1056F0000000000007003700000000000500370030
:105700000000000003003700000000000100370027
:10571000000000000080FA00000006000200FA000D
:105720000000EB00000F7800008020001100200036
:105730000108780000802000B00090000080200068
:1057400020009000808F500009003600008020006B
:10575000B0009000004B200000017800110009000B
:105760008280D8008000FD00000F78000300370021
:1057700000802000B0009000010F78000080200021
:10578000200090009E005000008020001100980032
:10579000306780000000E00002003A00C5C2A900A6
:1057A000E502A800EC22A9000080FA000000060033
:1057B0000000FA0090118000640060000000E0002A
:1057C000010032003242A9009011800062006000A6
:1057D0000000E000010032003222A9009011800098
:1057E000680060000000E000010032003262A900A1
:1057F0000080FA00000006000400FA000000EB0040
:10580000000F78000040EB0020479800111780003F
:1058100000202000008060000000E0000100320055
:10582000E3FF070090118000610060000000E000CD
:1058300054003200B0118000204798002001200061
:105840009074880000E92000104078000080FB0080
:10585000E10F500014003200E10F500003003C0043
:105860000000E0000600320046003700E20F500062
:105870001D003200E30F50002B00320041003700C2
:1058800090E92000AE4090000148780080E92000B7
:1058900011C0B3000148780000E9200011C0B30036
:1058A000014878003700370080E920001040780078
:1058B0008080FB0080E9200000804000AE40900026
:1058C0001140980080E92000104078008040E800F6
:1058D00080E920000148780000E9200021C0B300E1
:1058E000014878002700370080E920001040780048
:1058F0008080FB0080E9200000804000AE409000E6
:105900001140980080E92000104078008040E800B5
:1059100080E920000148780000E9200031C0B30090
:10592000014878001700370080E920001040780017
:105930008080FB0080E9200000804000AE409000A5
:105940001140980080E92000104078008040E80075
:1059500080E920000148780080E9200010407800AC
:10596000F54F50000600360000E9200041C0B300AA
:1059700001487800201602000100000001003700F5
:105980000000000000E9200010407800E44F5000C3
:105990000D003A00C21002000100000032160200A1
:1059A00001000000304798003E409000E44F500056
:1059B00005003A002A1602000100000000E920005C
:1059C00051C0B3000148780000E920001040780081
:1059D000E54F500021003A00610120000000EB007B
:1059E0005830020001000000000F78001E0078000F
:1059F0000000E0001500320000E9200071C0B30093
:105A000001487800E07D80006800600000F0A70099
:105A10000000EA000000E9004F00DE0000407800CE
:105A20000080FB00610060004300DD00E17D80003C
:105A30000130A10001007000E07D880080408000FE
:105A40000000E800804088001500370000E92000D1
:105A500061C0B300014878001100370000E9200060
:105A6000104078000004E0000600320090748000CE
:105A70000000E00003003A0000E920008040EB0055
:105A80000148780000E9200010407800E74F5000FE
:105A900003003A0000E920008040EB000148780054
:105AA0000080FA00000006000000FA001EFE070059
:105AB0003BFE070000802000100090000000E00086
:105AC0000500320000802000100090008000E900F6
:105AD0000080200011009800008020001000780055
